:100000000C94E7000C940F010C940F010C94730CEA
:100010000C94730C0C94730C0C940F010C940F0142
:100020000C940F010C940F010C940F010C940F0110
:100030000C940F010C940F010C940F010C940F0100
:100040000C94290C0C940F010C941C0B0C94F60AC4
:100050000C940F010C940F010C940F010C940F01E0
:100060000C94070D0C940F010E1428143D14581411
:100070006314A114A814B214BD14CD14CD14CD145E
:10008000CD14CD14CD14CD14CD14CD14CD14CD1468
:10009000CD14CD14CD14CD14CD14CD14CD14CD1458
:1000A000CD14CD14CD14CD140E14231428143D14E6
:1000B000581463147E148914941407634236B79B52
:1000C000D8A71A39685618AEBAAB558C1D3CB7CCB8
:1000D0005763BD6DEDFD753EF6177231BF00000030
:1000E000803F08000000BE922449123EABAAAA2A13
:1000F000BECDCCCC4C3E00000080BEABAAAAAA3E2E
:1001000000000000BF000000803F00000000000869
:100110004178D3BB4387D1133D190E3CC3BD428206
:10012000AD2B3E68EC8276BED98FE1A93E4C80EFC4
:10013000FFBE01C4FF7F3F00000000000000000080
:10014000240027002A00436F756C64206E6F7420B2
:1001500066696E6420612076616C696420424D504E
:100160003238302073656E736F722C20636865635C
:100170006B20776972696E67210000000008000239
:100180000100000304070000000000000000000060
:100190000000250028002B0000000000230026009E
:1001A00029000404040404040404020202020202FA
:1001B000030303030303010204081020408001022B
:1001C00004081020010204081020DC152217112455
:1001D0001FBECFEFD8E0DEBFCDBF11E0A0E0B1E0A1
:1001E000E0E0FBE302C005900D92A836B107D9F715
:1001F00023E0A8E6B1E001C01D92A43DB207E1F7FB
:1002000010E0C6EED0E004C02197FE010E94AD1BB5
:10021000C53ED107C9F70E94350E0C94731D0C948E
:1002200000009091B5019111FCCF91E09093B50140
:100230009093B4012FEF2093B3011092B201260FD7
:100240002093B1019093900190919001880F892B98
:100250008093900180918F01813061F410928F0121
:10026000809190018093BB008091BC0083FDF8CF0A
:1002700085EC01C085EE8093BC008091B501813092
:10028000E1F38091B201861710F46091B201A1E907
:10029000B1E02FE631E0F9018E2F821B861718F4AA
:1002A0008D918193F9CF862F0895009769F0FC0115
:1002B00001900020E9F73197AF01481B590BBC01B1
:1002C00089ED91E00C94750880E090E00895382F56
:1002D0002091D80190914303213208F049C08091C8
:1002E000B5018111FCCF42E04093B5013093B401D8
:1002F0003FEF3093B3011092B2012093B101A8EB0C
:10030000B1E041E951E0FA013E2F341B321718F4F5
:100310003D913193F9CF1092900120919001990F66
:10032000922B9093900190918F01913061F41092F3
:100330008F01909190019093BB009091BC0093FD30
:10034000F8CF95EC01C095EE9093BC009091B5016B
:100350009230E1F39091B3019F3F79F08091B30126
:10036000803241F08091B301803331F084E005C0E8
:1003700081E003C082E001C083E01092B7011092D7
:10038000D8011092B601089591E09093B601809340
:1003900043031092B7011092D8010895CF93DF93D1
:1003A000D82FC62F80E60E94C4016D2F86E792E009
:1003B0000E94C50A6C2F86E792E00E94C50A81E080
:1003C000DF91CF910C946701813208F080E2682FB1
:1003D00080E60E94110110926E0180936D010895D4
:1003E000CF93DF931F92CDB7DEB7682F80E6698386
:1003F0000E94C401698186E792E00E94C50A80E0FC
:100400000E94670181E090E00E94E40186E792E0AB
:100410000E94790A0F90DF91CF91089510926E019A
:1004200010926D011092B7011092D8011092B5018F
:1004300081E08093B40110928F0161E082E10E941B
:10044000770B61E083E10E94770BE9EBF0E08081BC
:100450008E7F808380818D7F808388E48093B80045
:1004600085E48093BC00089588E591E00C945501E3
:10047000CF92DF92EF92FF920F931F93CF93DF9370
:10048000909121039F3F39F48EBD00000DB407FE0B
:10049000FDCF8EB544C0E82EC7E0D0E0D12C01E0FE
:1004A00010E0DD0C60E0809121030E94770BB80121
:1004B0000C2E01C0660F0A94EAF76E2180911F038B
:1004C0000E94770B61E0809121030E94770B2091BD
:1004D000200330E0F901E658FE4F8491F901EA5417
:1004E000FE4FC490F901EE55FE4FF490FF2071F0DD
:1004F00081110E944E0BEF2DF0E0EE0FFF1FE8562A
:10050000FE4FA591B491EC91EC2129F4219708F0CC
:10051000C8CF8D2D04C08D2D8160D82EF7CFDF91EF
:10052000CF911F910F91FF90EF90DF90CF900895A2
:10053000613208F060E20E94110110926E01809316
:100540006D01089581E00C946701CF92DF92EF92E4
:10055000FF92CF93C82F80911E038F3FC9F58091E2
:1005600015030E94C4016C2F86E792E00E94C50A21
:100570000E94A20263E0809115030E94980286E720
:1005800092E00E94790A6C01990FEE08FF08FE2C98
:10059000ED2CDC2CCC2486E792E00E94790AAC0199
:1005A000990F660B770BC42AD52AE62AF72AFE2C68
:1005B000ED2CDC2CCC2486E792E00E94790AAC0179
:1005C000990F660B770BC42AD52AE62AF72A33C07F
:1005D000809121038F3F21F482E591E00E94040D78
:1005E00060E080911E030E94770B8C2F80680E9430
:1005F000380280E00E943802C82ED12CE12CF12C68
:10060000FE2CED2CDC2CCC2480E00E943802C82A81
:10061000FE2CED2CDC2CCC2480E00E943802C82A71
:1006200061E080911E030E94770B809121038F3F30
:1006300011F40E94030DC701B601CF91FF90EF9016
:10064000DF90CF900895CF93DF93C82F80911E0342
:100650008F3F01F5809115030E94C4016C2F86E73E
:1006600092E00E94C50A0E94A20262E080911503F6
:100670000E94980286E792E00E94790AC82F86E7D6
:1006800092E00E94790A20E030E03C2FE901C82B7B
:10069000D92B29C0809121038F3F21F482E591E07D
:1006A0000E94040D60E080911E030E94770B8C2F46
:1006B00080680E94380280E00E943802C82F80E0E3
:1006C0000E9438022C2F30E0322F2227E901C82B5C
:1006D00061E080911E030E94770B809121038F3F80
:1006E00011F40E94030D9C2F8D2FDF91CF9108955F
:1006F0008F929F92AF92BF920F931F93CF93DF93EE
:10070000CDB7DEB7A1970FB6F894DEBF0FBECDBF51
:1007100019A2423008F44AE08E010F5D1F4F842E6B
:10072000912CA12CB12CA50194010E948B1BE62FCA
:10073000B901CA0101501109EA3014F4E05D01C0A9
:10074000E95CD801EC93232B242B252B61F7C801FE
:100750000E945501A1960FB6F894DEBF0FBECDBF23
:10076000DF91CF911F910F91BF90AF909F908F908D
:1007700008954F925F926F927F928F929F92AF9265
:10078000BF92CF92DF92EF92FF926B017C01B42E69
:100790009B01AC010E942D1A882319F08BE591E092
:1007A00027C026013701E89477F82FEF3FEF4FE796
:1007B0005FE7C301B2010E942D1A81110DC02FEF16
:1007C0003FEF4FE75FE7C301B2010E94BF17181662
:1007D0001CF48FE591E00CC02FEF3FEF4FE75FE493
:1007E000C701B6010E946B19181684F483E691E0E4
:1007F000FF90EF90DF90CF90BF90AF909F908F9041
:100800007F906F905F904F900C9455012FEF3FEFCA
:100810004FE75FECC701B6010E94BF1787FDE6CF27
:1008200020E030E0A901C701B6010E94BF1787FF91
:1008300011C0E091D901F091DA010190F081E02D31
:100840006DE289ED91E009954C01F7FAF094F7F823
:10085000F09402C0812C912CA12C60E070E080E02B
:100860009FE3AB1440F420E030E040E251E40E940A
:10087000C417A394F6CF9B01AC01C701B6010E9437
:1008800053172B013C010E9436186B017C010E941A
:100890006B189B01AC01C301B2010E9452172B01DE
:1008A0003C014AE0C701B6010E9478037C01E80CD4
:1008B000F91CBB2069F0E091D901F091DA010190B7
:1008C000F081E02D6EE289ED91E00995E80EF91EC8
:1008D000DB2CDD2021F120E030E040E251E4C301D7
:1008E000B2010E9470192B013C010E9436184B0185
:1008F000A12CB12C4AE0C501B4010E947803E80E96
:10090000F91EC501B4010E946B189B01AC01C30123
:10091000B2010E9452172B013C01DA94DACFC701D1
:10092000FF90EF90DF90CF90BF90AF909F908F900F
:100930007F906F905F904F9008950C9455010F93A6
:100940001F93CF93DF93EC0160E070E0CB01E9915E
:1009500020ED2E0F2A30C0F4AAE0B0E09B01AC01DC
:100960000E94B31B0E2FEE0F110B220B330BDC0179
:10097000CB01800F911FA21FB31FBC01CD0160539B
:10098000710981099109E3CFDF91CF911F910F91F7
:1009900008950F931F93CF93C1E08091F7028D329A
:1009A00021F0C0E007EF12E002C008EF12E0C8013A
:1009B0000E949F049B01AC01A4E6B0E00E94B31B1F
:1009C000F801DF01219130ED320F3A30D0F32E32B1
:1009D00069F511962C91119730ED320F3A3030F5C0
:1009E000022E000C330B205331094AE0429F800154
:1009F000439F100D1124012E000C220B330B600FAE
:100A0000711F821F931F12960C9120ED200F2A3028
:100A100068F4002E000C110B00531109012E000C7C
:100A2000220B330B600F711F821F931FCC2339F0F1
:100A300090958095709561957F4F8F4F9F4FCF9187
:100A40001F910F9108954F925F926F927F928F92B4
:100A50009F92AF92BF92CF92DF92EF92FF92CF938D
:100A6000DF9387EF92E00E949F042B013C0124E674
:100A700030E040E050E00E948B1B9B01AC0160EA3B
:100A800076E881E090E00E94671B6B017C01E7EF54
:100A9000F2E0819190ED980F9A30D8F38E3219F5EB
:100AA000EF0180E1882E87E2982EA12CB12CA9912C
:100AB00080ED8A0F8A30B8F40A2E000CBB0BD09759
:100AC000A50194010E94BE1BC60ED71EE81EF91E8A
:100AD000C501B4012AE030E040E050E00E948B1BE9
:100AE00049015A01E4CFC701B6016D5F7F4F8F4FB7
:100AF0009F4F26E030E040E050E00E948B1B6901F0
:100B00007A01C301B20124E630E040E050E00E94E7
:100B10008B1B60E472E48FE090E00E94671B6C0D19
:100B20007D1D8E1D9F1DDF91CF91FF90EF90DF9077
:100B3000CF90BF90AF909F908F907F906F905F907D
:100B40004F90089586E20E94F001682F6D7F86E243
:100B50000E94CE0186E20E94F001682F626086E268
:100B60000C94CE018F929F92AF92BF92CF92DF9260
:100B7000EF92FF928AEF0E94A502E5E1F3E045853E
:100B800056854A01A12CB12CC72ED82EE92EFF2460
:100B9000E7FCFA94C818D908EA08FB08DC01CB0185
:100BA00037E0B595A795979587953A95D1F7B50113
:100BB000A401440F551F661F771F4C015D01841A65
:100BC000950AA60AB70AA5019401A785B0890E94D3
:100BD000BE1B4B015C013BE0B594A79497948794AE
:100BE0003A95D1F7A7019601C701B6010E94671B8C
:100BF0009B01AC016CE055954795379527956A9513
:100C0000D1F7A189B2890E94BE1BDC01CB017EE035
:100C1000B595A795979587957A95D1F7A5019401F4
:100C2000280F391F4A1F5B1F258336834783508750
:100C3000A5E0B0E00E94B31BDC01CB0180589F4FC0
:100C4000AF4FBF4F692F7A2F8B2F992787FD9A952A
:100C50000E946D1820E030E048EC52E40E94C41776
:100C6000FF90EF90DF90CF90BF90AF909F908F90CC
:100C700008952F923F924F925F926F927F928F9240
:100C80009F92AF92BF92CF92DF92EF92FF920F931B
:100C90001F93CF93DF93CDB7DEB7A2970FB6F8942B
:100CA000DEBF0FBECDBF0E94B20587EF0E94A50236
:100CB0006A8F7B8F8C8F9D8F80911A0390911B037D
:100CC000A0911C03B0911D036C017D01FF0CCC08A9
:100CD000DC2C76019C01AD016C2D7C2D8C2D9C2D86
:100CE000345F4140510961097109810991092AA3C1
:100CF00039A349835A836B837C838D839E835901F7
:100D00006A017B018C010E94C61B2A8B3B8B4C8B9A
:100D10005D8B6E8B7F8B888F998F809132038E8F46
:100D2000E0913303EF83F0913003FF8F8091310323
:100D30008887E0912E03E8A3F0912F03F987B09004
:100D40002B03A0902A031B2D110F110BC12ED12EA6
:100D5000E12EF12E012F2AA139A149815A816B81FF
:100D60007C818D819E810E94C61B0CE00E94F61C36
:100D700019012A013B014C01B0902D03A0902C03D6
:100D80001B2D110F110BC12ED12EE12EF12E012F93
:100D90002A893B894C895D896E897F89888D998DE7
:100DA0000E94C61B08E00E940F1D510162017301E1
:100DB00084010E942D1D70588F4F9F4F2090280353
:100DC000309029035101C12CD12CE12CF12C00E0F1
:100DD00010E00E94C61B01E20E940F1D2A873B877C
:100DE0004C875D876E877F87888B998BA0E00E94F8
:100DF0003F1D09F45EC1AE8C1F81110F110BBF8026
:100E0000C12ED12EE12EF12E012F2A893B894C894A
:100E10005D896E897F89888D998D0E94C61B190115
:100E20002A013B014C01AF8C1885110F110BB884BE
:100E3000C12ED12EE12EF12E012F2AA139A14981F7
:100E40005A816B817C818D819E810E94C61B01E14C
:100E50000E94F61C59016A017B018C019101A201DB
:100E6000B301C4010E942D1D19012A013B014C014F
:100E70004A8D5B8D6C8D7D8D84E07595679557955A
:100E800047958A95D1F780E090E0A0E1B0E0841B1F
:100E9000950BA60BB70B6C017D01FF0CCC08DC2C6D
:100EA00076019C01AD016C2D7C2D8C2D9C2D0FE1CC
:100EB0000E94F61CF901B42FA52F6C837D838983D2
:100EC0009A8328A19985990F990B3985492F592F14
:100ED000692F792F892F03E20E94F61C59016A01BC
:100EE0007B018C019101A201B301C4010E942D1D5F
:100EF00059016A017B018C019F014B2F5A2F6C8194
:100F00007D8189819A810E94361D4901542E652E6A
:100F1000B62FA72FF82FE92F03E00E94F61C5401EB
:100F2000C52CD62CEB2EFA2E0F2F1E2F0E94361D0D
:100F300059016A017B01782E192F03E00E94F61CEB
:100F4000072D0E94361D03E00E94F61C5401C52C9B
:100F5000D62CEB2EFA2E0F2F1E2F0E94361D02E0EC
:100F60000E94F61C0F2F0E94361D01E00E94F61C05
:100F70000F2F0E94361DAA84BB84CC84DD84EE84AE
:100F8000FF84088919890E94211C28873F8349838F
:100F90005A836B837C838D839E830DE00E940F1D9B
:100FA000922E832E742E652E562E472E382E292EE5
:100FB0003091390320913803932F990F990BA92C65
:100FC000B82CC72CD62CE52CF42C032D122D492F30
:100FD000592F692F792F892F0E94C61B0E94C61B8B
:100FE00009E10E940F1D59016A017B018C012885CE
:100FF0003F8149815A816B817C818D819E810E94D4
:101000002D1D19012A013B014C013091370320911C
:101010003603932F990F990BA884BF80C980DA807B
:10102000EB80FC800D811E81492F592F692F792F6C
:10103000892F0E94C61B03E10E940F1D59016A01FE
:101040007B018C019101A201B301C4010E942D1DFD
:1010500008E00E940F1D522E632E742E852E962EB0
:10106000F72FE82FB92F3091350320913403932FB8
:10107000990F990B492F592F692F792F892F04E048
:101080000E94F61C59016A017B018C01252D362D29
:10109000472D582D692D7F2F8E2F9B2F0E942D1DA0
:1010A0000E94651820E030E040E85BE30E94701980
:1010B00003C060E070E0CB01A2960FB6F894DEBFEB
:1010C0000FBECDBFDF91CF911F910F91FF90EF9099
:1010D000DF90CF90BF90AF909F908F907F906F9058
:1010E0005F904F903F902F900895CF92DF92EF92B4
:1010F000FF920F931F93CF93DF936C017A018B01C3
:10110000C0E0D0E0CE15DF0589F0D8016D918D01EA
:10111000D601ED91FC910190F081E02DC601099579
:10112000892B11F47E0102C02196ECCFC701DF911B
:10113000CF911F910F91FF90EF90DF90CF90089586
:10114000FC01918D828D981761F0828DDF01A80FCF
:10115000B11D5D968C91928D9F5F9F73928F90E0F1
:1011600008958FEF9FEF0895FC01918D828D981760
:1011700031F0828DE80FF11D858D90E008958FEF9D
:101180009FEF0895FC01918D228D892F90E0805C66
:101190009F4F821B91098F739927089589ED91E0E4
:1011A0000E94C20821E0892B09F420E0822F0895D3
:1011B000FC01848DDF01A80FB11DA35ABF4F2C91F4
:1011C000848D90E001968F739927848FA689B789C3
:1011D0002C93A089B1898C9180648C93938D848D9C
:1011E000981306C00288F389E02D80818F7D80836B
:1011F0000895EF92FF920F931F93CF93DF93EC012B
:1012000081E0888F9B8D8C8D981305C0E889F989C2
:10121000808185FD24C0F62E0B8D10E00F5F1F4FDF
:101220000F731127E02E8C8DE8120CC00FB607FC4F
:10123000FACFE889F989808185FFF5CFCE010E9438
:10124000D808F1CF8B8DFE01E80FF11DE35AFF4F57
:10125000F0820B8FEA89FB898081806207C0EE896A
:10126000FF896083E889F98980818064808381E0D7
:1012700090E0DF91CF911F910F91FF90EF90089533
:10128000CF93DF93EC01888D8823C9F0EA89FB892D
:10129000808185FD05C0A889B9898C9186FD0FC024
:1012A0000FB607FCF5CF808185FFF2CFA889B989F9
:1012B0008C9185FFEDCFCE010E94D808E7CFDF915A
:1012C000CF91089580E090E0892B29F00E94CE080C
:1012D00081110C94000008953FB7F8948091D003D9
:1012E0009091D103A091D203B091D30326B5A89BCE
:1012F00005C02F3F19F00196A11DB11D3FBFBA2FA8
:10130000A92F982F8827820F911DA11DB11DBC0107
:10131000CD0142E0660F771F881F991F4A95D1F7CC
:10132000089520916A0130916B012817390771F4F3
:101330009091680180916901981741F0E0916801EE
:10134000F0E0E557FC4F808190E008958FEF9FEF2C
:10135000089508951F93CF93DF93DC015C962D9140
:101360003C915D972115310539F481E090E01396A9
:101370009C938E9312973DC05196ED91FC9152979C
:1013800050969C915097892F80951FB75E964C91EF
:101390005E9741FB772770F941FD6095F894408195
:1013A000772311F0492B01C048234083E90121979D
:1013B000F1F748E0508160FF02C0592B01C058236B
:1013C0005083E9012197F1F76695415099F777230A
:1013D00021F090818923808303C08081982B9083A2
:1013E0001FBF5C968D919C915D970197F1F721E06D
:1013F00030E0C901DF91CF911F91089520916A01DA
:1014000030916B012817390771F48091690120919F
:10141000680190E0805C9F4F821B910960E470E05E
:101420000E94771B089580E090E0089520916A0162
:1014300030916B0128173907B9F4909168018091B8
:101440006901981789F0E0916801F0E0E557FC4FD9
:1014500080812091680130E02F5F3F4F2F73332749
:101460002093680190E008958FEF9FEF089585ED38
:101470008093BC008091BC0084FDFCCF1092B5012C
:10148000089540916603262F30E0240F311D21324C
:101490003105DCF42091B5012430C9F4FC0180E071
:1014A00090E0861758F4309166032191DC01AC5B23
:1014B000BC4FA30FB11D2C930196F3CF809166030F
:1014C000680F6093660380E0089581E0089582E0EC
:1014D00008950895E0916E0180916D01E81730F450
:1014E000F0E0E159FE4F808190E008958FEF9FEF8B
:1014F000089590916E0180916D01981750F4E92F35
:10150000F0E0E159FE4F208130E09F5F90936E0143
:1015100002C02FEF3FEFC901089580916D0190E067
:1015200020916E01821B91090895CF92DF92EF9274
:10153000FF920F931F93CF93DF937C01262F972F5A
:101540008A018091B601882391F0C62FD72F6E01B2
:10155000C40ED51ECC15DD0571F06991D701ED9152
:10156000FC910190F081E02DC7010995F3CF642F24
:10157000822F0E94410AC801DF91CF911F910F91E4
:10158000FF90EF90DF90CF900895CF93DF931F925D
:10159000CDB7DEB769832091B6012223D1F0209127
:1015A000D801203240F021E030E0FC013383228377
:1015B00080E090E015C08091B701E82FF0E0E8549A
:1015C000FE4F998190838F5F8093B7018093D801FC
:1015D00005C061E0CE0101960E94410A81E090E0E1
:1015E0000F90DF91CF9108950E946E1D1F920F9270
:1015F0000FB60F9211242F933F934F935F936F93E6
:101600007F938F939F93AF93BF93EF93FF9389ED56
:1016100091E00E94D808FF91EF91BF91AF919F9107
:101620008F917F916F915F914F913F912F910F908B
:101630000FBE0F901F9018951F920F920FB60F922A
:1016400011242F938F939F93EF93FF93E091E901E0
:10165000F091EA018081E091EF01F091F00182FDCB
:1016600012C090818091F2018F5F8F732091F301FE
:10167000821751F0E091F201F0E0E752FE4F958FB2
:101680008093F20101C08081FF91EF919F918F9132
:101690002F910F900FBE0F901F901895833081F0FF
:1016A00028F4813099F08230A1F008958730A9F0B4
:1016B0008830B9F08430D1F4809180008F7D03C0F0
:1016C000809180008F7780938000089584B58F7714
:1016D00002C084B58F7D84BD08958091B0008F775E
:1016E00003C08091B0008F7D8093B00008951F9358
:1016F000CF93DF93282F30E0F901E658FE4F849115
:10170000F901EA54FE4FD491F901EE55FE4FC49110
:10171000CC23C9F0162F81110E944E0BEC2FF0E064
:10172000EE0FFF1FE257FE4FA591B4918FB7F894CB
:10173000111105C09C91ED2FE095E92302C0EC91B9
:10174000ED2BEC938FBFDF91CF911F910895CF9335
:10175000DF9390E0FC01EA54FE4F2491FC01EE552A
:10176000FE4F8491882361F190E0880F991FFC015E
:10177000E45CFE4FC591D491FC01E257FE4FA59168
:10178000B491611109C09FB7F89488812095822394
:101790008883EC912E230BC0623061F49FB7F894DC
:1017A0003881822F809583238883EC912E2B2C9374
:1017B0009FBF06C08FB7F894E8812E2B28838FBF78
:1017C000DF91CF9108958F929F92AF92BF92CF9267
:1017D000DF92EF92FF926B017C010E946C094B013A
:1017E0005C01C114D104E104F104F1F00E946C0920
:1017F000DC01CB0188199909AA09BB09883E9340ED
:10180000A105B10570F321E0C21AD108E108F10881
:1018100088EE880E83E0981EA11CB11CC114D1046F
:10182000E104F10419F7DDCFFF90EF90DF90CF9046
:10183000BF90AF909F908F9008952FB7F8946091CC
:10184000CC037091CD038091CE039091CF032FBF35
:1018500008951F920F920FB60F9211242F933F936A
:101860008F939F93AF93BF938091CC039091CD03BF
:10187000A091CE03B091CF033091CB0323E0230F8F
:101880002D3720F40196A11DB11D05C026E8230FB8
:101890000296A11DB11D2093CB038093CC0390939E
:1018A000CD03A093CE03B093CF038091D00390914A
:1018B000D103A091D203B091D3030196A11DB11D14
:1018C0008093D0039093D103A093D203B093D3031A
:1018D000BF91AF919F918F913F912F910F900FBE2C
:1018E0000F901F9018951F920F920FB60F92112410
:1018F0002F933F934F935F936F937F938F939F9318
:10190000AF93BF93EF93FF93E0916A01F0916B0166
:10191000309709F451C0968DA685B785858591FFCE
:1019200004C09C91892329F447C09C91892309F024
:1019300043C0A389B4899C918589809589238C9320
:10194000868997890197F1F7608D718DA685B78596
:10195000558538E020E0CB010197F1F7822F90E028
:1019600095958795282F4C91452309F02068315093
:1019700091F7868D81FD20958091690190E0019617
:101980008F73992730916801381749F0A091690148
:10199000B0E0A557BC4F2C938093690103C0868D9E
:1019A0008160868F828D938D0197F1F7A389B48929
:1019B0009C918589892B8C93FF91EF91BF91AF9179
:1019C0009F918F917F916F915F914F913F912F9157
:1019D0000F900FBE0F901F901895E0916A01F09143
:1019E0006B01E817F90769F4A389B4899C9185898B
:1019F000809589238C9310926B0110926A0181E08B
:101A0000089580E0089508958CBD9DBD08951F92AE
:101A10000F920FB60F9211242F933F934F935F9322
:101A20006F937F938F939F93AF93BF93EF93FF93A6
:101A30008091B900887F803609F49CC068F58832AF
:101A400009F45BC090F4803109F454C038F4882361
:101A500009F4F6C0883009F44DC0F6C0883109F4A5
:101A60004CC0803209F45DC0EFC0803409F468C016
:101A700048F4803309F455C0883309F0E5C08093F9
:101A8000B301D8C0803509F44FC0883509F45DC072
:101A9000883409F0D9C0D6C0883909F4C7C0A8F481
:101AA000883709F467C038F4883609F463C0803792
:101AB00009F460C0C9C0883809F4B8C0803909F495
:101AC0005FC0803809F0C0C05BC0803B09F486C0AD
:101AD00038F4803A09F466C0883A09F47FC0B4C08B
:101AE000803C09F4A7C0883C09F4A4C0883B09F4F1
:101AF0008AC0AAC08091900110C09091B2018091DB
:101B0000B101981770F5E091B20181E08E0F8093DA
:101B1000B201F0E0EF56FE4F80818093BB0085EC70
:101B200086C08093B3018EC0E091B20181E08E0F38
:101B30008093B2018091BB00F0E0EF56FE4F8083AE
:101B40009091B2018091B1016EC0E091B20181E04B
:101B50008E0F8093B2018091BB00F0E0EF56FE4FF4
:101B600080838091B40181116DC081E080938F01E9
:101B700084EA61C083E08093B50110928A03CFCFDD
:101B800080918A03803208F051C0E0918A0381E09D
:101B90008E0F80938A038091BB00F0E0E659FC4FE2
:101BA0008083BDCF85EC8093BC001092B5018091FD
:101BB0008A03803230F4E0918A03F0E0E659FC4F6A
:101BC000108260918A0370E0E0916803F0916903EC
:101BD0008AE693E0099510928A0336C084E08093E8
:101BE000B5011092670310926603E0916403F091CF
:101BF0006503099580916603811105C081E080939A
:101C0000660310924403E091670381E08E0F809396
:101C10006703F0E0EC5BFC4F80818093BB00909108
:101C2000670380916603981708F479CF85E880935D
:101C3000BC000AC085EC8093BC001092B50104C0C2
:101C40001092B3010E94370AFF91EF91BF91AF91BB
:101C50009F918F917F916F915F914F913F912F91C4
:101C60000F900FBE0F901F901895CF93DF9300D069
:101C70001F92CDB7DEB7789484B5826084BD84B5F9
:101C8000816084BD85B5826085BD85B5816085BD77
:101C900080916E00816080936E001092810080912F
:101CA00081008260809381008091810081608093B7
:101CB0008100809180008160809380008091B100DC
:101CC00084608093B1008091B00081608093B00007
:101CD00080917A00846080937A0080917A0082609B
:101CE00080937A0080917A00816080937A0080915D
:101CF0007A00806880937A001092C1000E940E02E0
:101D0000E091E901F091EA0182E08083E091E50150
:101D1000F091E6011082E091E701F091E80180E1A5
:101D200080831092F101E091ED01F091EE0186E0E7
:101D30008083E091EB01F091EC01808180618083F0
:101D4000E091EB01F091EC01808188608083E0916B
:101D5000EB01F091EC01808180688083E091EB01E0
:101D6000F091EC0180818F7D808387E7809315035C
:101D700080911E038F3F19F40E940E024EC061E055
:101D80000E94770B61E080911E030E94A70B809157
:101D900021038F3F09F034C0FFB6F89480916C01A5
:101DA000811127C0ECEAF1E08491E0ECF1E094913C
:101DB000E82FF0E0EE0FFF1FE45CFE4FA591B49119
:101DC000EC91E92321F461E08AE00E94770B61E065
:101DD0008AE00E94A70B8CB580618CBD8CB58064B5
:101DE0008CBD61E08DE00E94A70B61E08BE00E945A
:101DF000A70B80916C018F5F80936C01FFBE0DC0BB
:101E000061E00E94A70B61E080911F030E94A70B75
:101E100060E0809120030E94A70B80911E038F3FFA
:101E2000B1F4809115030E94C40160ED86E792E051
:101E30000E94C50A0E94A20261E0809115030E94DF
:101E4000980286E792E00E94790AF82E1FC08091DE
:101E500021038F3F21F482E591E00E94040D60E0B0
:101E600080911E030E94770B80ED0E94380280E073
:101E70000E943802F82E61E080911E030E94770BC9
:101E8000809121038F3F11F40E94030D28E5F21287
:101E900088C088E80E942303909323038093220341
:101EA0008AE80E94230390932503809324038CE8FF
:101EB0000E94230390932703809326038EE80E94B9
:101EC0002303909329038093280380E90E9423032E
:101ED00090932B0380932A0382E90E94230390931B
:101EE0002D0380932C0384E90E94230390932F03F6
:101EF00080932E0386E90E942303909331038093FD
:101F0000300388E90E9423039093330380933203C4
:101F10008AE90E94230390933503809334038CE96C
:101F20000E94230390933703809336038EE90E9427
:101F30002303909339038093380380911E038F3FCE
:101F400089F4809115030E94C40164EF86E792E052
:101F50000E94C50A6FE386E792E00E94C50A0E94CC
:101F6000A20238C0809121038F3F21F482E591E0E5
:101F70000E94040D60E080911E030E94770B84E7AD
:101F80000E9438028FE30E94380261E080911E03B4
:101F90000E94770B809121038F3FE1F40E94030D93
:101FA00019C006E411E0F8016491611103C00E94B8
:101FB00034020FC0E091D901F091DA010190F08173
:101FC000E02D89ED91E009950F5F1F4F892B59F79F
:101FD000EECFFFCF0E940E0286E20E94F001682F32
:101FE000606886E20E94CE0186E20E94F001682FBE
:101FF000686386E20E94CE0167E083E10E94CE0121
:1020000010929D0210929C0210929B0210929A02D2
:1020100010929902109298028EE393E090939F029F
:1020200080939E0290918E02963108F057C02DE861
:1020300031E030939902209398022CE333E03093FF
:102040009B0220939A0224E632E030939D02209373
:102050009C0220916800983050F031E09E3008F4E6
:1020600030E081E001C0880F3A95EAF701C084E0D2
:10207000822B80936800983038F09E3040F0963183
:1020800048F020E030E008C02DE630E005C02BE647
:1020900030E002C02CE630E03093960220939502A7
:1020A000983030F481E001C0880F9A95EAF70EC0AD
:1020B000292F30E09E3018F42850310902C02E50EC
:1020C000310981E001C0880F2A95EAF780939702D1
:1020D00080919E0290919F020197F1F780919C025E
:1020E00090919D02892B21F180916A0190916B0161
:1020F000F2E082389F07E1F0009711F00E94ED0CAA
:102100008091A0028E7F8093A002109269011092AC
:10211000680182E892E090936B0180936A01E091FC
:102120009502F0919602908180919702892B80838D
:102130000E941D0C4B015C0180E391E00E949D0414
:102140000E94390620E030E048EC52E40E94C417B7
:1021500020E030EC4DE754E40E94C41721E03EED4E
:1021600042E45EE30E94DD199B01AC0160E070E097
:1021700080E89FE30E94521720E03AE24DE257E4E4
:102180000E94701942E050E00E94B90383E491E09C
:102190000E949D040E94A205A9E5EA2EA2E0FA2E63
:1021A00080E00E94F00181FD10C021E0E21AF108F8
:1021B00029F460E070EC89E794EC4CC061E070E0D9
:1021C00080E090E00E94E30BEBCF80E60E94C40128
:1021D00061E086E792E00E94C50A80E00E94670104
:1021E00083E090E00E94E401833019F786E792E0F3
:1021F0000E94790A682E86E792E00E94790A782E7A
:1022000086E792E00E94790A7C01162D00E0B80171
:102210006729072E000C880B990B0E946D182B0163
:102220003C01FF24B701F4E075956795FA95E1F755
:10223000072E000C880B990B0E946D1820E030E0EF
:1022400040E85DE30E9470199B01AC01C301B2013B
:102250000E94531742E050E00E94B90383E491E0EA
:102260000E949D040E941D0C0E946B1820E030E02B
:102270004AE754E40E94C41742E050E00E94B903C8
:102280000E94340287E391E00E949D040E94390677
:1022900042E050E00E94B90383E491E00E949D0473
:1022A00080E00E94F00180E00E94F00180E60E9440
:1022B000C40161E086E792E00E94C50A80E00E94C6
:1022C000670183E090E00E94E401833009F043C09D
:1022D00086E792E00E94790AE82E86E792E00E9463
:1022E000790AF82E86E792E00E94790A8B830E9491
:1022F000A2058F2D90E0A0E0B0E0BA2FA92F982F73
:102300008827AE292B81822B2073E22EF12C54E0FA
:10231000F594E7945A95E1F7BC01CD01E6E0959577
:10232000879577956795EA95D1F70E946D182B01EF
:102330003C01B70180E090E00E946B1820E030E0A3
:1023400040E85EE30E9470199B01AC01C301B20139
:102350000E94531704C060E070EC89E794EC42E0FF
:1023600050E00E94B90383E491E00E949D040E9422
:102370001D0C0E946B1820E030E04AE754E40E94F4
:10238000C41742E050E00E94B9030E9434028EE379
:1023900091E00E949D040E94B20542E050E00E943C
:1023A000B90383E491E00E949D0480E00E94F00163
:1023B00039E5E32E32E0F32E80E00E94F00181FD4A
:1023C00010C031E0E31AF10829F460E070EC89E70D
:1023D00094EC61C061E070E080E090E00E94E30B6B
:1023E000EBCF80E60E94C40164E086E792E00E94A1
:1023F000C50A80E00E94670182E090E00E94E4014B
:10240000823019F786E792E00E94790AF82E86E773
:1024100092E00E94790AE82E0E94A205F7FC03C010
:102420006F2DF12C0FC0FA82198289819A818E0D4D
:10243000911D919581959109692F482F407FE42E38
:10244000FF24F39470E080E090E00E946D182B016F
:102450003C016E2D70E024E0759567952A95E1F7B3
:10246000072E000C880B990B0E946D1820E030E0BD
:1024700040E85DE30E9470199B01AC01C301B20109
:102480000E945317FF2039F09B01AC0160E070E01F
:10249000CB010E94521742E050E02B013C01C301E6
:1024A000B2010E94B90383E491E00E949D040E945E
:1024B0001D0C0E946B1820E030E04AE754E40E94B3
:1024C000C41742E050E00E94B9030E943402E12C9C
:1024D00082E892E00E94FE09892B09F494C282E806
:1024E00092E00E94160AF82E80910A0390910B0345
:1024F000A0910C03B0910D030196A11DB11D809315
:102500000A0390930B03A0930C03B0930D0354E2C2
:10251000F51609F456C2E09108035F153CF08AE015
:10252000F81679F0FDE0FF125AC20BC02AE2F2164B
:1025300041F03CE2F31253C28091F5028F25809363
:10254000F502EF3008F029C2F0E0E950FD4F1082AB
:102550008091F602882309F428C12091F7023FEB0D
:10256000320F822F022E000C990B363010F4C797D1
:1025700007C02156263018F48755910901C0C0972D
:10258000282F2295207F3091F8024FEB430F832FA5
:10259000032E000C990B463010F4C79707C0315634
:1025A000363018F48755910901C0C097820F909179
:1025B000F5028913F0C080910903882309F4EDC165
:1025C00080910E0390910F03019690930F038093D7
:1025D0000E038091E9029091EA02A091EB02B09182
:1025E000EC028093E5029093E602A093E702B09399
:1025F000E8028091F1029091F202A091F302B09171
:10260000F4028093ED029093EE02A093EF02B09358
:10261000F00280910603882309F464C0813009F038
:10262000B7C18091A5029091A602A091A702B09196
:10263000A8028093A1029093A202A093A302B09358
:10264000A4028091AD029091AE02A091AF02B09130
:10265000B0028093A9029093AA02A093AB02B09318
:10266000AC028091B5029091B602A091B702B091F0
:10267000B8028093B1029093B202A093B302B093D8
:10268000B4028091BD029091BE02A091BF02B091B0
:10269000C0028093B9029093BA02A093BB02B09398
:1026A000BC028091CD029091CE02A091CF02B09158
:1026B000D0028093C9029093CA02A093CB02B09338
:1026C000CC028091D5029091D602A091D702B09110
:1026D000D8028093D1029093D202A093D302B093F8
:1026E000D40256C18091C5029091C602A091C70242
:1026F000B091C8028093C1029093C202A093C3021A
:10270000B093C4028091A5029091A602A091A70265
:10271000B091A8028093A1029093A202A093A30279
:10272000B093A4028091B5029091B602A091B70235
:10273000B091B8028093B1029093B202A093B30219
:10274000B093B4028091BD029091BE02A091BF02ED
:10275000B091C0028093B9029093BA02A093BB02D9
:10276000B093BC028091E3029091E4029093E20264
:102770008093E1028091DD029091DE02A091DF0260
:10278000B091E0028093D9029093DA02A093DB0229
:10279000B093DC02FDC0809110039091110301966B
:1027A0009093110380931003F8C090910703911147
:1027B0001DC0A7EFB2E045E451E0CD01FC0121913D
:1027C000CF01222309F4E6C0FA013191AF012317AA
:1027D000A9F3E2E5F1E08D91882309F4DBC1919141
:1027E0008917C9F342E040930603D7C0E09106037E
:1027F000E23009F4D2C08091F702882309F4CDC0F9
:1028000020E2E29FF0011124E92B3197E932F10532
:1028100008F0C3C0EC5CFF4F0C94AD1B0E94C904D0
:102820006093A5027093A6028093A7029093A802DA
:102830000E941D0C6093E9027093EA028093EB0200
:102840009093EC02AAC091E0813409F07DC07DC074
:102850000E9423056093B5027093B6028093B7027D
:102860009093B8020E941D0C6093F1027093F202E3
:102870008093F3029093F40290C0833509F08DC0E9
:102880008091B5029091B602A091B702B091B802C2
:10289000B095A095909581959F4FAF4FBF4F809376
:1028A000B5029093B602A093B702B093B80275C078
:1028B0000E9423056093BD027093BE028093BF0205
:1028C0009093C0026AC0873509F067C08091BD024D
:1028D0009091BE02A091BF02B091C002B095A095A8
:1028E000909581959F4FAF4FBF4F8093BD029093BE
:1028F000BE02A093BF02B093C0024FC00E94C904A1
:102900006093CD027093CE028093CF029093D00259
:1029100044C00E94C9046093D5027093D60280938C
:10292000D7029093D80239C087EF92E00E949F04AB
:102930006093AD027093AE028093AF029093B002A9
:102940002CC091E081330CF490E09093090325C0F2
:1029500087EF92E00E942C1799279093E4028093CE
:10296000E3021BC00E94C9046093DD027093DE0283
:102970008093DF029093E00210C00E94C90460932C
:10298000C5027093C6028093C7029093C80205C027
:1029900091E004C031E03093060390E0809107039A
:1029A0008F5F809307031092080381E03AE2F312ED
:1029B00080E08093F602992309F48ACDEE24E39413
:1029C00087CD10920803109207031092F50242E09F
:1029D000409306031092F6021092090379CDEE306F
:1029E00040F481E08E0F80930803F0E0E950FD4F42
:1029F000F0828091F60281116BCD8091F5028F25D6
:102A00008093F50265CDEE2009F4AFC0C090B1020D
:102A1000D090B202E090B302F090B4024090B902BC
:102A20005090BA026090BB027090BC028091ED029F
:102A30009091EE02A091EF02B091F0028F3F9F4F74
:102A4000AF4FBF4F11F00E941D0C5FEFC51659EC40
:102A5000D5065AE9E5065BE3F50609F49EC0C70111
:102A6000B6010E946D1820E034E244E759E40E9468
:102A7000C4171B017C01C301B2010E946D1820E044
:102A800034E244E759E40E94C4172B013C018BE473
:102A900091E00E949D0420E030E04AE754E4B10157
:102AA000C7010E94BF17882309F481C03E2D2F2D36
:102AB00046E050E0B101832F922F0E94B90383E4D6
:102AC00091E00E949D0420E030E04AE754E4B20126
:102AD000C3010E94BF17811104C0412C512C612CED
:102AE000712C46E050E0B201C3010E94B90383E4B7
:102AF00091E00E949D046091E1027091E2026F3FBB
:102B0000710511F460E070E080E090E04AE00E941E
:102B1000780383E491E00E949D046091D902709152
:102B2000DA028091DB029091DC026F3FEFEF7E07CB
:102B30008E079E0719F460E070E0CB014AE00E9426
:102B4000780383E491E00E949D040E941D0C0E9482
:102B50006B1820E030E04AE754E40E94C41742E0DA
:102B600050E00E94B9030E9434020E941D0CF4EF51
:102B70008F0EF1E09F1EA11CB11CA5019401261B24
:102B8000370B480B590BCA01B9010E94E30B0E9495
:102B90006209CECA1092060300CF412C512C8AE75D
:102BA000682E94E4792E8BE491E00E949D04212C00
:102BB000312C30E020E07CCF0F931F931092DC018A
:102BC0001092DB0108EE13E020E030E00093DD011D
:102BD0001093DE012093DF013093E00184E091E067
:102BE0009093DA018093D90185EC90E09093E6010F
:102BF0008093E50184EC90E09093E8018093E701F5
:102C000080EC90E09093EA018093E90181EC90E000
:102C10009093EC018093EB0182EC90E09093EE01B5
:102C20008093ED0186EC90E09093F0018093EF01AA
:102C30001092F2011092F3011092F4011092F5013A
:102C4000109279021092780200937A0210937B021C
:102C500020937C0230937D0284E191E0909377028F
:102C6000809376028FEF80931E0380931F038093DF
:102C70002003809321034FEF5FEFBA014093A1023D
:102C80005093A2026093A3027093A4021092A9022F
:102C90001092AA021092AB021092AC028FEF99EC44
:102CA000AAE9BBE38093B1029093B202A093B3026E
:102CB000B093B4028093B9029093BA02A093BB027E
:102CC000B093BC028093C1029093C202A093C3024E
:102CD000B093C4028093C9029093CA02A093CB021E
:102CE000B093CC028093D1029093D202A093D302EE
:102CF000B093D4024093D9025093DA026093DB027E
:102D00007093DC028FEF90E09093E2028093E102F7
:102D10004093E5025093E6026093E7027093E80265
:102D20004093ED025093EE026093EF027093F00235
:102D30001092F5021092F60282E080930603109240
:102D40000703109208031092090310920A031092CD
:102D50000B0310920C0310920D0310920F031092AC
:102D60000E0310921103109210031092F7021092AA
:102D700085021092840200938602109387022093AA
:102D800088023093890284E291E0909383028093D9
:102D90008202109299021092980210929B02109255
:102DA0009A0210929D0210929C0210929F02109221
:102DB0009E026091A0026E7F6D7F6093A002669577
:102DC000617081E0682783E00E94770B61E083E017
:102DD0000E94A70BE9EBF1E0E491E0939202E5EAAF
:102DE000F1E0E491F0E0EE0FFF1FE257FE4F859116
:102DF0009491909394028093930260E082E00E9409
:102E0000A70B8091A00281FD04C061E082E00E94D6
:102E1000770B82E080938E02E8EBF1E0E491E0939F
:102E20008F02E4EAF1E0E491F0E0EE0FFF1FE856D4
:102E3000FE4F8591949190939102809390021F91FF
:102E40000F91089584E291E090938302809382022F
:102E500082E892E00C94ED0CFC0188279927E89415
:102E600021912032E9F3293010F02E30C8F32B32B3
:102E700041F02D3239F4689404C00E944A17820F41
:102E8000911D219120532A30C0F31EF49095819515
:102E90009F4F08957AE0979F902D879F802D910DE9
:102EA000112408955058BB27AA270E946A170C9432
:102EB00031190E94231938F00E942A1920F039F4A0
:102EC0009F3F19F426F40C9410190EF4E095E7FBDB
:102ED0000C940A19E92F0E94421958F3BA17620795
:102EE00073078407950720F079F4A6F50C9464190C
:102EF0000EF4E0950B2EBA2FA02D0B01B901900115
:102F00000C01CA01A0011124FF27591B99F0593F58
:102F100050F4503E68F11A16F040A22F232F342FA0
:102F20004427585FF3CF469537952795A795F040EE
:102F30005395C9F77EF41F16BA0B620B730B840B03
:102F4000BAF09150A1F0FF0FBB1F661F771F881FBB
:102F5000C2F70EC0BA0F621F731F841F48F4879513
:102F600077956795B795F7959E3F08F0B0CF939505
:102F7000880F08F09927EE0F9795879508950E947E
:102F8000E61808F481E008950E94D8170C943119CE
:102F90000E942A1958F00E94231940F029F45F3F3B
:102FA00029F00C940A1951110C9465190C941019FC
:102FB0000E94421968F39923B1F3552391F3951BAD
:102FC000550BBB27AA2762177307840738F09F5F4A
:102FD0005F4F220F331F441FAA1FA9F335D00E2EB7
:102FE0003AF0E0E832D091505040E695001CCAF724
:102FF0002BD0FE2F29D0660F771F881FBB1F2617E7
:1030000037074807AB07B0E809F0BB0B802DBF01BD
:10301000FF2793585F4F3AF09E3F510578F00C948C
:103020000A190C9465195F3FE4F3983ED4F3869532
:1030300077956795B795F7959F5FC9F7880F911DAD
:103040009695879597F90895E1E0660F771F881F99
:10305000BB1F621773078407BA0720F0621B730B4C
:10306000840BBA0BEE1F88F7E09508950E944A1969
:1030700088F09F5798F0B92F9927B751B0F0E1F039
:10308000660F771F881F991F1AF0BA95C9F714C0E9
:10309000B13091F00E946419B1E008950C94641964
:1030A000672F782F8827B85F39F0B93FCCF3869522
:1030B00077956795B395D9F73EF49095809570957F
:1030C00061957F4F8F4F9F4F089597FB16F40E9495
:1030D00013190C94A918E89409C097FB3EF4909535
:1030E0008095709561957F4F8F4F9F4F9923A9F0E1
:1030F000F92F96E9BB279395F69587957795679570
:10310000B795F111F8CFFAF4BB0F11F460FF1BC0B3
:103110006F5F7F4F8F4F9F4F16C0882311F096E946
:1031200011C0772321F09EE8872F762F05C06623F4
:1031300071F096E8862F70E060E02AF09A95660FAD
:10314000771F881FDAF7880F9695879597F9089566
:10315000E894F92F96EBFF2381F01216130614065C
:10316000440B9395F69587957795679557954040CD
:10317000FF23B9F71BC099270895882351F498506D
:10318000D2F7872B762F652F542F432F322F20E035
:10319000B1F3121613061406440B88233AF09A95DD
:1031A000440F551F661F771F881FCAF755234AF41F
:1031B000440F551F11F460FF04C06F5F7F4F8F4FA6
:1031C0009F4F880F9695879597F90895990F000856
:1031D000550FAA0BE0E8FEEF16161706E807F907E9
:1031E000C0F012161306E407F50798F0621B730B84
:1031F000840B950B39F40A2661F0232B242B252B05
:1032000021F408950A2609F4A140A6958FEF811DA7
:10321000811D089597F99F6780E870E060E0089548
:103220009FEF80EC089590958095709560955095EE
:103230004095309521953F4F4F4F5F4F6F4F7F4FD8
:103240008F4F9F4F089500240A94161617061806EC
:103250000906089500240A9412161306140605069A
:103260000895092E0394000C11F4882352F0BB0F2B
:1032700040F4BF2B11F460FF04C06F5F7F4F8F4F8E
:103280009F4F089557FD9058440F551F59F05F3FC9
:1032900071F04795880F97FB991F61F09F3F79F078
:1032A00087950895121613061406551FF2CF4695FA
:1032B000F1DF08C0161617061806991FF1CF86957C
:1032C0007105610508940895E894BB276627772760
:1032D000CB0197F908950E94E61808F48FEF08953E
:1032E0000E9483190C9431190E94231938F00E940E
:1032F0002A1920F0952311F00C940A190C94101936
:1033000011240C9465190E94421970F3959FC1F322
:10331000950F50E0551F629FF001729FBB27F00D83
:10332000B11D639FAA27F00DB11DAA1F649F6627D8
:10333000B00DA11D661F829F2227B00DA11D621F27
:10334000739FB00DA11D621F839FA00D611D221FE1
:10335000749F3327A00D611D231F849F600D211DC5
:10336000822F762F6A2F11249F5750409AF0F1F048
:1033700088234AF0EE0FFF1FBB1F661F771F881FB1
:1033800091505040A9F79E3F510580F00C940A19C6
:103390000C9465195F3FE4F3983ED4F386957795D6
:1033A0006795B795F795E7959F5FC1F7FE2B880F57
:1033B000911D9695879597F90895FA01EE0FFF1FD5
:1033C000309621053105A1F16115710561F4803850
:1033D000BFE39B0749F168949038810561F080381C
:1033E000BFEF9B0741F099234AF5FF3FE105310507
:1033F000210519F1E8940894E795D901AA2329F445
:10340000AB2FBE2FF85FD0F310C0FF5F70F4A6950E
:10341000E0F7F73950F019F0FF3A38F49F779F93AF
:103420000DD00F9007FC9058089546F00C94101999
:1034300060E070E080E89FE308954FE79F775F9337
:103440004F933F932F930E94DD1A2F913F914F91FD
:103450005F910E9470190C943A1A0E94E618880B2A
:10346000990B089529F416F00C940A190C94641918
:103470000C9410190E944A19A8F39638A0F707F87F
:103480000F92E8942BE33AEA48EB5FE70E94861933
:103490000F920F920F924DB75EB70F920E94251BAD
:1034A000EAEBF0E00E946C1A4F915F91EF91FF916F
:1034B000E595EE1FFF1F49F0FE57E0684427EE0F29
:1034C000441FFA95E1F74195550B0E949F1A0F9002
:1034D00007FE0C94931A0895DF93CF931F930F93D5
:1034E000FF92EF92DF927B018C01689406C0DA2E86
:1034F000EF010E948319FE01E894A5912591359171
:1035000045915591A6F3EF010E946A17FE019701BC
:10351000A801DA9469F7DF90EF90FF900F911F9167
:10352000CF91DF9108959B01AC0160E070E080E8ED
:103530009FE30C94C4170C940A190C94591B0E9415
:103540004A19D8F39923C9F3940F511DA3F391504D
:10355000504094F059F0882332F0660F771F881F8F
:1035600091505040C1F79E3F51052CF7880F911D97
:103570009695879597F908955F3FACF0983E9CF03B
:10358000BB27869577956795B79508F4B1609395B5
:10359000C1F7BB0F58F711F460FFE8CF6F5F7F4FA3
:1035A0008F4F9F4FE3CF0C94651916F00C94591B65
:1035B0000C94101968940C940A190E944A19A8F3E3
:1035C0009923C1F3AEF3DF93CF931F930F93FF9231
:1035D000C92FDD2788232AF02197660F771F881FC0
:1035E000DAF720E030E040E85FEB9FE3883920F035
:1035F000803E38F021968F770E945317E2EEF0E07C
:1036000004C00E945317EFE0F1E00E946C1A8B0196
:10361000BE01EC01FB2E6F5771097595771F880B62
:10362000990B0E946D1828E132E741E35FE30E94A5
:103630008319AF2D9801AE01FF900F911F91CF918B
:10364000DF910E946A170C943119FA01DC01AA0F6C
:10365000BB1F9B01AC01BF5728F422273327442707
:10366000507820C0B75190F4AB2F00244695379581
:103670002795011CA395D2F3002071F0220F331F70
:10368000441FB395DAF30ED00C94521761307105D4
:10369000A0E88A07B94630F49B01AC01662777277A
:1036A00088279078309621F020833183428353839A
:1036B00008959F3F31F0915020F487957795679555
:1036C000B795880F911D9695879597F90895DB0119
:1036D0008F939F930E94B31BBF91AF91A29F800DC8
:1036E000911DA39F900DB29F900D1124089597FBFB
:1036F000072E16F4009407D077FD09D00E944B1DC9
:1037000007FC05D03EF4909581959F4F08957095E4
:1037100061957F4F0895A1E21A2EAA1BBB1BFD01E4
:103720000DC0AA1FBB1FEE1FFF1FA217B307E407A0
:10373000F50720F0A21BB30BE40BF50B661F771FF8
:10374000881F991F1A9469F76095709580959095D8
:103750009B01AC01BD01CF010895EE0FFF1F059045
:10376000F491E02D09940E945F1DA59F900DB49FD8
:10377000900DA49F800D911D11240895B7FF0C9406
:10378000B31B0E94B31B821B930B0895DF93CF934F
:103790001F930F939A9DF02D219FF00D8B9DF00D9F
:1037A0008A9DE02DF10D039FF00D029FE00DF11DAC
:1037B0004E9DE00DF11D5E9DF00D4F9DF00D7F9330
:1037C0006F93BF92AF925F934F93D5010E945F1D9D
:1037D0008B01AC01D7010E945F1DEB01E80FF91FBF
:1037E000D6010E94161C2F913F91D6010E945F1DA9
:1037F000C60FD71FE81FF91FAF91BF910E94161C7B
:103800002F913F910E945F1DC60FD71FE81FF91F20
:10381000D6010E945F1DE60FF71F9801BE01CF0180
:1038200011240F911F91CF91DF9108950E945F1D88
:10383000460F571FC81FD91F08F431960895689482
:1038400001C0E894F92FF12B12F00C94531CA0E066
:10385000B0E0EDE2FCE10C94C51C092E059422F4C5
:103860000E94AF1C112392F4F0E80F26FFEFE094C2
:10387000F09400951095B094C094D094A194BF0A90
:10388000CF0ADF0AEF0AFF0A0F0B1F0B0E945E1C14
:1038900007FC0E94AF1CCDB7DEB7ECE00C94E11C36
:1038A000689401C0E8948F929F92CF93DF930E9417
:1038B0005E1CDF91CF919F908F900895882499246A
:1038C000F401E401B0E49F93AA279A158B049C04A9
:1038D000ED05FE05CF05D007A10798F4AD2FDC2F2D
:1038E000CF2FFE2FE92D982C892E982F872F762FFA
:1038F000652F542F432F322F2227B85031F7BF9115
:1039000027C01B2EBF91BB27220F331F441F551FFB
:10391000661F771F881F991F881C991CEE1FFF1FA9
:10392000CC1FDD1FAA1FBB1F8A149B04EC05FD05DD
:10393000CE05DF05A007B10748F08A189B08EC09FF
:10394000FD09CE09DF09A00BB10B21601A94E1F645
:103950002EF49401AF01BE01CD01000C08956095D5
:1039600070958095909530954095509521953F4F55
:103970004F4F5F4F6F4F7F4F8F4F9F4F08952F9245
:103980003F924F925F926F927F928F929F92AF92EF
:10399000BF92CF92DF92EF92FF920F931F93CF933C
:1039A000DF93CDB7DEB7CA1BDB0B0FB6F894DEBFD3
:1039B0000FBECDBF09942A88398848885F846E84F9
:1039C0007D848C849B84AA84B984C884DF80EE8043
:1039D000FD800C811B81AA81B981CE0FD11D0FB64C
:1039E000F894DEBF0FBECDBFED0108950F930830F0
:1039F00090F0982F872F762F652F542F432F322F3B
:103A000022270850F4CF220F331F441F551F661F73
:103A1000771F881F991F0A95B2F70F91089597FB9A
:103A200010F8169400080F93083098F00850232FD0
:103A3000342F452F562F672F782F892F902DF4CFB5
:103A400005949795879577956795579547953795F9
:103A500027950A95AAF70F9108952A0D3B1D4C1D35
:103A60005D1D6E1D7F1D801F911F08952A193B0942
:103A70004C095D096E097F09800B910B08950024A4
:103A8000A7FD00942A173005400550056005700514
:103A9000800590050895AA1BBB1B51E107C0AA1F12
:103AA000BB1FA617B70710F0A61BB70B881F991FDF
:103AB0005A95A9F780959095BC01CD010895A29FD4
:103AC000B001B39FC001A39F700D811D1124911DF2
:103AD000B29F700D811D1124911D089581E090E029
:103AE000F8940C94731D10E0C6EED0E004C0FE0103
:103AF0000E94AD1B2196C73ED107C9F7F894FFCFAE
:103B000000000000F9087508C208A008B4084009C0
:103B100000000000C50A950A8D0A790A6A0A690A36
:103B200000000000AA097508FE09160A9109A909F2
:103B30002140414C54230021405052532300214046
:103B4000544D5023004750524D430021404750539D
:103B500023004750474741000D0A006E616E00691F
:083B60006E66006F766600003E
:00000001FF
