:100000000C94E7000C940F010C940F010C94370A28
:100010000C94370A0C94370A0C940F010C940F01BE
:100020000C940F010C940F010C940F010C940F0110
:100030000C940F010C940F010C940F010C940F0100
:100040000C94ED090C940F010C94E0080C94BA0880
:100050000C940F010C940F010C940F010C940F01E0
:100060000C94CB0A0C940F01EE1308141D143814D1
:1000700043148114881492149D14AC14AC14AC1461
:10008000AC14AC14AC14AC14AC14AC14AC14AC1470
:10009000AC14AC14AC14AC14AC14AC14AC14AC1460
:1000A000AC14AC14AC14AC14EE13031408141D14EB
:1000B000381443145E146914741407634236B79BF2
:1000C000D8A71A39685618AEBAAB558C1D3CB7CCB8
:1000D0005763BD6DEDFD753EF6177231BF00000030
:1000E000803F08000000BE922449123EABAAAA2A13
:1000F000BECDCCCC4C3E00000080BEABAAAAAA3E2E
:1001000000000000BF000000803F00000000000869
:100110004178D3BB4387D1133D190E3CC3BD428206
:10012000AD2B3E68EC8276BED98FE1A93E4C80EFC4
:10013000FFBE01C4FF7F3F00000000000000000080
:10014000240027002A00436F756C64206E6F7420B2
:1001500066696E6420612076616C696420424D504E
:100160003238302073656E736F722C20636865635C
:100170006B20776972696E67210000000008000239
:100180000100000304070000000000000000000060
:100190000000250028002B0000000000230026009E
:1001A00029000404040404040404020202020202FA
:1001B000030303030303010204081020408001022B
:1001C00004081020010204081020BB150117112497
:1001D0001FBECFEFD8E0DEBFCDBF11E0A0E0B1E0A1
:1001E000EEEBFAE302C005900D92A836B107D9F7FD
:1001F00023E0A8E6B1E001C01D92A43DB207E1F7FB
:1002000010E0C6EED0E004C02197FE010E948C1BD6
:10021000C53ED107C9F70E94A30E0C94521D0C9441
:1002200000009091B5019111FCCF91E09093B50140
:100230009093B4012FEF2093B3011092B201260FD7
:100240002093B1019093900190919001880F892B98
:100250008093900180918F01813061F410928F0121
:10026000809190018093BB008091BC0083FDF8CF0A
:1002700085EC01C085EE8093BC008091B501813092
:10028000E1F38091B201861710F46091B201A1E907
:10029000B1E02FE631E0F9018E2F821B861718F4AA
:1002A0008D918193F9CF862F0895009769F0FC0115
:1002B00001900020E9F73197AF01481B590BBC01B1
:1002C00089ED91E00C94390680E090E00895382F94
:1002D0002091D80190914303213208F049C08091C8
:1002E000B5018111FCCF42E04093B5013093B401D8
:1002F0003FEF3093B3011092B2012093B101A8EB0C
:10030000B1E041E951E0FA013E2F341B321718F4F5
:100310003D913193F9CF1092900120919001990F66
:10032000922B9093900190918F01913061F41092F3
:100330008F01909190019093BB009091BC0093FD30
:10034000F8CF95EC01C095EE9093BC009091B5016B
:100350009230E1F39091B3019F3F79F08091B30126
:10036000803241F08091B301803331F084E005C0E8
:1003700081E003C082E001C083E01092B7011092D7
:10038000D8011092B601089591E09093B601809340
:1003900043031092B7011092D8010895CF93DF93D1
:1003A000D82FC62F80E60E94C4016D2F86E792E009
:1003B0000E9489086C2F86E792E00E94890881E0FC
:1003C000DF91CF910C946701813208F080E2682FB1
:1003D00080E60E94110110926E0180936D010895D4
:1003E000CF93DF931F92CDB7DEB7682F80E6698386
:1003F0000E94C401698186E792E00E94890880E03A
:100400000E94670181E090E00E94E40186E792E0AB
:100410000E943D080F90DF91CF91089510926E01D8
:1004200010926D011092B7011092D8011092B5018F
:1004300081E08093B40110928F0161E082E10E941B
:100440003B0961E083E10E943B09E9EBF0E0808138
:100450008E7F808380818D7F808388E48093B80045
:1004600085E48093BC00089588E591E00C945501E3
:10047000CF92DF92EF92FF920F931F93CF93DF9370
:10048000909121039F3F39F48EBD00000DB407FE0B
:10049000FDCF8EB544C0E82EC7E0D0E0D12C01E0FE
:1004A00010E0DD0C60E0809121030E943B09B8015F
:1004B0000C2E01C0660F0A94EAF76E2180911F038B
:1004C0000E943B0961E0809121030E943B09209139
:1004D000200330E0F901E658FE4F8491F901EA5417
:1004E000FE4FC490F901EE55FE4FF490FF2071F0DD
:1004F00081110E941209EF2DF0E0EE0FFF1FE85668
:10050000FE4FA591B491EC91EC2129F4219708F0CC
:10051000C8CF8D2D04C08D2D8160D82EF7CFDF91EF
:10052000CF911F910F91FF90EF90DF90CF900895A2
:10053000613208F060E20E94110110926E01809316
:100540006D01089581E00C946701CF93DF93C82F6C
:1005500080911E038F3F01F5809115030E94C40115
:100560006C2F86E792E00E9489080E94A20262E056
:10057000809115030E94980286E792E00E943D0850
:10058000C82F86E792E00E943D0820E030E03C2F33
:10059000E901C82BD92B29C0809121038F3F21F479
:1005A00082E591E00E94C80A60E080911E030E94EB
:1005B0003B098C2F80680E94380280E00E9438023C
:1005C000C82F80E00E9438022C2F30E0322F2227E3
:1005D000E901C82B61E080911E030E943B098091D4
:1005E00021038F3F11F40E94C70A9C2F8D2FDF91AA
:1005F000CF9108958F929F92AF92BF920F931F93C6
:10060000CF93DF93CDB7DEB7A1970FB6F894DEBFD7
:100610000FBECDBF19A2423008F44AE08E010F5D33
:100620001F4F842E912CA12CB12CA50194010E9466
:100630006A1BE62FB901CA0101501109EA3014F40E
:10064000E05D01C0E95CD801EC93232B242B252B22
:1006500061F7C8010E945501A1960FB6F894DEBF5C
:100660000FBECDBFDF91CF911F910F91BF90AF9083
:100670009F908F9008954F925F926F927F928F928A
:100680009F92AF92BF92CF92DF92EF92FF926B0157
:100690007C01B42E9B01AC010E940C1A882319F036
:1006A0008BE591E027C026013701E89477F82FEF1A
:1006B0003FEF4FE75FE7C301B2010E940C1A8111BF
:1006C0000DC02FEF3FEF4FE75FE7C301B2010E947C
:1006D0009E1718161CF48FE591E00CC02FEF3FEF2A
:1006E0004FE75FE4C701B6010E944A19181684F467
:1006F00083E691E0FF90EF90DF90CF90BF90AF90B6
:100700009F908F907F906F905F904F900C945501C9
:100710002FEF3FEF4FE75FECC701B6010E949E1736
:1007200087FDE6CF20E030E0A901C701B6010E94B5
:100730009E1787FF11C0E091D901F091DA01019075
:10074000F081E02D6DE289ED91E009954C01F7FA19
:10075000F094F7F8F09402C0812C912CA12C60E069
:1007600070E080E09FE3AB1440F420E030E040E232
:1007700051E40E94A317A394F6CF9B01AC01C701DB
:10078000B6010E9432172B013C010E9415186B0123
:100790007C010E944A189B01AC01C301B2010E9476
:1007A00031172B013C014AE0C701B6010E94FA0251
:1007B0007C01E80CF91CBB2069F0E091D901F091B3
:1007C000DA010190F081E02D6EE289ED91E009956A
:1007D000E80EF91EDB2CDD2021F120E030E040E2C4
:1007E00051E4C301B2010E944F192B013C010E9448
:1007F00015184B01A12CB12C4AE0C501B4010E948F
:10080000FA02E80EF91EC501B4010E944A189B01C4
:10081000AC01C301B2010E9431172B013C01DA94F3
:10082000DACFC701FF90EF90DF90CF90BF90AF90ED
:100830009F908F907F906F905F904F9008950C9451
:1008400055010F931F93CF93DF93EC0160E070E0AD
:10085000CB01E99120ED2E0F2A30C0F4AAE0B0E0E0
:100860009B01AC010E94921B0E2FEE0F110B220B6D
:10087000330BDC01CB01800F911FA21FB31FBC0102
:10088000CD016053710981099109E3CFDF91CF91C7
:100890001F910F9108950F931F93CF93C1E0809103
:1008A000F7028D3221F0C0E007EF12E002C008EF3E
:1008B00012E0C8010E9421049B01AC01A4E6B0E053
:1008C0000E94921BF801DF01219130ED320F3A3086
:1008D000D0F32E3269F511962C91119730ED320F2D
:1008E0003A3030F5022E000C330B205331094AE028
:1008F000429F8001439F100D1124012E000C220BFA
:10090000330B600F711F821F931F12960C9120ED05
:10091000200F2A3068F4002E000C110B005311092F
:10092000012E000C220B330B600F711F821F931FCF
:10093000CC2339F090958095709561957F4F8F4FBE
:100940009F4FCF911F910F9108954F925F926F9299
:100950007F928F929F92AF92BF92CF92DF92EF924F
:10096000FF92CF93DF9387EF92E00E9421042B0147
:100970003C0124E630E040E050E00E946A1B9B010D
:10098000AC0160EA76E881E090E00E94461B6B01D2
:100990007C01E7EFF2E0819190ED980F9A30D8F367
:1009A0008E3219F5EF0180E1882E87E2982EA12C76
:1009B000B12CA99180ED8A0F8A30B8F40A2E000C70
:1009C000BB0BD097A50194010E949D1BC60ED71E9C
:1009D000E81EF91EC501B4012AE030E040E050E015
:1009E0000E946A1B49015A01E4CFC701B6016D5F3D
:1009F0007F4F8F4F9F4F26E030E040E050E00E9455
:100A00006A1B69017A01C301B20124E630E040E0CB
:100A100050E00E946A1B60E472E48FE090E00E9464
:100A2000461B6C0D7D1D8E1D9F1DDF91CF91FF908C
:100A3000EF90DF90CF90BF90AF909F908F907F907E
:100A40006F905F904F90089586E20E94F001682FAA
:100A50006D7F86E20E94CE0186E20E94F001682F3F
:100A6000626086E20C94CE01CF92DF92EF92FF9209
:100A7000CF93C82F80911E038F3FC9F58091150336
:100A80000E94C4016C2F86E792E00E9489080E94B0
:100A9000A20263E0809115030E94980286E792E02B
:100AA0000E943D086C01990FEE08FF08FE2CED2C0A
:100AB000DC2CCC2486E792E00E943D08AC01990F23
:100AC000660B770BC42AD52AE62AF72AFE2CED2CD2
:100AD000DC2CCC2486E792E00E943D08AC01990F03
:100AE000660B770BC42AD52AE62AF72A33C08091F1
:100AF00021038F3F21F482E591E00E94C80A60E063
:100B000080911E030E943B098C2F80680E9438024E
:100B100080E00E943802C82ED12CE12CF12CFE2C52
:100B2000ED2CDC2CCC2480E00E943802C82AFE2C5C
:100B3000ED2CDC2CCC2480E00E943802C82A61E035
:100B400080911E030E943B09809121038F3F11F485
:100B50000E94C70AC701B601CF91FF90EF90DF90C6
:100B6000CF9008958F929F92AF92BF92CF92DF92D3
:100B7000EF92FF928AEF0E943405E5E1F3E04585AC
:100B800056854A01A12CB12CC72ED82EE92EFF2460
:100B9000E7FCFA94C818D908EA08FB08DC01CB0185
:100BA00037E0B595A795979587953A95D1F7B50113
:100BB000A401440F551F661F771F4C015D01841A65
:100BC000950AA60AB70AA5019401A785B0890E94D3
:100BD0009D1B4B015C013BE0B594A79497948794CF
:100BE0003A95D1F7A7019601C701B6010E94461BAD
:100BF0009B01AC016CE055954795379527956A9513
:100C0000D1F7A189B2890E949D1BDC01CB017EE056
:100C1000B595A795979587957A95D1F7A5019401F4
:100C2000280F391F4A1F5B1F258336834783508750
:100C3000A5E0B0E00E94921BDC01CB0180589F4FE1
:100C4000AF4FBF4F692F7A2F8B2F992787FD9A952A
:100C50000E944C1820E030E048EC52E40E94A317B8
:100C6000FF90EF90DF90CF90BF90AF909F908F90CC
:100C70000895CF92DF92EF92FF920F931F93CF933D
:100C8000DF936C017A018B01C0E0D0E0CE15DF0567
:100C900089F0D8016D918D01D601ED91FC91019003
:100CA000F081E02DC6010995892B11F47E0102C067
:100CB0002196ECCFC701DF91CF911F910F91FF904B
:100CC000EF90DF90CF900895FC01918D828D981761
:100CD00061F0828DDF01A80FB11D5D968C91928D20
:100CE0009F5F9F73928F90E008958FEF9FEF08951D
:100CF000FC01918D828D981731F0828DE80FF11DE6
:100D0000858D90E008958FEF9FEF0895FC01918D00
:100D1000228D892F90E0805C9F4F821B91098F73F9
:100D20009927089589ED91E00E94860621E0892B9C
:100D300009F420E0822F0895FC01848DDF01A80FC3
:100D4000B11DA35ABF4F2C91848D90E001968F73F3
:100D50009927848FA689B7892C93A089B1898C9112
:100D600080648C93938D848D981306C00288F389D8
:100D7000E02D80818F7D80830895EF92FF920F9305
:100D80001F93CF93DF93EC0181E0888F9B8D8C8D37
:100D9000981305C0E889F989808185FD24C0F62E65
:100DA0000B8D10E00F5F1F4F0F731127E02E8C8DFE
:100DB000E8120CC00FB607FCFACFE889F9898081E8
:100DC00085FFF5CFCE010E949C06F1CF8B8DFE01F1
:100DD000E80FF11DE35AFF4FF0820B8FEA89FB8980
:100DE0008081806207C0EE89FF896083E889F98984
:100DF00080818064808381E090E0DF91CF911F91BA
:100E00000F91FF90EF900895CF93DF93EC01888DC1
:100E10008823C9F0EA89FB89808185FD05C0A889FE
:100E2000B9898C9186FD0FC00FB607FCF5CF808184
:100E300085FFF2CFA889B9898C9185FFEDCFCE01CE
:100E40000E949C06E7CFDF91CF91089580E090E06B
:100E5000892B29F00E94920681110C9400000895BC
:100E60003FB7F8948091D0039091D103A091D20321
:100E7000B091D30326B5A89B05C02F3F19F001966A
:100E8000A11DB11D3FBFBA2FA92F982F8827820F10
:100E9000911DA11DB11DBC01CD0142E0660F771F60
:100EA000881F991F4A95D1F7089520916A013091C2
:100EB0006B012817390771F49091680180916901DD
:100EC000981741F0E0916801F0E0E557FC4F808110
:100ED00090E008958FEF9FEF089508951F93CF93AB
:100EE000DF93DC015C962D913C915D9721153105D6
:100EF00039F481E090E013969C938E9312973DC055
:100F00005196ED91FC91529750969C915097892F54
:100F100080951FB75E964C915E9741FB772770F9DD
:100F200041FD6095F8944081772311F0492B01C071
:100F300048234083E9012197F1F748E0508160FFA1
:100F400002C0592B01C058235083E9012197F1F7C2
:100F50006695415099F7772321F09081892380830A
:100F600003C08081982B90831FBF5C968D919C91CC
:100F70005D970197F1F721E030E0C901DF91CF9152
:100F80001F91089520916A0130916B01281739074C
:100F900071F4809169012091680190E0805C9F4F1D
:100FA000821B910960E470E00E94561B089580E066
:100FB00090E0089520916A0130916B01281739075C
:100FC000B9F49091680180916901981789F0E091D6
:100FD0006801F0E0E557FC4F80812091680130E026
:100FE0002F5F3F4F2F7333272093680190E00895C0
:100FF0008FEF9FEF089585ED8093BC008091BC003A
:1010000084FDFCCF1092B501089540916603262F10
:1010100030E0240F311D21323105DCF42091B5017F
:101020002430C9F4FC0180E090E0861758F4309138
:1010300066032191DC01AC5BBC4FA30FB11D2C9367
:101040000196F3CF80916603680F6093660380E09A
:10105000089581E0089582E008950895E0916E0179
:1010600080916D01E81730F4F0E0E159FE4F808186
:1010700090E008958FEF9FEF089590916E01809119
:101080006D01981750F4E92FF0E0E159FE4F2081EF
:1010900030E09F5F90936E0102C02FEF3FEFC901D8
:1010A000089580916D0190E020916E01821B91095D
:1010B0000895CF92DF92EF92FF920F931F93CF93F9
:1010C000DF937C01262F972F8A018091B601882318
:1010D00091F0C62FD72F6E01C40ED51ECC15DD059D
:1010E00071F06991D701ED91FC910190F081E02DB3
:1010F000C7010995F3CF642F822F0E940508C8010C
:10110000DF91CF911F910F91FF90EF90DF90CF90E3
:101110000895CF93DF931F92CDB7DEB769832091F7
:10112000B6012223D1F02091D801203240F021E0F5
:1011300030E0FC013383228380E090E015C0809191
:10114000B701E82FF0E0E854FE4F998190838F5F5C
:101150008093B7018093D80105C061E0CE0101966C
:101160000E94050881E090E00F90DF91CF910895F3
:101170000E944D1D1F920F920FB60F9211242F93B4
:101180003F934F935F936F937F938F939F93AF930F
:10119000BF93EF93FF9389ED91E00E949C06FF912E
:1011A000EF91BF91AF919F918F917F916F915F91DF
:1011B0004F913F912F910F900FBE0F901F90189558
:1011C0001F920F920FB60F9211242F938F939F931C
:1011D000EF93FF93E091E901F091EA018081E091C2
:1011E000EF01F091F00182FD12C090818091F20137
:1011F0008F5F8F732091F301821751F0E091F2011C
:10120000F0E0E752FE4F958F8093F20101C080819C
:10121000FF91EF919F918F912F910F900FBE0F90A3
:101220001F901895833081F028F4813099F0823036
:10123000A1F008958730A9F08830B9F08430D1F456
:10124000809180008F7D03C0809180008F77809394
:101250008000089584B58F7702C084B58F7D84BDEA
:1012600008958091B0008F7703C08091B0008F7D8A
:101270008093B00008951F93CF93DF93282F30E021
:10128000F901E658FE4F8491F901EA54FE4FD491DA
:10129000F901EE55FE4FC491CC23C9F0162F8111F0
:1012A0000E941209EC2FF0E0EE0FFF1FE257FE4FF5
:1012B000A591B4918FB7F894111105C09C91ED2FB1
:1012C000E095E92302C0EC91ED2BEC938FBFDF9109
:1012D000CF911F910895CF93DF9390E0FC01EA54E2
:1012E000FE4F2491FC01EE55FE4F8491882361F15D
:1012F00090E0880F991FFC01E45CFE4FC591D491EA
:10130000FC01E257FE4FA591B491611109C09FB74E
:10131000F8948881209582238883EC912E230BC03A
:10132000623061F49FB7F8943881822F80958323CF
:101330008883EC912E2B2C939FBF06C08FB7F89417
:10134000E8812E2B28838FBFDF91CF9108958F9254
:101350009F92AF92BF92CF92DF92EF92FF926B017A
:101360007C010E9430074B015C01C114D104E104EF
:10137000F104F1F00E943007DC01CB0188199909D2
:10138000AA09BB09883E9340A105B10570F321E08D
:10139000C21AD108E108F10888EE880E83E0981E91
:1013A000A11CB11CC114D104E104F10419F7DDCF73
:1013B000FF90EF90DF90CF90BF90AF909F908F9075
:1013C00008952FB7F8946091CC037091CD0380916C
:1013D000CE039091CF032FBF08951F920F920FB6A7
:1013E0000F9211242F933F938F939F93AF93BF93AB
:1013F0008091CC039091CD03A091CE03B091CF0307
:101400003091CB0323E0230F2D3720F40196A11D4B
:10141000B11D05C026E8230F0296A11DB11D209322
:10142000CB038093CC039093CD03A093CE03B093D2
:10143000CF038091D0039091D103A091D203B091BA
:10144000D3030196A11DB11D8093D0039093D103C6
:10145000A093D203B093D303BF91AF919F918F918B
:101460003F912F910F900FBE0F901F9018951F92D4
:101470000F920FB60F9211242F933F934F935F93C8
:101480006F937F938F939F93AF93BF93EF93FF934C
:10149000E0916A01F0916B01309709F451C0968D8B
:1014A000A685B785858591FF04C09C91892329F481
:1014B00047C09C91892309F043C0A389B4899C91BA
:1014C0008589809589238C93868997890197F1F77F
:1014D000608D718DA685B785558538E020E0CB01FC
:1014E0000197F1F7822F90E095958795282F4C91E1
:1014F000452309F02068315091F7868D81FD2095B4
:101500008091690190E001968F739927309168016D
:10151000381749F0A0916901B0E0A557BC4F2C9352
:101520008093690103C0868D8160868F828D938D43
:101530000197F1F7A389B4899C918589892B8C93B4
:10154000FF91EF91BF91AF919F918F917F916F919B
:101550005F914F913F912F910F900FBE0F901F9071
:101560001895E0916A01F0916B01E817F90769F4A9
:10157000A389B4899C918589809589238C93109245
:101580006B0110926A0181E0089580E0089508954A
:101590008CBD9DBD08951F920F920FB60F9211241E
:1015A0002F933F934F935F936F937F938F939F936B
:1015B000AF93BF93EF93FF938091B900887F8036FC
:1015C00009F49CC068F5883209F45BC090F480315E
:1015D00009F454C038F4882309F4F6C0883009F4BB
:1015E0004DC0F6C0883109F44CC0803209F45DC0AA
:1015F000EFC0803409F468C048F4803309F455C062
:10160000883309F0E5C08093B301D8C0803509F470
:101610004FC0883509F45DC0883409F0D9C0D6C000
:10162000883909F4C7C0A8F4883709F467C038F4CA
:10163000883609F463C0803709F460C0C9C08838AF
:1016400009F4B8C0803909F45FC0803809F0C0C01F
:101650005BC0803B09F486C038F4803A09F466C068
:10166000883A09F47FC0B4C0803C09F4A7C0883C24
:1016700009F4A4C0883B09F48AC0AAC080919001F3
:1016800010C09091B2018091B101981770F5E0916E
:10169000B20181E08E0F8093B201F0E0EF56FE4F71
:1016A00080818093BB0085EC86C08093B3018EC09F
:1016B000E091B20181E08E0F8093B2018091BB0076
:1016C000F0E0EF56FE4F80839091B2018091B1011E
:1016D0006EC0E091B20181E08E0F8093B2018091E3
:1016E000BB00F0E0EF56FE4F80838091B401811182
:1016F0006DC081E080938F0184EA61C083E08093B4
:10170000B50110928A03CFCF80918A03803208F00E
:1017100051C0E0918A0381E08E0F80938A0380910B
:10172000BB00F0E0E659FC4F8083BDCF85EC809391
:10173000BC001092B50180918A03803230F4E091B0
:101740008A03F0E0E659FC4F108260918A0370E052
:10175000E0916803F09169038AE693E0099510929D
:101760008A0336C084E08093B5011092670310921B
:101770006603E0916403F091650309958091660327
:10178000811105C081E08093660310924403E091CB
:10179000670381E08E0F80936703F0E0EC5BFC4F02
:1017A00080818093BB0090916703809166039817B6
:1017B00008F479CF85E88093BC000AC085EC80935B
:1017C000BC001092B50104C01092B3010E94FB0747
:1017D000FF91EF91BF91AF919F918F917F916F9109
:1017E0005F914F913F912F910F900FBE0F901F90DF
:1017F0001895CF92DF92EF92FF921F93CF93DF93D2
:1018000080E00E94F00180E00E94F00180E60E94EA
:10181000C40161E086E792E00E94890880E00E94AE
:10182000670183E090E00E94E401833009F043C047
:1018300086E792E00E943D08D82F86E792E00E945A
:101840003D08182F86E792E00E943D08C82F0E94AD
:101850002405812F90E0A0E0B0E0BA2FA92F982FA7
:101860008827AD2B8C2BC0732C2F30E0E90134E09E
:10187000D595C7953A95E1F7BC01CD0146E0959520
:101880008795779567954A95D1F70E944C186B011B
:101890007C01BE0180E090E00E944A1820E030E028
:1018A00040E85EE30E944F199B01AC01C701B601FD
:1018B0000E94321704C060E070EC89E794ECDF917D
:1018C000CF911F91FF90EF90DF90CF9008952F92CE
:1018D0003F924F925F926F927F928F929F92AF92C0
:1018E000BF92CF92DF92EF92FF920F931F93CF930D
:1018F000DF93CDB7DEB7A2970FB6F894DEBF0FBE69
:10190000CDBF0E94B20587EF0E9434056A8F7B8F9E
:101910008C8F9D8F80911A0390911B03A0911C03C3
:10192000B0911D036C017D01FF0CCC08DC2C76010D
:101930009C01AD016C2D7C2D8C2D9C2D345F414084
:10194000510961097109810991092AA339A34983C0
:101950005A836B837C838D839E8359016A017B014B
:101960008C010E94A51B2A8B3B8B4C8B5D8B6E8B55
:101970007F8B888F998F809132038E8FE091330314
:10198000EF83F0913003FF8F809131038887E091DE
:101990002E03E8A3F0912F03F987B0902B03A090BA
:1019A0002A031B2D110F110BC12ED12EE12EF12E6A
:1019B000012F2AA139A149815A816B817C818D81B6
:1019C0009E810E94A51B0CE00E94D51C19012A01D2
:1019D0003B014C01B0902D03A0902C031B2D110F47
:1019E000110BC12ED12EE12EF12E012F2A893B8918
:1019F0004C895D896E897F89888D998D0E94A51B90
:101A000008E00E94EE1C51016201730184010E94F2
:101A10000C1D70588F4F9F4F209028033090290342
:101A20005101C12CD12CE12CF12C00E010E00E94DE
:101A3000A51B01E20E94EE1C2A873B874C875D872D
:101A40006E877F87888B998BA0E00E941E1D09F40A
:101A50005EC1AE8C1F81110F110BBF80C12ED12E24
:101A6000E12EF12E012F2A893B894C895D896E89EF
:101A70007F89888D998D0E94A51B19012A013B0140
:101A80004C01AF8C1885110F110BB884C12ED12ECB
:101A9000E12EF12E012F2AA139A149815A816B81B2
:101AA0007C818D819E810E94A51B01E10E94D51C35
:101AB00059016A017B018C019101A201B301C401AA
:101AC0000E940C1D19012A013B014C014A8D5B8DBE
:101AD0006C8D7D8D84E075956795579547958A95B2
:101AE000D1F780E090E0A0E1B0E0841B950BA60B5D
:101AF000B70B6C017D01FF0CCC08DC2C76019C013E
:101B0000AD016C2D7C2D8C2D9C2D0FE10E94D51CE0
:101B1000F901B42FA52F6C837D8389839A8328A133
:101B20009985990F990B3985492F592F692F792F4D
:101B3000892F03E20E94D51C59016A017B018C01A7
:101B40009101A201B301C4010E940C1D59016A0157
:101B50007B018C019F014B2F5A2F6C817D818981E4
:101B60009A810E94151D4901542E652EB62FA72F6C
:101B7000F82FE92F03E00E94D51C5401C52CD62C68
:101B8000EB2EFA2E0F2F1E2F0E94151D59016A01F0
:101B90007B01782E192F03E00E94D51C072D0E948F
:101BA000151D03E00E94D51C5401C52CD62CEB2E2C
:101BB000FA2E0F2F1E2F0E94151D02E00E94D51C29
:101BC0000F2F0E94151D01E00E94D51C0F2F0E94AF
:101BD000151DAA84BB84CC84DD84EE84FF8408892F
:101BE00019890E94001C28873F8349835A836B838D
:101BF0007C838D839E830DE00E94EE1C922E832EAB
:101C0000742E652E562E472E382E292E30913903EC
:101C100020913803932F990F990BA92CB82CC72C1E
:101C2000D62CE52CF42C032D122D492F592F692F7A
:101C3000792F892F0E94A51B0E94A51B09E10E94F4
:101C4000EE1C59016A017B018C0128853F81498185
:101C50005A816B817C818D819E810E940C1D1901AE
:101C60002A013B014C013091370320913603932F19
:101C7000990F990BA884BF80C980DA80EB80FC8023
:101C80000D811E81492F592F692F792F892F0E948D
:101C9000A51B03E10E94EE1C59016A017B018C0126
:101CA0009101A201B301C4010E940C1D08E00E9431
:101CB000EE1C522E632E742E852E962EF72FE82FB3
:101CC000B92F3091350320913403932F990F990B3D
:101CD000492F592F692F792F892F04E00E94D51C95
:101CE00059016A017B018C01252D362D472D582D78
:101CF000692D7F2F8E2F9B2F0E940C1D0E94441850
:101D000020E030E040E85BE30E944F1903C060E050
:101D100070E0CB01A2960FB6F894DEBF0FBECDBF28
:101D2000DF91CF911F910F91FF90EF90DF90CF90B7
:101D3000BF90AF909F908F907F906F905F904F90EB
:101D40003F902F900895CF93DF9300D01F92CDB78F
:101D5000DEB7789484B5826084BD84B5816084BD2B
:101D600085B5826085BD85B5816085BD80916E0039
:101D7000816080936E00109281008091810082606A
:101D800080938100809181008160809381008091A7
:101D900080008160809380008091B1008460809396
:101DA000B1008091B00081608093B00080917A0092
:101DB000846080937A0080917A00826080937A00B8
:101DC00080917A00816080937A0080917A008068A7
:101DD00080937A001092C1000E940E02E091E90106
:101DE000F091EA0182E08083E091E501F091E60163
:101DF0001082E091E701F091E80180E18083109288
:101E0000F101E091ED01F091EE0186E08083E09137
:101E1000EB01F091EC01808180618083E091EB0126
:101E2000F091EC01808188608083E091EB01F0917A
:101E3000EC01808180688083E091EB01F091EC01FE
:101E400080818F7D808387E78093150380911E03B7
:101E50008F3F19F40E940E024EC061E00E943B09C0
:101E600061E080911E030E946B09809121038F3FE6
:101E700009F034C01FB7F89480916C01811127C01C
:101E8000ECEAF1E08491E0ECF1E09491E82FF0E0ED
:101E9000EE0FFF1FE45CFE4FA591B491EC91E92396
:101EA00021F461E08AE00E943B0961E08AE00E943F
:101EB0006B098CB580618CBD8CB580648CBD61E094
:101EC0008DE00E946B0961E08BE00E946B098091BC
:101ED0006C018F5F80936C011FBF0DC061E00E9499
:101EE0006B0961E080911F030E946B0960E08091A3
:101EF00020030E946B0980911E038F3FB1F48091F3
:101F000015030E94C40160ED86E792E00E948908F3
:101F10000E94A20261E0809115030E94980286E768
:101F200092E00E943D08182F1FC0809121038F3F2F
:101F300021F482E591E00E94C80A60E080911E03CE
:101F40000E943B0980ED0E94380280E00E94380226
:101F5000182F61E080911E030E943B0980912103AC
:101F60008F3F11F40E94C70A183509F088C088E82D
:101F70000E94A50290932303809322038AE80E9483
:101F8000A50290932503809324038CE80E94A50268
:101F900090932703809326038EE80E94A5029093D6
:101FA00029038093280380E90E94A50290932B03C4
:101FB00080932A0382E90E94A50290932D038093C7
:101FC0002C0384E90E94A50290932F0380932E0393
:101FD00086E90E94A502909331038093300388E93B
:101FE0000E94A50290933303809332038AE90E94F2
:101FF000A50290933503809334038CE90E94A502D7
:1020000090933703809336038EE90E94A502909344
:1020100039038093380380911E038F3F89F48091A8
:1020200015030E94C40164EF86E792E00E948908CC
:102030006FE386E792E00E9489080E94A20238C0FE
:10204000809121038F3F21F482E591E00E94C80A2C
:1020500060E080911E030E943B0984E70E943802E1
:102060008FE30E94380261E080911E030E943B09C9
:10207000809121038F3FE1F40E94C70A19C006E452
:1020800011E0F8016491611103C00E9434020FC095
:10209000E091D901F091DA010190F081E02D89ED14
:1020A00091E009950F5F1F4F892B59F7EECFFFCFB6
:1020B0000E940E0286E20E94F001682F6F7786E28E
:1020C0000E94CE0186E20E94F001682F686386E2DA
:1020D0000E94CE0167E083E10E94CE0110929D0232
:1020E00010929C0210929B0210929A0210929902F6
:1020F000109298028EE393E090939F0280939E0249
:1021000090918E02963108F057C02DE831E030935F
:102110009902209398022CE333E030939B022093A2
:102120009A0224E632E030939D0220939C02209193
:102130006800983050F031E09E3008F430E081E0E3
:1021400001C0880F3A95EAF701C084E0822B8093A2
:102150006800983038F09E3040F0963148F020E02A
:1021600030E008C02DE630E005C02BE630E002C0CC
:102170002CE630E03093960220939502983030F4AC
:1021800081E001C0880F9A95EAF70EC0292F30E050
:102190009E3018F42850310902C02E50310981E0D8
:1021A00001C0880F2A95EAF78093970280919E02DA
:1021B00090919F020197F1F780919C0290919D026E
:1021C000892B21F180916A0190916B01F2E08238B4
:1021D0009F07E1F0009711F00E94B10A8091A002E0
:1021E0008E7F8093A002109269011092680182E8AC
:1021F00092E090936B0180936A01E0919502F091D7
:102200009602908180919702892B808312E033247B
:1022100033940E94E1096B017C0180E391E00E940C
:102220001F040E94670C20E030E048EC52E40E945A
:10223000A31720E030EC4DE754E40E94A31721E0FF
:102240003EED42E45EE30E94BC199B01AC0160E0FC
:1022500070E080E89FE30E94311720E03AE24DE20F
:1022600057E40E944F1942E050E00E943B038CE388
:1022700091E00E941F040E94F90B20E836EE45EC25
:1022800057E40E94A3172BE534ED42E45EE30E947D
:10229000BC199B01AC0160E070E080E89FE30E9404
:1022A000311725EC3AE24DE257E40E944F1920E045
:1022B00030E040E752E40E94321742E050E00E94D2
:1022C0003B038CE391E00E941F040E94E1090E94FD
:1022D0004A1820E030E04AE754E40E94A31742E0A5
:1022E00050E00E943B030E94340287E391E00E9489
:1022F0001F040E94670C20E030E048EC52E40E948A
:10230000A31742E050E00E943B038CE391E00E945F
:102310001F040E94F90B20E030E048EC52E40E94D8
:10232000A31742E050E00E943B038CE391E00E943F
:102330001F040E94E1090E944A1820E030E04AE7A9
:1023400054E40E94A31742E050E00E943B030E9425
:1023500034028EE391E00E941F040E94B20542E025
:1023600050E00E943B038CE391E00E941F0480E058
:102370000E94F00139E5A32E32E0B32E80E00E94E6
:10238000F00181FD10C021E0A21AB10829F460E03B
:1023900070EC89E794EC63C061E070E080E090E06D
:1023A0000E94A709EBCF80E60E94C40164E086E7A3
:1023B00092E00E94890880E00E94670182E090E03C
:1023C0000E94E401823019F786E792E00E943D08FE
:1023D000B82E86E792E00E943D0889830E9424057A
:1023E0008981B7FC04C06B2D682E00E00FC0BB8252
:1023F0001A824A815B81480F511DCA0191958195CE
:102400009109692F582F507F652E01E070E080E020
:1024100090E00E944C184B015C01862D90E024E076
:10242000959587952A95E1F7BC01990F880B990B33
:102430000E944C1820E030E040E85DE30E944F1914
:102440009B01AC01C501B4010E943217002339F091
:102450009B01AC0160E070E0CB010E94311742E0CB
:1024600050E04B015C01C501B4010E943B038CE3C9
:1024700091E00E941F040E94E1090E944A1820E096
:1024800030E04AE754E40E94A31742E050E00E9483
:102490003B030E943402A12C82E892E00E94C20712
:1024A000892B09F48FC282E892E00E94DA07082F94
:1024B00080910A0390910B03A0910C03B0910D033E
:1024C0000196A11DB11D80930A0390930B03A09365
:1024D0000C03B0930D03043209F452C2E0910803D7
:1024E000053234F40A3071F00D3009F056C20AC0DA
:1024F0000A3241F00C3209F050C28091F502802777
:102500008093F502EF3008F027C2F0E0E950FD4F6C
:1025100010828091F602882309F428C12091F702E5
:102520003FEB320F822F022E000C990B363010F445
:10253000C79707C02156263018F48755910901C066
:10254000C097282F2295207F3091F8024FEB430F40
:10255000832F032E000C990B463010F4C79707C049
:102560003156363018F48755910901C0C097820F53
:102570009091F5028913F0C080910903882309F432
:10258000EBC180910E0390910F03019690930F037E
:1025900080930E038091E9029091EA02A091EB02F0
:1025A000B091EC028093E5029093E602A093E702DB
:1025B000B093E8028091F1029091F202A091F302AF
:1025C000B091F4028093ED029093EE02A093EF029B
:1025D000B093F00280910603882309F464C081302F
:1025E00009F0B6C18091A5029091A602A091A70220
:1025F000B091A8028093A1029093A202A093A3029B
:10260000B093A4028091AD029091AE02A091AF026E
:10261000B091B0028093A9029093AA02A093AB025A
:10262000B093AC028091B5029091B602A091B7022E
:10263000B091B8028093B1029093B202A093B3021A
:10264000B093B4028091BD029091BE02A091BF02EE
:10265000B091C0028093B9029093BA02A093BB02DA
:10266000B093BC028091CD029091CE02A091CF0296
:10267000B091D0028093C9029093CA02A093CB027A
:10268000B093CC028091D5029091D602A091D7024E
:10269000B091D8028093D1029093D202A093D3023A
:1026A000B093D40255C18091C5029091C602A09109
:1026B000C702B091C8028093C1029093C202A09356
:1026C000C302B093C4028091A5029091A602A0918A
:1026D000A702B091A8028093A1029093A202A093B6
:1026E000A302B093A4028091B5029091B602A0918A
:1026F000B702B091B8028093B1029093B202A09356
:10270000B302B093B4028091BD029091BE02A09139
:10271000BF02B091C0028093B9029093BA02A09315
:10272000BB02B093BC028091E3029091E4029093CB
:10273000E2028093E1028091DD029091DE02A0919D
:10274000DF02B091E0028093D9029093DA02A09365
:10275000DB02B093DC02FCC0809110039091110366
:1027600001969093110380931003F6C09091070394
:1027700091111CC0A7EFB2E045E451E09D01F901C1
:1027800081919F01882309F4E5C0FA019191AF017D
:102790008917A9F3E2E5F1E08D91882309F4D9C105
:1027A00091918917C9F310930603D6C0E0910603EF
:1027B000E23009F4D1C08091F702882309F4CCC03B
:1027C00020E2E29FF0011124E92B3197E932F10573
:1027D00008F0C2C0EC5CFF4F0C948C1B0E944B04B1
:1027E0006093A5027093A6028093A7029093A8021B
:1027F0000E94E1096093E9027093EA028093EB0280
:102800009093EC02A9C091E0813409F07DC07DC0B5
:102810000E94A5046093B5027093B6028093B7023C
:102820009093B8020E94E1096093F1027093F20262
:102830008093F3029093F4028FC0833509F08CC02B
:102840008091B5029091B602A091B702B091B80202
:10285000B095A095909581959F4FAF4FBF4F8093B6
:10286000B5029093B602A093B702B093B80274C0B9
:102870000E94A5046093BD027093BE028093BF02C4
:102880009093C00269C0873509F066C08091BD028F
:102890009091BE02A091BF02B091C002B095A095E8
:1028A000909581959F4FAF4FBF4F8093BD029093FE
:1028B000BE02A093BF02B093C0024EC00E944B0460
:1028C0006093CD027093CE028093CF029093D0029A
:1028D00043C00E944B046093D5027093D60280934C
:1028E000D7029093D80238C087EF92E00E9421046B
:1028F0006093AD027093AE028093AF029093B002EA
:102900002BC091E081330CF490E09093090324C034
:1029100087EF92E00E940B1799279093E40280932F
:10292000E3021AC00E944B046093DD027093DE0242
:102930008093DF029093E0020FC00E944B046093EB
:10294000C5027093C6028093C7029093C80204C068
:1029500091E003C03092060390E0809107038F5FFF
:10296000809307031092080381E00A3209F080E0A7
:102970008093F602992309F48FCDAA24A3948CCDD9
:1029800010920803109207031092F50210930603A9
:102990001092F602109209037FCDEE3040F481E0F0
:1029A0008E0F80930803F0E0E950FD4F0083809183
:1029B000F602811171CD8091F502B02EB826B09249
:1029C000F5026ACDAA2009F4AFC08090B1029090C0
:1029D000B202A090B302B090B4024090B9025090FD
:1029E000BA026090BB027090BC028091ED0290919F
:1029F000EE02A091EF02B091F0028F3F9F4FAF4FD8
:102A0000BF4F11F00E94E1093FEF831639EC9306A6
:102A10003AE9A3063BE3B30609F49EC0C501B4013D
:102A20000E944C1820E034E244E759E40E94A317C6
:102A30004B015C01C301B2010E944C1820E034E25A
:102A400044E759E40E94A3172B013C018BE491E079
:102A50000E941F0420E030E04AE754E4B401C501BD
:102A60000E949E17882309F481C03A2D2B2D46E041
:102A700050E0B401832F922F0E943B038CE391E03E
:102A80000E941F0420E030E04AE754E4B201C30191
:102A90000E949E17811104C0412C512C612C712C75
:102AA00046E050E0B201C3010E943B038CE391E099
:102AB0000E941F046091E1027091E2026F3F710574
:102AC00011F460E070E080E090E04AE00E94FA02D9
:102AD0008CE391E00E941F046091D9027091DA02A8
:102AE0008091DB029091DC026F3F4FEF7407840707
:102AF000940719F460E070E0CB014AE00E94FA020A
:102B00008CE391E00E941F040E94E1090E944A1890
:102B100020E030E04AE754E40E94A31742E050E08E
:102B20000E943B030E9434020E94E10954EFC50E4B
:102B300051E0D51EE11CF11CA7019601261B370BA5
:102B4000480B590BCA01B9010E94A7090E94260728
:102B500060CB1092060300CF412C512C8AE7682EDF
:102B600094E4792E8BE491E00E941F04812C912C37
:102B700030E020E07CCF0F931F931092DC01109285
:102B8000DB0108EE13E020E030E00093DD0110935C
:102B9000DE012093DF013093E00184E091E0909327
:102BA000DA018093D90185EC90E09093E60180935F
:102BB000E50184EC90E09093E8018093E70180ECDC
:102BC00090E09093EA018093E90181EC90E090938A
:102BD000EC018093EB0182EC90E09093EE01809306
:102BE000ED0186EC90E09093F0018093EF0110925C
:102BF000F2011092F3011092F4011092F50110927B
:102C000079021092780200937A0210937B0220934B
:102C10007C0230937D0284E191E09093770280936F
:102C200076028FEF80931E0380931F03809320030F
:102C3000809321034FEF5FEFBA014093A1025093BD
:102C4000A2026093A3027093A4021092A9021092B0
:102C5000AA021092AB021092AC028FEF99ECAAE993
:102C6000BBE38093B1029093B202A093B302B093FE
:102C7000B4028093B9029093BA02A093BB02B093BE
:102C8000BC028093C1029093C202A093C302B0938E
:102C9000C4028093C9029093CA02A093CB02B0935E
:102CA000CC028093D1029093D202A093D302B0932E
:102CB000D4024093D9025093DA026093DB027093FE
:102CC000DC028FEF90E09093E2028093E102409368
:102CD000E5025093E6026093E7027093E8024093A6
:102CE000ED025093EE026093EF027093F0021092A7
:102CF000F5021092F60282E0809306031092070319
:102D0000109208031092090310920A0310920B0309
:102D100010920C0310920D0310920F0310920E03E9
:102D200010921103109210031092F7021092850274
:102D300010928402009386021093870220938802E7
:102D40003093890284E291E090938302809382021F
:102D5000109299021092980210929B0210929A027D
:102D600010929D0210929C0210929F0210929E025D
:102D70006091A0026E7F6D7F6093A0026695617086
:102D800081E0682783E00E943B0961E083E00E94C4
:102D90006B09E9EBF1E0E491E0939202E5EAF1E0FE
:102DA000E491F0E0EE0FFF1FE257FE4F8591949102
:102DB000909394028093930260E082E00E946B09FA
:102DC0008091A00281FD04C061E082E00E943B0985
:102DD00082E080938E02E8EBF1E0E491E0938F02D1
:102DE000E4EAF1E0E491F0E0EE0FFF1FE856FE4F59
:102DF0008591949190939102809390021F910F91ED
:102E0000089584E291E0909383028093820282E8A5
:102E100092E00C94B10AFC0188279927E89421914B
:102E20002032E9F3293010F02E30C8F32B3241F074
:102E30002D3239F4689404C00E942917820F911D25
:102E4000219120532A30C0F31EF4909581959F4F15
:102E500008957AE0979F902D879F802D910D1124E2
:102E600008955058BB27AA270E9449170C9410199F
:102E70000E94021938F00E94091920F039F49F3F8E
:102E800019F426F40C94EF180EF4E095E7FB0C947B
:102E9000E918E92F0E94211958F3BA17620773073E
:102EA0008407950720F079F4A6F50C9443190EF4E5
:102EB000E0950B2EBA2FA02D0B01B90190010C014A
:102EC000CA01A0011124FF27591B99F0593F50F462
:102ED000503E68F11A16F040A22F232F342F4427BA
:102EE000585FF3CF469537952795A795F0405395B2
:102EF000C9F77EF41F16BA0B620B730B840BBAF082
:102F00009150A1F0FF0FBB1F661F771F881FC2F7EC
:102F10000EC0BA0F621F731F841F48F48795779500
:102F20006795B795F7959E3F08F0B0CF9395880FBA
:102F300008F09927EE0F9795879508950E94C51878
:102F400008F481E008950E94B7170C9410190E94AC
:102F5000091958F00E94021940F029F45F3F29F046
:102F60000C94E91851110C9444190C94EF180E9418
:102F7000211968F39923B1F3552391F3951B550B50
:102F8000BB27AA2762177307840738F09F5F5F4F3C
:102F9000220F331F441FAA1FA9F335D00E2E3AF07B
:102FA000E0E832D091505040E695001CCAF72BD093
:102FB000FE2F29D0660F771F881FBB1F26173707E4
:102FC0004807AB07B0E809F0BB0B802DBF01FF2716
:102FD00093585F4F3AF09E3F510578F00C94E918F2
:102FE0000C9444195F3FE4F3983ED4F386957795AB
:102FF0006795B795F7959F5FC9F7880F911D9695CF
:10300000879597F90895E1E0660F771F881FBB1F2A
:10301000621773078407BA0720F0621B730B840BD7
:10302000BA0BEE1F88F7E09508950E94291988F0E1
:103030009F5798F0B92F9927B751B0F0E1F0660F7C
:10304000771F881F991F1AF0BA95C9F714C0B130BD
:1030500091F00E944319B1E008950C944319672F31
:10306000782F8827B85F39F0B93FCCF386957795EC
:103070006795B395D9F73EF49095809570956195D5
:103080007F4F8F4F9F4F089597FB16F40E94F218C1
:103090000C948818E89409C097FB3EF490958095AD
:1030A000709561957F4F8F4F9F4F9923A9F0F92F0E
:1030B00096E9BB279395F695879577956795B7958C
:1030C000F111F8CFFAF4BB0F11F460FF1BC06F5F72
:1030D0007F4F8F4F9F4F16C0882311F096E911C084
:1030E000772321F09EE8872F762F05C0662371F0A5
:1030F00096E8862F70E060E02AF09A95660F771FB9
:10310000881FDAF7880F9695879597F90895E894C0
:10311000F92F96EBFF2381F0121613061406440BC9
:103120009395F69587957795679557954040FF233A
:10313000B9F71BC099270895882351F49850D2F706
:10314000872B762F652F542F432F322F20E0B1F39A
:10315000121613061406440B88233AF09A95440F6E
:10316000551F661F771F881FCAF755234AF4440F5F
:10317000551F11F460FF04C06F5F7F4F8F4F9F4F4B
:10318000880F9695879597F90895990F0008550F20
:10319000AA0BE0E8FEEF16161706E807F907C0F0DD
:1031A00012161306E407F50798F0621B730B840BE5
:1031B000950B39F40A2661F0232B242B252B21F4BF
:1031C00008950A2609F4A140A6958FEF811D811D5F
:1031D000089597F99F6780E870E060E008959FEF99
:1031E00080EC0895909580957095609550954095E8
:1031F000309521953F4F4F4F5F4F6F4F7F4F8F4F10
:103200009F4F089500240A941616170618060906FB
:10321000089500240A94121613061406050608954C
:10322000092E0394000C11F4882352F0BB0F40F4D4
:10323000BF2B11F460FF04C06F5F7F4F8F4F9F4F14
:10324000089557FD9058440F551F59F05F3F71F096
:103250004795880F97FB991F61F09F3F79F08795FD
:103260000895121613061406551FF2CF4695F1DF86
:1032700008C0161617061806991FF1CF8695710516
:10328000610508940895E894BB2766277727CB014A
:1032900097F908950E94C51808F48FEF08950E94C9
:1032A00062190C9410190E94021938F00E94091931
:1032B00020F0952311F00C94E9180C94EF181124C8
:1032C0000C9444190E94211970F3959FC1F3950F36
:1032D00050E0551F629FF001729FBB27F00DB11D9A
:1032E000639FAA27F00DB11DAA1F649F6627B00D2A
:1032F000A11D661F829F2227B00DA11D621F739F13
:10330000B00DA11D621F839FA00D611D221F749F20
:103310003327A00D611D231F849F600D211D822F67
:10332000762F6A2F11249F5750409AF0F1F088238E
:103330004AF0EE0FFF1FBB1F661F771F881F9150BB
:103340005040A9F79E3F510580F00C94E9180C9469
:1033500044195F3FE4F3983ED4F3869577956795DB
:10336000B795F795E7959F5FC1F7FE2B880F911DE5
:103370009695879597F90895FA01EE0FFF1F3096FD
:1033800021053105A1F16115710561F48038BFE3B4
:103390009B0749F168949038810561F08038BFEF50
:1033A0009B0741F099234AF5FF3FE10531052105CF
:1033B00019F1E8940894E795D901AA2329F4AB2FD1
:1033C000BE2FF85FD0F310C0FF5F70F4A695E0F752
:1033D000F73950F019F0FF3A38F49F779F930DD0EA
:1033E0000F9007FC9058089546F00C94EF1860E099
:1033F00070E080E89FE308954FE79F775F934F93D6
:103400003F932F930E94BC1A2F913F914F915F9150
:103410000E944F190C94191A0E94C518880B990B19
:10342000089529F416F00C94E9180C9443190C949F
:10343000EF180E942919A8F39638A0F707F80F9201
:10344000E8942BE33AEA48EB5FE70E9465190F9294
:103450000F920F924DB75EB70F920E94041BEAEBDA
:10346000F0E00E944B1A4F915F91EF91FF91E5952B
:10347000EE1FFF1F49F0FE57E0684427EE0F441F80
:10348000FA95E1F74195550B0E947E1A0F9007FEC1
:103490000C94721A0895DF93CF931F930F93FF92AA
:1034A000EF92DF927B018C01689406C0DA2EEF0167
:1034B0000E946219FE01E894A591259135914591EC
:1034C0005591A6F3EF010E944917FE019701A8014B
:1034D000DA9469F7DF90EF90FF900F911F91CF91F1
:1034E000DF9108959B01AC0160E070E080E89FE30C
:1034F0000C94A3170C94E9180C94381B0E942919FA
:10350000D8F39923C9F3940F511DA3F39150504060
:1035100094F059F0882332F0660F771F881F91507E
:103520005040C1F79E3F51052CF7880F911D96958D
:10353000879597F908955F3FACF0983E9CF0BB27C4
:10354000869577956795B79508F4B1609395C1F71F
:10355000BB0F58F711F460FFE8CF6F5F7F4F8F4FBD
:103560009F4FE3CF0C94441916F00C94381B0C9425
:10357000EF1868940C94E9180E942919A8F399236C
:10358000C1F3AEF3DF93CF931F930F93FF92C92F35
:10359000DD2788232AF02197660F771F881FDAF727
:1035A00020E030E040E85FEB9FE3883920F0803E88
:1035B00038F021968F770E943217E2EEF0E004C0D7
:1035C0000E943217EFE0F1E00E944B1A8B01BE011E
:1035D000EC01FB2E6F5771097595771F880B990BBE
:1035E0000E944C1828E132E741E35FE30E94621930
:1035F000AF2D9801AE01FF900F911F91CF91DF91F8
:103600000E9449170C941019FA01DC01AA0FBB1F84
:103610009B01AC01BF5728F4222733274427507859
:1036200020C0B75190F4AB2F0024469537952795CD
:10363000011CA395D2F3002071F0220F331F441F09
:10364000B395DAF30ED00C94311761307105A0E810
:103650008A07B94630F49B01AC0166277727882793
:103660009078309621F020833183428353830895EC
:103670009F3F31F0915020F4879577956795B795E6
:10368000880F911D9695879597F90895DB018F9383
:103690009F930E94921BBF91AF91A29F800D911D9D
:1036A000A39F900DB29F900D1124089597FB072EB4
:1036B00016F4009407D077FD09D00E942A1D07FC5C
:1036C00005D03EF4909581959F4F08957095619532
:1036D0007F4F0895A1E21A2EAA1BBB1BFD010DC04E
:1036E000AA1FBB1FEE1FFF1FA217B307E407F507B2
:1036F00020F0A21BB30BE40BF50B661F771F881F8E
:10370000991F1A9469F760957095809590959B0123
:10371000AC01BD01CF010895EE0FFF1F0590F4919C
:10372000E02D09940E943E1DA59F900DB49F900D21
:10373000A49F800D911D11240895B7FF0C94921B36
:103740000E94921B821B930B0895DF93CF931F93CC
:103750000F939A9DF02D219FF00D8B9DF00D8A9D6A
:10376000E02DF10D039FF00D029FE00DF11D4E9D28
:10377000E00DF11D5E9DF00D4F9DF00D7F936F9359
:10378000BF92AF925F934F93D5010E943E1D8B0174
:10379000AC01D7010E943E1DEB01E80FF91FD601D5
:1037A0000E94F51B2F913F91D6010E943E1DC60F2E
:1037B000D71FE81FF91FAF91BF910E94F51B2F91F2
:1037C0003F910E943E1DC60FD71FE81FF91FD6016B
:1037D0000E943E1DE60FF71F9801BE01CF01112484
:1037E0000F911F91CF91DF9108950E943E1D460FCA
:1037F000571FC81FD91F08F431960895689401C057
:10380000E894F92FF12B12F00C94321CA0E0B0E0F8
:10381000ECE0FCE10C94A41C092E059422F40E9417
:103820008E1C112392F4F0E80F26FFEFE094F09441
:1038300000951095B094C094D094A194BF0ACF0A7B
:10384000DF0AEF0AFF0A0F0B1F0B0E943D1C07FC4B
:103850000E948E1CCDB7DEB7ECE00C94C01C6894BF
:1038600001C0E8948F929F92CF93DF930E943D1CFA
:10387000DF91CF919F908F90089588249924F4012F
:10388000E401B0E49F93AA279A158B049C04ED05EC
:10389000FE05CF05D007A10798F4AD2FDC2FCF2F61
:1038A000FE2FE92D982C892E982F872F762F652FA4
:1038B000542F432F322F2227B85031F7BF9127C002
:1038C0001B2EBF91BB27220F331F441F551F661F9E
:1038D000771F881F991F881C991CEE1FFF1FCC1F84
:1038E000DD1FAA1FBB1F8A149B04EC05FD05CE0536
:1038F000DF05A007B10748F08A189B08EC09FD090D
:10390000CE09DF09A00BB10B21601A94E1F62EF469
:103910009401AF01BE01CD01000C08956095709532
:103920008095909530954095509521953F4F4F4FFC
:103930005F4F6F4F7F4F8F4F9F4F08952F923F9252
:103940004F925F926F927F928F929F92AF92BF92AF
:10395000CF92DF92EF92FF920F931F93CF93DF935B
:10396000CDB7DEB7CA1BDB0B0FB6F894DEBF0FBEB8
:10397000CDBF09942A88398848885F846E847D8405
:103980008C849B84AA84B984C884DF80EE80FD8007
:103990000C811B81AA81B981CE0FD11D0FB6F8947D
:1039A000DEBF0FBECDBFED0108950F93083090F03C
:1039B000982F872F762F652F542F432F322F2227B2
:1039C0000850F4CF220F331F441F551F661F771F67
:1039D000881F991F0A95B2F70F91089597FB10F869
:1039E000169400080F93083098F00850232F342FB6
:1039F000452F562F672F782F892F902DF4CF0594C0
:103A00009795879577956795579547953795279516
:103A10000A95AAF70F9108952A0D3B1D4C1D5D1DB7
:103A20006E1D7F1D801F911F08952A193B094C09A7
:103A30005D096E097F09800B910B08950024A7FD95
:103A400000942A1730054005500560057005800573
:103A500090050895AA1BBB1B51E107C0AA1FBB1FFD
:103A6000A617B70710F0A61BB70B881F991F5A950A
:103A7000A9F780959095BC01CD010895A29FB00152
:103A8000B39FC001A39F700D811D1124911DB29F92
:103A9000700D811D1124911D089581E090E0F8942E
:103AA0000C94521D10E0C6EED0E004C0FE010E944E
:0E3AB0008C1B2196C73ED107C9F7F894FFCFB3
:103ABE0000000000BD063906860664067806040777
:103ACE00000000008908590851083D082E082D08ED
:103ADE00000000006E073906C207DA0755076D07AA
:103AEE002140414C542300214042415223002140A9
:103AFE0054485223004750524D43002140475053E3
:103B0E0023004750474741000D0A006E616E006961
:083B1E006E66006F7666000080
:00000001FF
