:100000000C94E7000C940F010C940F010C94620CFB
:100010000C94620C0C94620C0C940F010C940F0164
:100020000C940F010C940F010C940F010C940F0110
:100030000C940F010C940F010C940F010C940F0100
:100040000C94180C0C940F010C940B0B0C94E50AF7
:100050000C940F010C940F010C940F010C940F01E0
:100060000C94F60C0C940F01B514CF14E414FF1487
:100070000A1548154F155915641573157315731521
:100080007315731573157315731573157315731530
:100090007315731573157315731573157315731520
:1000A0007315731573157315B514CA14CF14E414AE
:1000B000FF140A15251530153B1507634236B79B0B
:1000C000D8A71A39685618AEBAAB558C1D3CB7CCB8
:1000D0005763BD6DEDFD753EF6177231BF00000030
:1000E000803F08000000BE922449123EABAAAA2A13
:1000F000BECDCCCC4C3E00000080BEABAAAAAA3E2E
:1001000000000000BF000000803F00000000000869
:100110004178D3BB4387D1133D190E3CC3BD428206
:10012000AD2B3E68EC8276BED98FE1A93E4C80EFC4
:10013000FFBE01C4FF7F3F00000000000000000080
:10014000240027002A00436F756C64206E6F7420B2
:1001500066696E6420612076616C696420424D504E
:100160003238302073656E736F722C20636865635C
:100170006B20776972696E67210000000008000239
:100180000100000304070000000000000000000060
:100190000000250028002B0000000000230026009E
:1001A00029000404040404040404020202020202FA
:1001B000030303030303010204081020408001022B
:1001C000040810200102040810208216C817112408
:1001D0001FBECFEFD8E0DEBFCDBF11E0A0E0B1E0A1
:1001E000ECE4FCE302C005900D92A836B107D9F704
:1001F00023E0A8E6B1E001C01D92AC3DB207E1F7F3
:1002000010E0C6EED0E004C02197FE010E94531C0E
:10021000C53ED107C9F70E94A30E0C94191E0C9479
:1002200000009091BD019111FCCF91E09093BD0130
:100230009093BC012FEF2093BB011092BA01260FBF
:100240002093B9019093980190919801880F892B80
:100250008093980180919701813061F41092970109
:10026000809198018093BB008091BC0083FDF8CF02
:1002700085EC01C085EE8093BC008091BD0181308A
:10028000E1F38091BA01861710F46091BA01A9E9EF
:10029000B1E027E731E0F9018E2F821B861718F4B1
:1002A0008D918193F9CF862F0895009769F0FC0115
:1002B00001900020E9F73197AF01481B590BBC01B1
:1002C00081EE91E00C94640880E090E00895382F6E
:1002D0002091E00190914B03213208F049C08091B8
:1002E000BD018111FCCF42E04093BD013093BC01C0
:1002F0003FEF3093BB011092BA012093B901A0ECFB
:10030000B1E049E951E0FA013E2F341B321718F4ED
:100310003D913193F9CF1092980120919801990F56
:10032000922B9093980190919701913061F41092E3
:100330009701909198019093BB009091BC0093FD20
:10034000F8CF95EC01C095EE9093BC009091BD0163
:100350009230E1F39091BB019F3F79F08091BB0116
:10036000803241F08091BB01803331F084E005C0E0
:1003700081E003C082E001C083E01092BF011092CF
:10038000E0011092BE01089591E09093BE01809328
:100390004B031092BF011092E0010895CF93DF93B9
:1003A000D82FC62F80E60E94C4016D2F8EE792E001
:1003B0000E94B40A6C2F8EE792E00E94B40A81E09A
:1003C000DF91CF910C946701813208F080E2682FB1
:1003D00080E60E94110110927601809375010895C4
:1003E000CF93DF931F92CDB7DEB7682F80E6698386
:1003F0000E94C40169818EE792E00E94B40A80E005
:100400000E94670181E090E00E94E4018EE792E0A3
:100410000E94680A0F90DF91CF91089510927601A3
:10042000109275011092BF011092E0011092BD016F
:1004300081E08093BC011092970161E082E10E940B
:10044000660B61E083E10E94660BE9EBF0E08081DE
:100450008E7F808380818D7F808388E48093B80045
:1004600085E48093BC00089586E20E94F001682F25
:100470006D7F86E20E94CE0186E20E94F001682F25
:10048000626086E20C94CE01CF92DF92EF92FF92EF
:100490001F93CF93DF9380E00E94F00180E00E94E1
:1004A000F00180E60E94C40161E08EE792E00E94C4
:1004B000B40A80E00E94670183E090E00E94E401BA
:1004C000833009F043C08EE792E00E94680AD82F7B
:1004D0008EE792E00E94680A182F8EE792E00E9451
:1004E000680AC82F0E943402812F90E0A0E0B0E09B
:1004F000BA2FA92F982F8827AD2B8C2BC0732C2FA8
:1005000030E0E90134E0D595C7953A95E1F7BC01B3
:10051000CD0146E095958795779567954A95D1F7F2
:100520000E9413196B017C01BE0180E090E00E94E3
:10053000111920E030E040E85EE30E94161A9B01AA
:10054000AC01C701B6010E94F91704C060E070EC6D
:1005500089E794ECDF91CF911F91FF90EF90DF90AE
:10056000CF900895CF92DF92EF92FF920F931F9357
:10057000CF93DF93909129039F3F39F48EBD000004
:100580000DB407FEFDCF8EB544C0E82EC7E0D0E025
:10059000D12C01E010E0DD0C60E0809129030E9485
:1005A000660BB8010C2E01C0660F0A94EAF76E21A3
:1005B000809127030E94660B61E0809129030E94CD
:1005C000660B2091280330E0F901E658FE4F849134
:1005D000F901EA54FE4FC490F901EE55FE4FF49034
:1005E000FF2071F081110E943D0BEF2DF0E0EE0F26
:1005F000FF1FE856FE4FA591B491EC91EC2129F430
:10060000219708F0C8CF8D2D04C08D2D8160D82E84
:10061000F7CFDF91CF911F910F91FF90EF90DF9077
:10062000CF900895613208F060E20E9411011092AB
:10063000760180937501089581E00C946701CF9253
:10064000DF92EF92FF92CF93C82F809126038F3FC6
:10065000C9F580911D030E94C4016C2F8EE792E0C2
:100660000E94B40A0E941C0363E080911D030E9453
:1006700012038EE792E00E94680A6C01990FEE085F
:10068000FF08FE2CED2CDC2CCC248EE792E00E949F
:10069000680AAC01990F660B770BC42AD52AE62AA3
:1006A000F72AFE2CED2CDC2CCC248EE792E00E9465
:1006B000680AAC01990F660B770BC42AD52AE62A83
:1006C000F72A33C0809129038F3F21F482E591E01E
:1006D0000E94F30C60E0809126030E94660B8C2F31
:1006E00080680E94B20280E00E94B202C82ED12C23
:1006F000E12CF12CFE2CED2CDC2CCC2480E00E9493
:10070000B202C82AFE2CED2CDC2CCC2480E00E9406
:10071000B202C82A61E0809126030E94660B809194
:1007200029038F3F11F40E94F20CC701B601CF914B
:10073000FF90EF90DF90CF9008958F929F92AF92AD
:10074000BF92CF92DF92EF92FF928AEF0E941F0337
:10075000EDE1F3E0458556854A01A12CB12CC72E69
:10076000D82EE92EFF24E7FCFA94C818D908EA0825
:10077000FB08DC01CB0137E0B595A79597958795E8
:100780003A95D1F7B501A401440F551F661F771F95
:100790004C015D01841A950AA60AB70AA5019401C5
:1007A000A785B0890E94641C4B015C013BE0B594B5
:1007B000A794979487943A95D1F7A7019601C7011A
:1007C000B6010E940D1C9B01AC016CE0559547954C
:1007D000379527956A95D1F7A189B2890E94641C43
:1007E000DC01CB017EE0B595A795979587957A9525
:1007F000D1F7A5019401280F391F4A1F5B1F2583DC
:10080000368347835087A5E0B0E00E94591CDC0185
:10081000CB0180589F4FAF4FBF4F692F7A2F8B2F3F
:10082000992787FD9A950E94131920E030E048EC43
:1008300052E40E946A18FF90EF90DF90CF90BF9033
:10084000AF909F908F9008952F923F924F925F921A
:100850006F927F928F929F92AF92BF92CF92DF92D0
:10086000EF92FF920F931F93CF93DF93CDB7DEB735
:10087000A2970FB6F894DEBF0FBECDBF0E949D03B6
:1008800087EF0E941F036A8F7B8F8C8F9D8F8091D3
:10089000220390912303A0912403B09125036C01BE
:1008A0007D01FF0CCC08DC2C76019C01AD016C2D88
:1008B0007C2D8C2D9C2D345F4140510961097109BB
:1008C000810991092AA339A349835A836B837C83C5
:1008D0008D839E8359016A017B018C010E946C1CEF
:1008E0002A8B3B8B4C8B5D8B6E8B7F8B888F998F8C
:1008F00080913A038E8FE0913B03EF83F0913803B0
:10090000FF8F809139038887E0913603E8A3F09147
:100910003703F987B0903303A09032031B2D110FDA
:10092000110BC12ED12EE12EF12E012F2AA139A1BA
:1009300049815A816B817C818D819E810E946C1CD2
:100940000CE00E949C1D19012A013B014C01B09052
:100950003503A09034031B2D110F110BC12ED12E86
:10096000E12EF12E012F2A893B894C895D896E8900
:100970007F89888D998D0E946C1C08E00E94B51DAE
:1009800051016201730184010E94D31D70588F4F81
:100990009F4F20903003309031035101C12CD12C56
:1009A000E12CF12C00E010E00E946C1C01E20E949E
:1009B000B51D2A873B874C875D876E877F87888B2D
:1009C000998BA0E00E94E51D09F45EC1AE8C1F81E9
:1009D000110F110BBF80C12ED12EE12EF12E012F50
:1009E0002A893B894C895D896E897F89888D998D9B
:1009F0000E946C1C19012A013B014C01AF8C188527
:100A0000110F110BB884C12ED12EE12EF12E012F22
:100A10002AA139A149815A816B817C818D819E8176
:100A20000E946C1C01E10E949C1D59016A017B011E
:100A30008C019101A201B301C4010E94D31D1901CF
:100A40002A013B014C014A8D5B8D6C8D7D8D84E0CC
:100A500075956795579547958A95D1F780E090E011
:100A6000A0E1B0E0841B950BA60BB70B6C017D01D8
:100A7000FF0CCC08DC2C76019C01AD016C2D7C2D8B
:100A80008C2D9C2D0FE10E949C1DF901B42FA52FE8
:100A90006C837D8389839A8328A19985990F990B0B
:100AA0003985492F592F692F792F892F03E20E9409
:100AB0009C1D59016A017B018C019101A201B301C6
:100AC000C4010E94D31D59016A017B018C019F0161
:100AD0004B2F5A2F6C817D8189819A810E94DC1D68
:100AE0004901542E652EB62FA72FF82FE92F03E0CA
:100AF0000E949C1D5401C52CD62CEB2EFA2E0F2FD4
:100B00001E2F0E94DC1D59016A017B01782E192FCE
:100B100003E00E949C1D072D0E94DC1D03E00E9443
:100B20009C1D5401C52CD62CEB2EFA2E0F2F1E2FF8
:100B30000E94DC1D02E00E949C1D0F2F0E94DC1D04
:100B400001E00E949C1D0F2F0E94DC1DAA84BB8423
:100B5000CC84DD84EE84FF84088919890E94C71C37
:100B600028873F8349835A836B837C838D839E834D
:100B70000DE00E94B51D922E832E742E652E562EEA
:100B8000472E382E292E3091410320914003932F78
:100B9000990F990BA92CB82CC72CD62CE52CF42C2A
:100BA000032D122D492F592F692F792F892F0E943C
:100BB0006C1C0E946C1C09E10E94B51D59016A0160
:100BC0007B018C0128853F8149815A816B817C8121
:100BD0008D819E810E94D31D19012A013B014C0188
:100BE00030913F0320913E03932F990F990BA884D6
:100BF000BF80C980DA80EB80FC800D811E81492F87
:100C0000592F692F792F892F0E946C1C03E10E94B4
:100C1000B51D59016A017B018C019101A201B3014B
:100C2000C4010E94D31D08E00E94B51D522E632E00
:100C3000742E852E962EF72FE82FB92F30913D0375
:100C400020913C03932F990F990B492F592F692F0E
:100C5000792F892F04E00E949C1D59016A017B01B4
:100C60008C01252D362D472D582D692D7F2F8E2F48
:100C70009B2F0E94D31D0E940B1920E030E040E81A
:100C80005BE30E94161A03C060E070E0CB01A296FD
:100C90000FB6F894DEBF0FBECDBFDF91CF911F918D
:100CA0000F91FF90EF90DF90CF90BF90AF909F900B
:100CB0008F907F906F905F904F903F902F9008950E
:100CC00088E591E00C945501CF93DF93C82F809174
:100CD00026038F3F01F580911D030E94C4016C2FF4
:100CE0008EE792E00E94B40A0E941C0362E08091A9
:100CF0001D030E9412038EE792E00E94680AC82F2B
:100D00008EE792E00E94680A20E030E03C2FE90183
:100D1000C82BD92B29C0809129038F3F21F482E56C
:100D200091E00E94F30C60E0809126030E94660B24
:100D30008C2F80680E94B20280E00E94B202C82F0D
:100D400080E00E94B2022C2F30E0322F2227E901EE
:100D5000C82B61E0809126030E94660B80912903D5
:100D60008F3F11F40E94F20C9C2F8D2FDF91CF91B9
:100D700008958F929F92AF92BF920F931F93CF933C
:100D8000DF93CDB7DEB7A1970FB6F894DEBF0FBEE5
:100D9000CDBF19A2423008F44AE08E010F5D1F4F0B
:100DA000842E912CA12CB12CA50194010E94311C00
:100DB000E62FB901CA0101501109EA3014F4E05DCF
:100DC00001C0E95CD801EC93232B242B252B61F780
:100DD000C8010E945501A1960FB6F894DEBF0FBE60
:100DE000CDBFDF91CF911F910F91BF90AF909F909A
:100DF0008F9008954F925F926F927F928F929F9201
:100E0000AF92BF92CF92DF92EF92FF926B017C0183
:100E1000B42E9B01AC010E94D31A882319F08BE5F4
:100E200091E027C026013701E89477F82FEF3FEFD4
:100E30004FE75FE7C301B2010E94D31A81110DC0D1
:100E40002FEF3FEF4FE75FE7C301B2010E94651844
:100E500018161CF48FE591E00CC02FEF3FEF4FE721
:100E60005FE4C701B6010E94111A181684F483E6E4
:100E700091E0FF90EF90DF90CF90BF90AF909F9068
:100E80008F907F906F905F904F900C9455012FEF53
:100E90003FEF4FE75FECC701B6010E94651887FD81
:100EA000E6CF20E030E0A901C701B6010E94651835
:100EB00087FF11C0E091E101F091E2010190F08122
:100EC000E02D6DE281EE91E009954C01F7FAF09486
:100ED000F7F8F09402C0812C912CA12C60E070E016
:100EE00080E09FE3AB1440F420E030E040E251E4C6
:100EF0000E946A18A394F6CF9B01AC01C701B6010A
:100F00000E94F9172B013C010E94DC186B017C0147
:100F10000E9411199B01AC01C301B2010E94F81794
:100F20002B013C014AE0C701B6010E94B9067C01D1
:100F3000E80CF91CBB2069F0E091E101F091E201BD
:100F40000190F081E02D6EE281EE91E00995E80ECE
:100F5000F91EDB2CDD2021F120E030E040E251E4FD
:100F6000C301B2010E94161A2B013C010E94DC1839
:100F70004B01A12CB12C4AE0C501B4010E94B90675
:100F8000E80EF91EC501B4010E9411199B01AC01C4
:100F9000C301B2010E94F8172B013C01DA94DACFA9
:100FA000C701FF90EF90DF90CF90BF90AF909F90E0
:100FB0008F907F906F905F904F9008950C945501A3
:100FC0000F931F93CF93DF93EC0160E070E0CB01B0
:100FD000E99120ED2E0F2A30C0F4AAE0B0E09B0189
:100FE000AC010E94591C0E2FEE0F110B220B330B7C
:100FF000DC01CB01800F911FA21FB31FBC01CD01EB
:101000006053710981099109E3CFDF91CF911F915D
:101010000F9108950F931F93CF93C1E08091FF022A
:101020008D3221F0C0E00FEF12E002C000E013E0CB
:10103000C8010E94E0079B01AC01A4E6B0E00E9459
:10104000591CF801DF01219130ED320F3A30D0F315
:101050002E3269F511962C91119730ED320F3A30FE
:1010600030F5022E000C330B205331094AE0429F29
:101070008001439F100D1124012E000C220B330B15
:10108000600F711F821F931F12960C9120ED200F8D
:101090002A3068F4002E000C110B00531109012EA8
:1010A000000C220B330B600F711F821F931FCC2388
:1010B00039F090958095709561957F4F8F4F9F4F38
:1010C000CF911F910F910895CF92DF92EF92FF92EF
:1010D0000F931F93CF93DF936C017A018B01C0E0D4
:1010E000D0E0CE15DF0589F0D8016D918D01D601D4
:1010F000ED91FC910190F081E02DC6010995892BBD
:1011000011F47E0102C02196ECCFC701DF91CF918F
:101110001F910F91FF90EF90DF90CF900895FC0109
:10112000918D828D981761F0828DDF01A80FB11D1E
:101130005D968C91928D9F5F9F73928F90E0089542
:101140008FEF9FEF0895FC01918D828D981731F0FC
:10115000828DE80FF11D858D90E008958FEF9FEF50
:101160000895FC01918D228D892F90E0805C9F4F26
:10117000821B91098F739927089581EE91E00E9457
:10118000B10821E0892B09F420E0822F0895FC01A9
:10119000848DDF01A80FB11DA35ABF4F2C91848D00
:1011A00090E001968F739927848FA689B7892C9335
:1011B000A089B1898C9180648C93938D848D9813D0
:1011C00006C00288F389E02D80818F7D8083089599
:1011D000EF92FF920F931F93CF93DF93EC0181E087
:1011E000888F9B8D8C8D981305C0E889F989808143
:1011F00085FD24C0F62E0B8D10E00F5F1F4F0F737F
:101200001127E02E8C8DE8120CC00FB607FCFACF28
:10121000E889F989808185FFF5CFCE010E94C70852
:10122000F1CF8B8DFE01E80FF11DE35AFF4FF082E5
:101230000B8FEA89FB898081806207C0EE89FF8974
:101240006083E889F98980818064808381E090E00F
:10125000DF91CF911F910F91FF90EF900895CF9361
:10126000DF93EC01888D8823C9F0EA89FB898081AE
:1012700085FD05C0A889B9898C9186FD0FC00FB680
:1012800007FCF5CF808185FFF2CFA889B9898C91C1
:1012900085FFEDCFCE010E94C708E7CFDF91CF9148
:1012A000089580E090E0892B29F00E94BD0881110B
:1012B0000C94000008953FB7F8948091D803909162
:1012C000D903A091DA03B091DB0326B5A89B05C032
:1012D0002F3F19F00196A11DB11D3FBFBA2FA92FB5
:1012E000982F8827820F911DA11DB11DBC01CD0132
:1012F00042E0660F771F881F991F4A95D1F708951E
:1013000020916A0130916B012817390771F490918F
:10131000680180916901981741F0E0916801F0E05F
:10132000ED56FC4F808190E008958FEF9FEF089578
:1013300008951F93CF93DF93DC015C962D913C9130
:101340005D972115310539F481E090E013969C9367
:101350008E9312973DC05196ED91FC915297509605
:101360009C915097892F80951FB75E964C915E9700
:1013700041FB772770F941FD6095F8944081772310
:1013800011F0492B01C048234083E9012197F1F76F
:1013900048E0508160FF02C0592B01C058235083A0
:1013A000E9012197F1F76695415099F7772321F0EC
:1013B00090818923808303C08081982B90831FBFF5
:1013C0005C968D919C915D970197F1F721E030E05B
:1013D000C901DF91CF911F91089520916A01309149
:1013E0006B012817390771F4809169012091680118
:1013F00090E0805C9F4F821B910960E470E00E9446
:101400001D1C089580E090E0089520916A013091BC
:101410006B0128173907B9F490916801809169012F
:10142000981789F0E0916801F0E0ED56FC4F80815B
:101430002091680130E02F5F3F4F2F7333272093B7
:10144000680190E008958FEF9FEF089585ED8093F8
:10145000BC008091BC0084FDFCCF1092BD010895BA
:1014600040916E03262F30E0240F311D21323105CB
:10147000DCF42091BD012430C9F4FC0180E090E04F
:10148000861758F430916E032191DC01A45BBC4FA8
:10149000A30FB11D2C930196F3CF80916E03680FBB
:1014A00060936E0380E0089581E0089582E00895DE
:1014B0000895E091760180917501E81730F4F0E02D
:1014C000E958FE4F808190E008958FEF9FEF0895D7
:1014D0009091760180917501981750F4E92FF0E012
:1014E000E958FE4F208130E09F5F9093760102C063
:1014F0002FEF3FEFC90108958091750190E0209191
:101500007601821B91090895CF92DF92EF92FF92AC
:101510000F931F93CF93DF937C01262F972F8A0180
:101520008091BE01882391F0C62FD72F6E01C40E83
:10153000D51ECC15DD0571F06991D701ED91FC91B7
:101540000190F081E02DC7010995F3CF642F822F20
:101550000E94300AC801DF91CF911F910F91FF9037
:10156000EF90DF90CF900895CF93DF931F92CDB788
:10157000DEB769832091BE012223D1F02091E001E2
:10158000203240F021E030E0FC013383228380E010
:1015900090E015C08091BF01E82FF0E0E054FE4FCD
:1015A000998190838F5F8093BF018093E00105C094
:1015B00061E0CE0101960E94300A81E090E00F9038
:1015C000DF91CF9108950E94141E1F920F920FB6C3
:1015D0000F9211242F933F934F935F936F937F93B9
:1015E0008F939F93AF93BF93EF93FF9381EE91E01F
:1015F0000E94C708FF91EF91BF91AF919F918F918A
:101600007F916F915F914F913F912F910F900FBEFE
:101610000F901F9018951F920F920FB60F921124E2
:101620002F938F939F93EF93FF93E091F101F091AC
:10163000F2018081E091F701F091F80182FD12C082
:1016400090818091FA018F5F8F732091FB01821747
:1016500051F0E091FA01F0E0EF51FE4F958F809349
:10166000FA0101C08081FF91EF919F918F912F919D
:101670000F900FBE0F901F901895833081F028F4C3
:10168000813099F08230A1F008958730A9F0883038
:10169000B9F08430D1F4809180008F7D03C08091B7
:1016A00080008F7780938000089584B58F7702C083
:1016B00084B58F7D84BD08958091B0008F7703C07D
:1016C0008091B0008F7D8093B00008951F93CF93D9
:1016D000DF93282F30E0F901E658FE4F8491F9019D
:1016E000EA54FE4FD491F901EE55FE4FC491CC233C
:1016F000C9F0162F81110E943D0BEC2FF0E0EE0F88
:10170000FF1FE257FE4FA591B4918FB7F8941111C6
:1017100005C09C91ED2FE095E92302C0EC91ED2BE3
:10172000EC938FBFDF91CF911F910895CF93DF93FB
:1017300090E0FC01EA54FE4F2491FC01EE55FE4F6F
:101740008491882361F190E0880F991FFC01E45C8B
:10175000FE4FC591D491FC01E257FE4FA591B49183
:10176000611109C09FB7F8948881209582238883EE
:10177000EC912E230BC0623061F49FB7F89438814E
:10178000822F809583238883EC912E2B2C939FBFEF
:1017900006C08FB7F894E8812E2B28838FBFDF9186
:1017A000CF9108958F929F92AF92BF92CF92DF9286
:1017B000EF92FF926B017C010E945B094B015C017F
:1017C000C114D104E104F104F1F00E945B09DC01D1
:1017D000CB0188199909AA09BB09883E9340A10544
:1017E000B10570F321E0C21AD108E108F10888EED2
:1017F000880E83E0981EA11CB11CC114D104E10421
:10180000F10419F7DDCFFF90EF90DF90CF90BF90FC
:10181000AF909F908F9008952FB7F8946091D40364
:101820007091D5038091D6039091D7032FBF08956F
:101830001F920F920FB60F9211242F933F938F9305
:101840009F93AF93BF938091D4039091D503A091C0
:10185000D603B091D7033091D30323E0230F2D3764
:1018600020F40196A11DB11D05C026E8230F0296A4
:10187000A11DB11D2093D3038093D4039093D5036E
:10188000A093D603B093D7038091D8039091D90346
:10189000A091DA03B091DB030196A11DB11D8093E5
:1018A000D8039093D903A093DA03B093DB03BF91DD
:1018B000AF919F918F913F912F910F900FBE0F90FD
:1018C0001F9018951F920F920FB60F9211242F930D
:1018D0003F934F935F936F937F938F939F93AF93B8
:1018E000BF93EF93FF93E0916A01F0916B01309702
:1018F00009F451C0968DA685B785858591FF04C0F2
:101900009C91892329F447C09C91892309F043C005
:10191000A389B4899C918589809589238C93868934
:1019200097890197F1F7608D718DA685B7855585EB
:1019300038E020E0CB010197F1F7822F90E09595F8
:101940008795282F4C91452309F02068315091F755
:10195000868D81FD20958091690190E001968F73BD
:10196000992730916801381749F0A0916901B0E0DA
:10197000AD56BC4F2C938093690103C0868D816066
:10198000868F828D938D0197F1F7A389B4899C91FD
:101990008589892B8C93FF91EF91BF91AF919F9196
:1019A0008F917F916F915F914F913F912F910F9008
:1019B0000FBE0F901F901895E0916A01F0916B0196
:1019C000E817F90769F4A389B4899C918589809502
:1019D00089238C9310926B0110926A0181E0089523
:1019E00080E0089508958CBD9DBD08951F920F92CB
:1019F0000FB60F9211242F933F934F935F936F93E2
:101A00007F938F939F93AF93BF93EF93FF938091B7
:101A1000B900887F803609F49CC068F5883209F4E3
:101A20005BC090F4803109F454C038F4882309F481
:101A3000F6C0883009F44DC0F6C0883109F44CC0B6
:101A4000803209F45DC0EFC0803409F468C048F406
:101A5000803309F455C0883309F0E5C08093BB0199
:101A6000D8C0803509F44FC0883509F45DC088348A
:101A700009F0D9C0D6C0883909F4C7C0A8F488379E
:101A800009F467C038F4883609F463C0803709F474
:101A900060C0C9C0883809F4B8C0803909F45FC093
:101AA000803809F0C0C05BC0803B09F486C038F4C0
:101AB000803A09F466C0883A09F47FC0B4C0803C1B
:101AC00009F4A7C0883C09F4A4C0883B09F48AC083
:101AD000AAC08091980110C09091BA018091B9017B
:101AE000981770F5E091BA0181E08E0F8093BA01EA
:101AF000F0E0E756FE4F80818093BB0085EC86C006
:101B00008093BB018EC0E091BA0181E08E0F80937B
:101B1000BA018091BB00F0E0E756FE4F80839091C0
:101B2000BA018091B9016EC0E091BA0181E08E0FD7
:101B30008093BA018091BB00F0E0E756FE4F8083AE
:101B40008091BC0181116DC081E08093970184EA8E
:101B500061C083E08093BD0110929203CFCF80914A
:101B60009203803208F051C0E091920381E08E0F21
:101B7000809392038091BB00F0E0EE58FC4F80838D
:101B8000BDCF85EC8093BC001092BD018091920383
:101B9000803230F4E0919203F0E0EE58FC4F108276
:101BA0006091920370E0E0917003F091710382E71D
:101BB00093E009951092920336C084E08093BD01B2
:101BC00010926F0310926E03E0916C03F0916D031D
:101BD000099580916E03811105C081E080936E03A9
:101BE00010924C03E0916F0381E08E0F80936F039E
:101BF000F0E0E45BFC4F80818093BB0090916F0329
:101C000080916E03981708F479CF85E88093BC0023
:101C10000AC085EC8093BC001092BD0104C01092F4
:101C2000BB010E94260AFF91EF91BF91AF919F9156
:101C30008F917F916F915F914F913F912F910F9075
:101C40000FBE0F901F9018954F925F926F927F92E8
:101C50008F929F92AF92BF92CF92DF92EF92FF92BC
:101C6000CF93DF938FEF92E00E94E0072B013C01BE
:101C700024E630E040E050E00E94311C9B01AC01C2
:101C800060EA76E881E090E00E940D1C6B017C0127
:101C9000EFEFF2E0819190ED980F9A30D8F38E3209
:101CA00019F5EF0180E1882E87E2982EA12CB12C46
:101CB000A99180ED8A0F8A30B8F40A2E000CBB0B74
:101CC000D097A50194010E94641CC60ED71EE81E81
:101CD000F91EC501B4012AE030E040E050E00E9466
:101CE000311C49015A01E4CFC701B6016D5F7F4F36
:101CF0008F4F9F4F26E030E040E050E00E94311CC3
:101D000069017A01C301B20124E630E040E050E00D
:101D10000E94311C60E472E48FE090E00E940D1C90
:101D20006C0D7D1D8E1D9F1DDF91CF91FF90EF905B
:101D3000DF90CF90BF90AF909F908F907F906F90EB
:101D40005F904F900895CF93DF931F92CDB7DEB78A
:101D5000789484B5826084BD84B5816084BD85B586
:101D6000826085BD85B5816085BD80916E00816092
:101D700080936E0010928100809181008260809338
:101D8000810080918100816080938100809180003A
:101D90008160809380008091B10084608093B10065
:101DA0008091B00081608093B00080917A0084605F
:101DB00080937A0080917A00826080937A0080918B
:101DC0007A00816080937A0080917A0080688093A5
:101DD0007A001092C1000E940E02E091F101F09190
:101DE000F20182E08083E091F101F091F201108232
:101DF000E091ED01F091EE011082E091EF01F091A0
:101E0000F00180E180831092F901E091F501F091F9
:101E1000F60186E08083E091F301F091F401808186
:101E200080618083E091F301F091F401808188600A
:101E30008083E091F301F091F401808180688083D8
:101E4000E091F301F091F40180818F7D808387E739
:101E500080931D03809126038F3F19F40E940E0288
:101E60004EC061E00E94660B61E0809126030E94F3
:101E7000960B809129038F3F09F034C0FFB6F89488
:101E800080916C01811127C0ECEAF1E08491E0ECD3
:101E9000F1E09491E82FF0E0EE0FFF1FE45CFE4FBD
:101EA000A591B491EC91E92321F461E08AE00E94CC
:101EB000660B61E08AE00E94960B8CB580618CBD58
:101EC0008CB580648CBD61E08DE00E94960B61E072
:101ED0008BE00E94960B80916C018F5F80936C0168
:101EE000FFBE0DC061E00E94960B61E08091270368
:101EF0000E94960B60E0809128030E94960B8091CF
:101F000026038F3FB1F480911D030E94C40160ED50
:101F10008EE792E00E94B40A0E941C0361E0809167
:101F20001D030E9412038EE792E00E94680AF82EB9
:101F30001FC0809129038F3F21F482E591E00E9428
:101F4000F30C60E0809126030E94660B80ED0E94F6
:101F5000B20280E00E94B202F82E61E08091260376
:101F60000E94660B809129038F3F11F40E94F20CAE
:101F700028E5F21288C088E80E94640690932B033B
:101F800080932A038AE80E94640690932D0380932D
:101F90002C038CE80E94640690932F0380932E03F9
:101FA0008EE80E946406909331038093300380E9A9
:101FB0000E946406909333038093320382E90E9467
:101FC0006406909335038093340384E90E94640689
:101FD000909337038093360386E90E9464069093BA
:101FE00039038093380388E90E94640690933B0389
:101FF00080933A038AE90E94640690933D0380939C
:102000003C038CE90E94640690933F0380933E0357
:102010008EE90E946406909341038093400380916F
:1020200026038F3F89F480911D030E94C40164EF51
:102030008EE792E00E94B40A6FE38EE792E00E947E
:10204000B40A0E941C0338C0809129038F3F21F4F9
:1020500082E591E00E94F30C60E0809126030E94EB
:10206000660B84E70E94B2028FE30E94B20261E035
:10207000809126030E94660B809129038F3FE1F433
:102080000E94F20C19C006E411E0F801649161119C
:1020900003C00E9460060FC0E091E101F091E201EF
:1020A0000190F081E02D81EE91E009950F5F1F4FC7
:1020B000892B59F7EECFFFCF0E940E0286E20E94D5
:1020C000F001682F6F7786E20E94CE0186E20E94BF
:1020D000F001682F686386E20E94CE0167E083E129
:1020E0000E94CE011092A5021092A4021092A302A7
:1020F0001092A2021092A1021092A0028EE393E02D
:102100009093A7028093A60290919602963108F0D0
:1021100057C02DE831E03093A1022093A0022CE3B8
:1021200033E03093A3022093A20224E632E03093FE
:10213000A5022093A40220916800983050F031E06D
:102140009E3008F430E081E001C0880F3A95EAF74C
:1021500001C084E0822B80936800983038F09E3074
:1021600040F0963148F020E030E008C02DE630E045
:1021700005C02BE630E002C02CE630E030939E0232
:1021800020939D02983030F481E001C0880F9A9529
:10219000EAF70EC0292F30E09E3018F4285031099C
:1021A00002C02E50310981E001C0880F2A95EAF75C
:1021B00080939F028091A6029091A7020197F1F768
:1021C0008091A4029091A502892B21F180916A014E
:1021D00090916B01F2E08A389F07E1F0009711F0CF
:1021E0000E94DC0C8091A8028E7F8093A80210923E
:1021F0006901109268018AE892E090936B018093E4
:102200006A01E0919D02F0919E02908180919F026F
:10221000892B808358E7252E312C0E940C0C6B01F2
:102220007C010E94240420E030E048EC52E40E944B
:102230006A1820E030EC4DE754E40E946A1821E06F
:102240003EED42E45EE30E94831A9B01AC0160E034
:1022500070E080E89FE30E94F81720E03AE24DE248
:1022600057E40E94161A2091710130917201409139
:102270007301509174010E94F9172B013C01609386
:1022800071017093720180937301909374010E94A5
:10229000440220E836EE45EC57E40E946A182BE52C
:1022A00034ED42E45EE30E94831A9B01AC0160E0DE
:1022B00070E080E89FE30E94F81725EC3AE24DE2D7
:1022C00057E40E94161A20E030E040E752E40E94F2
:1022D000F91720916D0130916E0140916F0150917D
:1022E00070010E94F9174B015C0160936D017093BE
:1022F0006E0180936F01909370010E940C0C24EF8B
:10230000C20E21E0D21EE11CF11CA7019601261B82
:10231000370B480B590BCA01B90111F00E94D20BBF
:1023200031E0231A310809F078CF20E030E040EFA7
:1023300052E4C301B2010E946A1860937101709364
:102340007201809373019093740120E030E040EFBC
:1023500052E4C501B4010E946A1860936D01709344
:102360006E0180936F019093700142E0242E33241C
:1023700033940E940C0C6B017C0180E391E00E947D
:10238000DE070E94240420E030E048EC52E40E9482
:102390006A1820E030EC4DE754E40E946A1821E00E
:1023A0003EED42E45EE30E94831A9B01AC0160E0D3
:1023B00070E080E89FE30E94F81720E03AE24DE2E7
:1023C00057E40E94161A20917101309172014091D8
:1023D0007301509174010E94F81742E050E00E948E
:1023E000FA068CE391E00E94DE070E94440220E896
:1023F00036EE45EC57E40E946A182BE534ED42E4D2
:102400005EE30E94831A9B01AC0160E070E080E80B
:102410009FE30E94F81725EC3AE24DE257E40E9450
:10242000161A20E030E040E752E40E94F9172091AC
:102430006D0130916E0140916F01509170010E94C9
:10244000F81742E050E00E94FA068CE391E00E9407
:10245000DE070E940C0C0E94111920E030E04AE7D0
:1024600054E40E946A1842E050E00E94FA060E947A
:10247000600687E391E00E94DE070E94240420E0CA
:1024800030E048EC52E40E946A1842E050E00E94BA
:10249000FA068CE391E00E94DE070E94440220E0ED
:1024A00030E048EC52E40E946A1842E050E00E949A
:1024B000FA068CE391E00E94DE070E940C0C0E9459
:1024C000111920E030E04AE754E40E946A1842E023
:1024D00050E00E94FA060E9460068EE391E00E949E
:1024E000DE070E949D0342E050E00E94FA068CE362
:1024F00091E00E94DE0780E00E94F00139E5A32E02
:1025000032E0B32E80E00E94F00181FD10C041E076
:10251000A41AB10829F460E070EC89E794EC63C078
:1025200061E070E080E090E00E94D20BEBCF80E6AB
:102530000E94C40164E08EE792E00E94B40A80E049
:102540000E94670182E090E00E94E401823019F766
:102550008EE792E00E94680AB82E8EE792E00E9411
:10256000680A89830E9434028981B7FC04C06B2DFC
:10257000682E712C0FC01B2D00E0F801E80FF11D33
:10258000CF01919581959109692FF82FF07F6F2EDA
:102590007724739470E080E090E00E9413194B015F
:1025A0005C01862D90E024E0959587952A95E1F7CA
:1025B000BC01990F880B990B0E94131920E030E0A1
:1025C00040E85DE30E94161A9B01AC01C501B4010D
:1025D0000E94F917772039F09B01AC0160E070E0B0
:1025E000CB010E94F81742E050E04B015C01C501AD
:1025F000B4010E94FA068CE391E00E94DE070E947B
:102600000C0C0E94111920E030E04AE754E40E94CB
:102610006A1842E050E00E94FA060E946006A12C6F
:102620008AE892E00E94ED09892B09F491C28AE8B8
:1026300092E00E94050AB82E809112039091130334
:10264000A0911403B09115030196A11DB11D8093B3
:10265000120390931303A0931403B093150324E281
:10266000B21609F454C2E09110032B153CF03AE085
:10267000B31679F04DE0B41257C20BC05AE2B5164A
:1026800041F08CE2B81250C28091FD028B258093FC
:10269000FD02EF3008F027C2F0E0E150FD4F10825C
:1026A0008091FE02882309F428C12091FF023FEBAC
:1026B000320F822F022E000C990B363010F4C79780
:1026C00007C02156263018F48755910901C0C097DC
:1026D000282F2295207F309100034FEB430F832F4B
:1026E000032E000C990B463010F4C79707C03156E3
:1026F000363018F48755910901C0C097820F909128
:10270000FD028913F0C080911103882309F4EBC105
:10271000809116039091170301969093170380936D
:1027200016038091F1029091F202A091F302B09110
:10273000F4028093ED029093EE02A093EF02B09327
:10274000F0028091F9029091FA02A091FB02B091FF
:10275000FC028093F5029093F602A093F702B093E7
:10276000F80280910E03882309F464C0813009F0D7
:10277000B6C18091AD029091AE02A091AF02B0912E
:10278000B0028093A9029093AA02A093AB02B093E7
:10279000AC028091B5029091B602A091B702B091BF
:1027A000B8028093B1029093B202A093B302B093A7
:1027B000B4028091BD029091BE02A091BF02B0917F
:1027C000C0028093B9029093BA02A093BB02B09367
:1027D000BC028091C5029091C602A091C702B0913F
:1027E000C8028093C1029093C202A093C302B09327
:1027F000C4028091D5029091D602A091D702B091E7
:10280000D8028093D1029093D202A093D302B093C6
:10281000D4028091DD029091DE02A091DF02B0919E
:10282000E0028093D9029093DA02A093DB02B09386
:10283000DC0255C18091CD029091CE02A091CF02D1
:10284000B091D0028093C9029093CA02A093CB02A8
:10285000B093CC028091AD029091AE02A091AF02F4
:10286000B091B0028093A9029093AA02A093AB0208
:10287000B093AC028091BD029091BE02A091BF02C4
:10288000B091C0028093B9029093BA02A093BB02A8
:10289000B093BC028091C5029091C602A091C7027C
:1028A000B091C8028093C1029093C202A093C30268
:1028B000B093C4028091EB029091EC029093EA02F3
:1028C0008093E9028091E5029091E602A091E702EF
:1028D000B091E8028093E1029093E202A093E302B8
:1028E000B093E402FCC08091180390911903019603
:1028F0009093190380931803F6C090910F039111E0
:102900001CC0AFEFB2E045E451E09D01F9018191B7
:102910009F01882309F4E5C0FA019191AF0189175D
:10292000A9F3E2E5F1E08D91882309F4D9C19191F1
:102930008917C9F320920E03D6C0E0910E03E2304E
:1029400009F4D1C08091FF02882309F4CCC020E2B1
:10295000E29FF0011124E92B3197E932F10508F0EB
:10296000C2C0EC5CFF4F0C94531C0E940A08609399
:10297000AD027093AE028093AF029093B0020E94BA
:102980000C0C6093F1027093F2028093F302909327
:10299000F402A9C091E0813409F07DC07DC00E949D
:1029A000240E6093BD027093BE028093BF02909389
:1029B000C0020E940C0C6093F9027093FA0280939B
:1029C000FB029093FC028FC0833509F08CC080918C
:1029D000BD029091BE02A091BF02B091C002B0951D
:1029E000A095909581959F4FAF4FBF4F8093BD02AB
:1029F0009093BE02A093BF02B093C00274C00E9425
:102A0000240E6093C5027093C6028093C702909310
:102A1000C80269C0873509F066C08091C5029091EF
:102A2000C602A091C702B091C802B095A09590953A
:102A300081959F4FAF4FBF4F8093C5029093C602C1
:102A4000A093C702B093C8024EC00E940A086093C8
:102A5000D5027093D6028093D7029093D80243C0D8
:102A60000E940A086093DD027093DE028093DF0209
:102A70009093E00238C08FEF92E00E94E0076093ED
:102A8000B5027093B6028093B7029093B8022BC040
:102A900091E081330CF490E09093110324C08FEF08
:102AA00092E00E94D21799279093EC028093EB0258
:102AB0001AC00E940A086093E5027093E6028093B0
:102AC000E7029093E8020FC00E940A086093CD02CB
:102AD0007093CE028093CF029093D00204C091E015
:102AE00003C030920E0390E080910F038F5F8093BC
:102AF0000F031092100381E03AE2B31280E080935A
:102B0000FE02992309F48CCDAA24A39489CD1092B6
:102B1000100310920F031092FD0220920E031092E8
:102B2000FE02109211037CCDEE3040F481E08E0F56
:102B300080931003F0E0E150FD4FB0828091FE02DF
:102B400081116ECD8091FD02B826B092FD0268CD54
:102B5000AA2009F4AFC08090B9029090BA02A09068
:102B6000BB02B090BC024090C1025090C202609083
:102B7000C3027090C4028091F5029091F602A09178
:102B8000F702B091F8028F3F9F4FAF4FBF4F11F048
:102B90000E940C0C3FEF831639EC93063AE9A3062A
:102BA0003BE3B30609F49FC0C501B4010E941319A9
:102BB00020E034E244E759E40E946A184B015C01CA
:102BC000C301B2010E94131920E034E244E759E442
:102BD0000E946A182B013C018BE491E00E94DE0701
:102BE00020E030E04AE754E4B401C5010E946518D2
:102BF000882309F482C03A2D2B2D46E050E0B40121
:102C0000832F922F0E94FA068CE391E00E94DE0748
:102C100020E030E04AE754E4B201C3010E946518A5
:102C2000811104C0412C512C612C712C46E050E0E4
:102C3000B201C3010E94FA068CE391E00E94DE0714
:102C40006091E9027091EA026F3F710511F460E052
:102C500070E080E090E04AE00E94B9068CE391E0E9
:102C60000E94DE076091E1027091E2028091E3022E
:102C70009091E4026F3F5FEF75078507950719F4A0
:102C800060E070E0CB014AE00E94B9068CE391E07D
:102C90000E94DE070E940C0C0E94111920E030E017
:102CA0004AE754E40E946A1842E050E00E94FA06A3
:102CB0000E9460060E940C0CE4EFCE0EE1E0DE1EE6
:102CC000E11CF11CA7019601261B370B480B590B81
:102CD000CA01B90111F00E94D20B0E94510949CBDF
:102CE00010920E0300CF412C512C8AE7682E94E4F9
:102CF000792E8BE491E00E94DE07812C912C30E04C
:102D000020E07BCF0F931F931092E4011092E30118
:102D100008EE13E020E030E00093E5011093E601B7
:102D20002093E7013093E80184E091E09093E20181
:102D30008093E10185EC90E09093EE018093ED01AA
:102D400084EC90E09093F0018093EF0180EC90E0B0
:102D50009093F2018093F10181EC90E09093F40163
:102D60008093F30182EC90E09093F6018093F5015B
:102D700086EC90E09093F8018093F7011092FA01AD
:102D80001092FB011092FC011092FD011092810241
:102D90001092800200938202109383022093840297
:102DA0003093850284E191E090937F0280937E02CC
:102DB0008FEF8093260380932703809328038093CB
:102DC00029034FEF5FEFBA014093A9025093AA0283
:102DD0006093AB027093AC021092B1021092B202F7
:102DE0001092B3021092B4028FEF99ECAAE9BBE300
:102DF0008093B9029093BA02A093BB02B093BC0235
:102E00008093C1029093C202A093C302B093C40204
:102E10008093C9029093CA02A093CB02B093CC02D4
:102E20008093D1029093D202A093D302B093D402A4
:102E30008093D9029093DA02A093DB02B093DC0274
:102E40004093E1025093E2026093E3027093E40244
:102E50008FEF90E09093EA028093E9024093ED02B5
:102E60005093EE026093EF027093F0024093F502EC
:102E70005093F6026093F7027093F8021092FD02ED
:102E80001092FE0282E080930E0310920F031092C4
:102E90001003109211031092120310921303109258
:102EA0001403109215031092170310921603109238
:102EB0001903109218031092FF0210928D021092C3
:102EC0008C0200938E0210938F0220939002309315
:102ED000910284E291E090938B0280938A02109297
:102EE000A1021092A0021092A3021092A2021092CC
:102EF000A5021092A4021092A7021092A60260915D
:102F0000A8026E7F6D7F6093A8026695617081E074
:102F1000682783E00E94660B61E083E00E94960BC5
:102F2000E9EBF1E0E491E0939A02E5EAF1E0E49163
:102F3000F0E0EE0FFF1FE257FE4F859194919093C2
:102F40009C0280939B0260E082E00E94960B80913D
:102F5000A80281FD04C061E082E00E94660B82E06D
:102F600080939602E8EBF1E0E491E0939702E4EAC3
:102F7000F1E0E491F0E0EE0FFF1FE856FE4F85917F
:102F8000949190939902809398021F910F910895C4
:102F900084E291E090938B0280938A028AE892E027
:102FA0000C94DC0CFC0188279927E89421912032AD
:102FB000E9F3293010F02E30C8F32B3241F02D32D6
:102FC00039F4689404C00E94F017820F911D21917A
:102FD00020532A30C0F31EF4909581959F4F089599
:102FE0007AE0979F902D879F802D910D1124089551
:102FF0005058BB27AA270E9410180C94D7190E947A
:10300000C91938F00E94D01920F039F49F3F19F403
:1030100026F40C94B6190EF4E095E7FB0C94B01965
:10302000E92F0E94E81958F3BA176207730784075B
:10303000950720F079F4A6F50C940A1A0EF4E095A1
:103040000B2EBA2FA02D0B01B90190010C01CA0162
:10305000A0011124FF27591B99F0593F50F4503E0D
:1030600068F11A16F040A22F232F342F4427585FFF
:10307000F3CF469537952795A795F0405395C9F717
:103080007EF41F16BA0B620B730B840BBAF09150CF
:10309000A1F0FF0FBB1F661F771F881FC2F70EC06E
:1030A000BA0F621F731F841F48F487957795679541
:1030B000B795F7959E3F08F0B0CF9395880F08F02D
:1030C0009927EE0F9795879508950E948C1908F41B
:1030D00081E008950E947E180C94D7190E94D0199F
:1030E00058F00E94C91940F029F45F3F29F00C9470
:1030F000B01951110C940B1A0C94B6190E94E819CE
:1031000068F39923B1F3552391F3951B550BBB2716
:10311000AA2762177307840738F09F5F5F4F220F5B
:10312000331F441FAA1FA9F335D00E2E3AF0E0E852
:1031300032D091505040E695001CCAF72BD0FE2F9C
:1031400029D0660F771F881FBB1F26173707480730
:10315000AB07B0E809F0BB0B802DBF01FF279358E8
:103160005F4F3AF09E3F510578F00C94B0190C94E3
:103170000B1A5F3FE4F3983ED4F3869577956795F5
:10318000B795F7959F5FC9F7880F911D969587951D
:1031900097F90895E1E0660F771F881FBB1F62173C
:1031A00073078407BA0720F0621B730B840BBA0BFA
:1031B000EE1F88F7E09508950E94F01988F09F5758
:1031C00098F0B92F9927B751B0F0E1F0660F771F4B
:1031D000881F991F1AF0BA95C9F714C0B13091F041
:1031E0000E940A1AB1E008950C940A1A672F782FEA
:1031F0008827B85F39F0B93FCCF386957795679506
:10320000B395D9F73EF490958095709561957F4F71
:103210008F4F9F4F089597FB16F40E94B9190C9495
:103220004F19E89409C097FB3EF4909580957095EE
:1032300061957F4F8F4F9F4F9923A9F0F92F96E902
:10324000BB279395F695879577956795B795F11177
:10325000F8CFFAF4BB0F11F460FF1BC06F5F7F4F14
:103260008F4F9F4F16C0882311F096E911C0772326
:1032700021F09EE8872F762F05C0662371F096E82F
:10328000862F70E060E02AF09A95660F771F881FFE
:10329000DAF7880F9695879597F90895E894F92FAE
:1032A00096EBFF2381F0121613061406440B939538
:1032B000F69587957795679557954040FF23B9F721
:1032C0001BC099270895882351F49850D2F7872B73
:1032D000762F652F542F432F322F20E0B1F3121693
:1032E00013061406440B88233AF09A95440F551F91
:1032F000661F771F881FCAF755234AF4440F551FCE
:1033000011F460FF04C06F5F7F4F8F4F9F4F880F96
:103310009695879597F90895990F0008550FAA0B70
:10332000E0E8FEEF16161706E807F907C0F01216D8
:103330001306E407F50798F0621B730B840B950BDB
:1033400039F40A2661F0232B242B252B21F4089530
:103350000A2609F4A140A6958FEF811D811D0895CD
:1033600097F99F6780E870E060E008959FEF80EC38
:1033700008959095809570956095509540953095FD
:1033800021953F4F4F4F5F4F6F4F7F4F8F4F9F4F55
:10339000089500240A9416161706180609060895BB
:1033A00000240A9412161306140605060895092E21
:1033B0000394000C11F4882352F0BB0F40F4BF2B90
:1033C00011F460FF04C06F5F7F4F8F4F9F4F0895D0
:1033D00057FD9058440F551F59F05F3F71F04795C6
:1033E000880F97FB991F61F09F3F79F087950895AB
:1033F000121613061406551FF2CF4695F1DF08C0CA
:10340000161617061806991FF1CF869571056105E6
:1034100008940895E894BB2766277727CB0197F98E
:1034200008950E948C1908F48FEF08950E94291ABC
:103430000C94D7190E94C91938F00E94D01920F0B5
:10344000952311F00C94B0190C94B61911240C9416
:103450000B1A0E94E81970F3959FC1F3950F50E085
:10346000551F629FF001729FBB27F00DB11D639F36
:10347000AA27F00DB11DAA1F649F6627B00DA11DDC
:10348000661F829F2227B00DA11D621F739FB00D82
:10349000A11D621F839FA00D611D221F749F3327F2
:1034A000A00D611D231F849F600D211D822F762F8B
:1034B0006A2F11249F5750409AF0F1F088234AF068
:1034C000EE0FFF1FBB1F661F771F881F91505040D4
:1034D000A9F79E3F510580F00C94B0190C940B1A7B
:1034E0005F3FE4F3983ED4F3869577956795B7955B
:1034F000F795E7959F5FC1F7FE2B880F911D969575
:10350000879597F90895FA01EE0FFF1F3096210570
:103510003105A1F16115710561F48038BFE39B07A6
:1035200049F168949038810561F08038BFEF9B07BE
:1035300041F099234AF5FF3FE1053105210519F1D5
:10354000E8940894E795D901AA2329F4AB2FBE2F5C
:10355000F85FD0F310C0FF5F70F4A695E0F7F7397D
:1035600050F019F0FF3A38F49F779F930DD00F90E9
:1035700007FC9058089546F00C94B61960E070E08E
:1035800080E89FE308954FE79F775F934F933F93C2
:103590002F930E94831B2F913F914F915F910E9427
:1035A000161A0C94E01A0E948C19880B990B089536
:1035B00029F416F00C94B0190C940A1A0C94B6194C
:1035C0000E94F019A8F39638A0F707F80F92E89434
:1035D0002BE33AEA48EB5FE70E942C1A0F920F9216
:1035E0000F924DB75EB70F920E94CB1BEAEBF0E053
:1035F0000E94121B4F915F91EF91FF91E595EE1F95
:10360000FF1F49F0FE57E0684427EE0F441FFA956C
:10361000E1F74195550B0E94451B0F9007FE0C9456
:10362000391B0895DF93CF931F930F93FF92EF926F
:10363000DF927B018C01689406C0DA2EEF010E94B4
:10364000291AFE01E894A59125913591459155914E
:10365000A6F3EF010E941018FE019701A801DA9469
:1036600069F7DF90EF90FF900F911F91CF91DF915D
:1036700008959B01AC0160E070E080E89FE30C944A
:103680006A180C94B0190C94FF1B0E94F019D8F31F
:103690009923C9F3940F511DA3F39150504094F016
:1036A00059F0882332F0660F771F881F91505040E1
:1036B000C1F79E3F51052CF7880F911D9695879570
:1036C00097F908955F3FACF0983E9CF0BB27869534
:1036D00077956795B79508F4B1609395C1F7BB0FDF
:1036E00058F711F460FFE8CF6F5F7F4F8F4F9F4F08
:1036F000E3CF0C940B1A16F00C94FF1B0C94B61924
:1037000068940C94B0190E94F019A8F39923C1F39E
:10371000AEF3DF93CF931F930F93FF92C92FDD2753
:1037200088232AF02197660F771F881FDAF720E099
:1037300030E040E85FEB9FE3883920F0803E38F0CE
:1037400021968F770E94F917E2EEF0E004C00E9404
:10375000F917EFE0F1E00E94121B8B01BE01EC01B2
:10376000FB2E6F5771097595771F880B990B0E9477
:10377000131928E132E741E35FE30E94291AAF2DD4
:103780009801AE01FF900F911F91CF91DF910E94A0
:1037900010180C94D719FA01DC01AA0FBB1F9B016A
:1037A000AC01BF5728F4222733274427507820C084
:1037B000B75190F4AB2F0024469537952795011CFF
:1037C000A395D2F3002071F0220F331F441FB3954D
:1037D000DAF30ED00C94F81761307105A0E88A076F
:1037E000B94630F49B01AC0166277727882790788B
:1037F000309621F0208331834283538308959F3F85
:1038000031F0915020F4879577956795B795880F9B
:10381000911D9695879597F90895DB018F939F9356
:103820000E94591CBF91AF91A29F800D911DA39F33
:10383000900DB29F900D1124089597FB072E16F45A
:10384000009407D077FD09D00E94F11D07FC05D038
:103850003EF4909581959F4F0895709561957F4FA7
:103860000895A1E21A2EAA1BBB1BFD010DC0AA1FC1
:10387000BB1FEE1FFF1FA217B307E407F50720F0D9
:10388000A21BB30BE40BF50B661F771F881F991F54
:103890001A9469F760957095809590959B01AC019D
:1038A000BD01CF010895EE0FFF1F0590F491E02DAB
:1038B00009940E94051EA59F900DB49F900DA49F92
:1038C000800D911D11240895B7FF0C94591C0E947E
:1038D000591C821B930B0895DF93CF931F930F9373
:1038E0009A9DF02D219FF00D8B9DF00D8A9DE02D6E
:1038F000F10D039FF00D029FE00DF11D4E9DE00DB7
:10390000F11D5E9DF00D4F9DF00D7F936F93BF9263
:10391000AF925F934F93D5010E94051E8B01AC01BE
:10392000D7010E94051EEB01E80FF91FD6010E9486
:10393000BC1C2F913F91D6010E94051EC60FD71FB8
:10394000E81FF91FAF91BF910E94BC1C2F913F91BE
:103950000E94051EC60FD71FE81FF91FD6010E943F
:10396000051EE60FF71F9801BE01CF0111240F912C
:103970001F91CF91DF9108950E94051E460F571F9A
:10398000C81FD91F08F431960895689401C0E894BF
:10399000F92FF12B12F00C94F91CA0E0B0E0E3ED4C
:1039A000FCE10C946B1D092E059422F40E94551D18
:1039B000112392F4F0E80F26FFEFE094F0940095C5
:1039C0001095B094C094D094A194BF0ACF0ADF0A96
:1039D000EF0AFF0A0F0B1F0B0E94041D07FC0E9439
:1039E000551DCDB7DEB7ECE00C94871D689401C07F
:1039F000E8948F929F92CF93DF930E94041DDF91F2
:103A0000CF919F908F90089588249924F401E40128
:103A1000B0E49F93AA279A158B049C04ED05FE053C
:103A2000CF05D007A10798F4AD2FDC2FCF2FFE2FA5
:103A3000E92D982C892E982F872F762F652F542FBC
:103A4000432F322F2227B85031F7BF9127C01B2EAA
:103A5000BF91BB27220F331F441F551F661F771FBF
:103A6000881F991F881C991CEE1FFF1FCC1FDD1F8C
:103A7000AA1FBB1F8A149B04EC05FD05CE05DF05BC
:103A8000A007B10748F08A189B08EC09FD09CE0988
:103A9000DF09A00BB10B21601A94E1F62EF494011A
:103AA000AF01BE01CD01000C089560957095809521
:103AB000909530954095509521953F4F4F4F5F4FD2
:103AC0006F4F7F4F8F4F9F4F08952F923F924F928E
:103AD0005F926F927F928F929F92AF92BF92CF929E
:103AE000DF92EF92FF920F931F93CF93DF93CDB7A7
:103AF000DEB7CA1BDB0B0FB6F894DEBF0FBECDBF1F
:103B000009942A88398848885F846E847D848C84EF
:103B10009B84AA84B984C884DF80EE80FD800C81F8
:103B20001B81AA81B981CE0FD11D0FB6F894DEBFDB
:103B30000FBECDBFED0108950F93083090F0982F80
:103B4000872F762F652F542F432F322F222708508F
:103B5000F4CF220F331F441F551F661F771F881F86
:103B6000991F0A95B2F70F91089597FB10F81694D4
:103B700000080F93083098F00850232F342F452F5A
:103B8000562F672F782F892F902DF4CF0594979576
:103B900087957795679557954795379527950A9512
:103BA000AAF70F9108952A0D3B1D4C1D5D1D6E1D3A
:103BB0007F1D801F911F08952A193B094C095D093B
:103BC0006E097F09800B910B08950024A7FD0094D6
:103BD0002A173005400550056005700580059005E1
:103BE0000895AA1BBB1B51E107C0AA1FBB1FA61744
:103BF000B70710F0A61BB70B881F991F5A95A9F796
:103C000080959095BC01CD010895A29FB001B39F0E
:103C1000C001A39F700D811D1124911DB29F700DD5
:103C2000811D1124911D089581E090E0F8940C9479
:103C3000191E10E0C6EED0E004C0FE010E94531C25
:0C3C40002196C73ED107C9F7F894FFCFCA
:103C4C0000000000E8086408B1088F08A3082F09D9
:103C5C0000000000B40A840A7C0A680A590A580A4F
:103C6C000000000099096408ED09050A800998090B
:103C7C002140414C54230021404241522300214019
:103C8C0054485223004750524D4300214047505353
:103C9C0023004750474741000D0A006E616E0069D2
:083CAC006E66006F76660000F1
:107E0000112484B714BE81FFF0D085E080938100F7
:107E100082E08093C00088E18093C10086E0809377
:107E2000C20080E18093C4008EE0C9D0259A86E02C
:107E300020E33CEF91E0309385002093840096BBD3
:107E4000B09BFECF1D9AA8958150A9F7CC24DD24C4
:107E500088248394B5E0AB2EA1E19A2EF3E0BF2EE7
:107E6000A2D0813461F49FD0082FAFD0023811F036
:107E7000013811F484E001C083E08DD089C08234E0
:107E800011F484E103C0853419F485E0A6D080C0E4
:107E9000853579F488D0E82EFF2485D0082F10E0AE
:107EA000102F00270E291F29000F111F8ED06801E7
:107EB0006FC0863521F484E090D080E0DECF843638
:107EC00009F040C070D06FD0082F6DD080E0C81688
:107ED00080E7D80618F4F601B7BEE895C0E0D1E017
:107EE00062D089930C17E1F7F0E0CF16F0E7DF06D8
:107EF00018F0F601B7BEE89568D007B600FCFDCFD4
:107F0000A601A0E0B1E02C9130E011968C91119780
:107F100090E0982F8827822B932B1296FA010C0160
:107F200087BEE89511244E5F5F4FF1E0A038BF0790
:107F300051F7F601A7BEE89507B600FCFDCF97BE46
:107F4000E89526C08437B1F42ED02DD0F82E2BD052
:107F50003CD0F601EF2C8F010F5F1F4F84911BD097
:107F6000EA94F801C1F70894C11CD11CFA94CF0C13
:107F7000D11C0EC0853739F428D08EE10CD085E9AC
:107F80000AD08FE07ACF813511F488E018D01DD067
:107F900080E101D065CF982F8091C00085FFFCCF94
:107FA0009093C60008958091C00087FFFCCF809118
:107FB000C00084FD01C0A8958091C6000895E0E648
:107FC000F0E098E1908380830895EDDF803219F02E
:107FD00088E0F5DFFFCF84E1DECF1F93182FE3DFCA
:107FE0001150E9F7F2DF1F91089580E0E8DFEE27F6
:047FF000FF270994CA
:027FFE00040479
:0400000300007E007B
:00000001FF
