:100000000C94BD000C94E5000C94E5000C94E50004
:100010000C94E5000C94E5000C94E5000C94E500CC
:100020000C94E5000C94E5000C94E5000C94E500BC
:100030000C94E5000C94E5000C94E5000C94E500AC
:100040000C9431060C94E5000C94A6050C948005E4
:100050000C94E5000C94E5000C94E5000C94E5008C
:100060000C947F060C94E50007634236B79BD8A733
:100070001A39685618AEBAAB558C1D3CB7CC5763CD
:10008000BD6DEDFD753EF6177231BF000000803F7B
:1000900008000000BE922449123EABAAAA2ABECD97
:1000A000CCCC4C3E00000080BEABAAAAAA3E000009
:1000B0000000BF000000803F000000000008417801
:1000C000D3BB4387D1133D190E3CC3BD4282AD2B38
:1000D0003E68EC8276BED98FE1A93E4C80EFFFBE30
:1000E00001C4FF7F3F000000000000000000250069
:1000F00028002B0000000000240027002A00436F86
:10010000756C64206E6F742066696E642061207661
:10011000616C696420424D503238302073656E73D3
:100120006F722C20636865636B20776972696E67F4
:10013000210000000000230026002900040404041C
:100140000404040402020202020203030303030381
:10015000010204081020408001020408102001025E
:10016000040810200000000800020100000304073A
:100170000000000000000000500F11241FBECFEF50
:10018000D8E0DEBFCDBF11E0A0E0B1E0E6E1FBE2E8
:1001900002C005900D92A434B107D9F722E0A4E47F
:1001A000B1E001C01D92AA3DB207E1F710E0CDEB2E
:1001B000D0E004C02197FE010E946F15CC3BD1070F
:1001C000C9F70E94BE0B0C9489150C940000CF92C5
:1001D000DF92EF92FF920F931F93CF93DF936C0107
:1001E0007A018B01C0E0D0E0CE15DF0589F0D8019F
:1001F0006D918D01D601ED91FC910190F081E02D82
:10020000C6010995892B11F47E0102C02196ECCF1D
:10021000C701DF91CF911F910F91FF90EF90DF9079
:10022000CF900895FC01918D828D981761F0828D99
:10023000DF01A80FB11D5D968C91928D9F5F9F731A
:10024000928F90E008958FEF9FEF0895FC01918DBC
:10025000828D981731F0828DE80FF11D858D90E029
:1002600008958FEF9FEF0895FC01918D228D892FC6
:1002700090E0805C9F4F821B91098F7399270895AE
:1002800081E092E00E94340121E0892B09F420E012
:10029000822F0895FC01848DDF01A80FB11DA35AA0
:1002A000BF4F2C91848D90E001968F739927848F96
:1002B000A689B7892C93A089B1898C9180648C938D
:1002C000938D848D981306C00288F389E02D808178
:1002D0008F7D80830895EF92FF920F931F93CF93AA
:1002E000DF93EC0181E0888F9B8D8C8D981305C086
:1002F000E889F989808185FD24C0F62E0B8D10E0F8
:100300000F5F1F4F0F731127E02E8C8DE8120CC06A
:100310000FB607FCFACFE889F989808185FFF5CF10
:10032000CE010E944A01F1CF8B8DFE01E80FF11D35
:10033000E35AFF4FF0820B8FEA89FB89808180624C
:1003400007C0EE89FF896083E889F989808180642C
:10035000808381E090E0DF91CF911F910F91FF901A
:10036000EF900895CF93DF93EC01888D8823C9F037
:10037000EA89FB89808185FD05C0A889B9898C91AE
:1003800086FD0FC00FB607FCF5CF808185FFF2CF49
:10039000A889B9898C9185FFEDCFCE010E944A01D1
:1003A000E7CFDF91CF91089580E090E0892B29F08D
:1003B0000E94400181110C9400000895CF93DF93B7
:1003C00090E0FC01E05BFE4F2491FC01E45CFE4FF9
:1003D0008491882361F190E0880F991FFC01EC5013
:1003E000FF4FC591D491FC01E651FF4FA591B49107
:1003F000611109C09FB7F894888120958223888372
:10040000EC912E230BC0623061F49FB7F8943881D1
:10041000822F809583238883EC912E2B2C939FBF72
:1004200006C08FB7F894E8812E2B28838FBFDF9109
:10043000CF9108953FB7F8948091900190919101E8
:10044000A0919201B091930126B5A89B05C02F3FC2
:1004500019F00196A11DB11D3FBFBA2FA92F982FEA
:100460008827820F911DA11DB11DBC01CD0142E065
:10047000660F771F881F991F4A95D1F708958F92AD
:100480009F92AF92BF92CF92DF92EF92FF926B0159
:100490007C010E941A024B015C01C114D104E104E9
:1004A000F104F1F00E941A02DC01CB0188199909CC
:1004B000AA09BB09883E9340A105B10570F321E06C
:1004C000C21AD108E108F10888EE880E83E0981E70
:1004D000A11CB11CC114D104E104F10419F7DDCF52
:1004E000FF90EF90DF90CF90BF90AF909F908F9054
:1004F00008952FB7F89460918C0170918D018091CF
:100500008E0190918F012FBF089585ED8093BC00DF
:100510008091BC0084FDFCCF1092DD0108954091D4
:100520006601262F30E0240F311D21323105DCF425
:100530002091DD012430C9F4FC0180E090E08617B1
:1005400058F4309166012191DC01AC5BBE4FA30FE2
:10055000B11D2C930196F3CF80916601680F6093D3
:10056000660180E0089581E0089582E0089508958D
:10057000E091960180919501E81730F4F0E0E9569A
:10058000FE4F808190E008958FEF9FEF0895909146
:10059000960180919501981750F4E92FF0E0E95603
:1005A000FE4F208130E09F5F9093960102C02FEFB5
:1005B0003FEFC90108958091950190E02091960147
:1005C000821B91090895CF92DF92EF92FF920F93D1
:1005D0001F93CF93DF937C01262F972F8A01809161
:1005E000DE01882391F0C62FD72F6E01C40ED51ED1
:1005F000CC15DD0571F06991D701ED91FC91019069
:10060000F081E02DC7010995F3CF642F822F0E945E
:100610008F02C801DF91CF911F910F91FF90EF9052
:10062000DF90CF900895CF93DF931F92CDB7DEB7C1
:1006300069832091DE012223D1F020910002203233
:1006400040F021E030E0FC013383228380E090E041
:1006500015C08091DF01E82FF0E0E052FE4F998154
:1006600090838F5F8093DF018093000205C061E07B
:10067000CE0101960E948F0281E090E00F90DF9101
:10068000CF9108952F923F924F925F926F927F92F7
:100690008F929F92AF92BF92CF92DF92EF92FF9292
:1006A0000F931F93CF93DF93CDB7DEB7A2970FB60B
:1006B000F894DEBF0FBECDBF0E94370B87EF0E94BC
:1006C000B90A6A8F7B8F8C8F9D8F8091B002909139
:1006D000B102A091B202B091B3026C017D01FF0C96
:1006E000CC08DC2C76019C01AD016C2D7C2D8C2D71
:1006F0009C2D345F414051096109710981099109BB
:100700002AA339A349835A836B837C838D839E8379
:1007100059016A017B018C010E94EA132A8B3B8BF1
:100720004C8B5D8B6E8B7F8B888F998F8091C802ED
:100730008E8FE091C902EF83F091C602FF8F809106
:10074000C7028887E091C402E8A3F091C502F98747
:10075000B090C102A090C0021B2D110F110BC12E31
:10076000D12EE12EF12E012F2AA139A149815A81E2
:100770006B817C818D819E810E94EA130CE00E9436
:100780001A1519012A013B014C01B090C302A09037
:10079000C2021B2D110F110BC12ED12EE12EF12EF5
:1007A000012F2A893B894C895D896E897F89888DD3
:1007B000998D0E94EA1308E00E94331551016201ED
:1007C000730184010E94511570588F4F9F4F2090E4
:1007D000BE023090BF025101C12CD12CE12CF12C72
:1007E00000E010E00E94EA1301E20E9433152A871C
:1007F0003B874C875D876E877F87888B998BA0E0CE
:100800000E94631509F45EC1AE8C1F81110F110B9C
:10081000BF80C12ED12EE12EF12E012F2A893B89D6
:100820004C895D896E897F89888D998D0E94EA1334
:1008300019012A013B014C01AF8C1885110F110BD6
:10084000B884C12ED12EE12EF12E012F2AA139A17B
:1008500049815A816B817C818D819E810E94EA133E
:1008600001E10E941A1559016A017B018C01910175
:10087000A201B301C4010E94511519012A013B01D3
:100880004C014A8D5B8D6C8D7D8D84E075956795EF
:10089000579547958A95D1F780E090E0A0E1B0E0C8
:1008A000841B950BA60BB70B6C017D01FF0CCC08CC
:1008B000DC2C76019C01AD016C2D7C2D8C2D9C2DAA
:1008C0000FE10E941A15F901B42FA52F6C837D83C7
:1008D00089839A8328A19985990F990B3985492F86
:1008E000592F692F792F892F03E20E941A15590178
:1008F0006A017B018C019101A201B301C4010E9434
:10090000511559016A017B018C019F014B2F5A2F10
:100910006C817D8189819A810E945A154901542EEA
:10092000652EB62FA72FF82FE92F03E00E941A1586
:100930005401C52CD62CEB2EFA2E0F2F1E2F0E9401
:100940005A1559016A017B01782E192F03E00E9484
:100950001A15072D0E945A1503E00E941A1554011A
:10096000C52CD62CEB2EFA2E0F2F1E2F0E945A15B7
:1009700002E00E941A150F2F0E945A1501E00E94F2
:100980001A150F2F0E945A15AA84BB84CC84DD84CB
:10099000EE84FF84088919890E94451428873F83C3
:1009A00049835A836B837C838D839E830DE00E94F1
:1009B0003315922E832E742E652E562E472E382EEA
:1009C000292E3091CF022091CE02932F990F990BAF
:1009D000A92CB82CC72CD62CE52CF42C032D122DC9
:1009E000492F592F692F792F892F0E94EA130E94CE
:1009F000EA1309E10E94331559016A017B018C0158
:100A000028853F8149815A816B817C818D819E81BE
:100A10000E94511519012A013B014C013091CD0270
:100A20002091CC02932F990F990BA884BF80C98085
:100A3000DA80EB80FC800D811E81492F592F692FB0
:100A4000792F892F0E94EA1303E10E94331559017F
:100A50006A017B018C019101A201B301C4010E94D2
:100A6000511508E00E943315522E632E742E852EE8
:100A7000962EF72FE82FB92F3091CB022091CA0282
:100A8000932F990F990B492F592F692F792F892F60
:100A900004E00E941A1559016A017B018C01252D81
:100AA000362D472D582D692D7F2F8E2F9B2F0E947D
:100AB00051150E94A31020E030E040E85BE30E9463
:100AC000AE1103C060E070E0CB01A2960FB6F894BF
:100AD000DEBF0FBECDBFDF91CF911F910F91FF9071
:100AE000EF90DF90CF90BF90AF909F908F907F90CE
:100AF0006F905F904F903F902F9008950E948415C3
:100B00001F920F920FB60F9211242F933F934F9382
:100B10005F936F937F938F939F93AF93BF93EF9365
:100B2000FF9381E092E00E944A01FF91EF91BF9113
:100B3000AF919F918F917F916F915F914F913F9175
:100B40002F910F900FBE0F901F9018951F920F922C
:100B50000FB60F9211242F938F939F93EF93FF93D0
:100B6000E0911102F09112028081E0911702F09160
:100B7000180282FD12C0908180911A028F5F8F73DC
:100B800020911B02821751F0E0911A02F0E0EF5F12
:100B9000FD4F958F80931A0201C08081FF91EF91E4
:100BA0009F918F912F910F900FBE0F901F901895CE
:100BB000833081F028F4813099F08230A1F00895DB
:100BC0008730A9F08830B9F08430D1F4809180006A
:100BD0008F7D03C0809180008F778093800008957F
:100BE00084B58F7702C084B58F7D84BD08958091D0
:100BF000B0008F7703C08091B0008F7D8093B000EC
:100C000008951F93CF93DF93282F30E0F901EC591B
:100C1000FE4F8491F901E05BFE4FD491F901E45C51
:100C2000FE4FC491CC23C9F0162F81110E94D80524
:100C3000EC2FF0E0EE0FFF1FE651FF4FA591B491AE
:100C40008FB7F894111105C09C91ED2FE095E92321
:100C500002C0EC91ED2BEC938FBFDF91CF911F91F0
:100C600008951F920F920FB60F9211242F933F9366
:100C70008F939F93AF93BF9380918C0190918D013F
:100C8000A0918E01B0918F0130918B0123E0230F51
:100C90002D3720F40196A11DB11D05C026E8230FB4
:100CA0000296A11DB11D20938B0180938C0190931E
:100CB0008D01A0938E01B0938F018091900190914E
:100CC0009101A0919201B09193010196A11DB11DD6
:100CD0008093900190939101A0939201B09393011E
:100CE000BF91AF919F918F913F912F910F900FBE28
:100CF0000F901F90189508958CBD9DBD08951F926B
:100D00000F920FB60F9211242F933F934F935F933F
:100D10006F937F938F939F93AF93BF93EF93FF93C3
:100D20008091B900887F803609F49CC068F58832CC
:100D300009F45BC090F4803109F454C038F488237E
:100D400009F4F6C0883009F44DC0F6C0883109F4C2
:100D50004CC0803209F45DC0EFC0803409F468C033
:100D600048F4803309F455C0883309F0E5C0809316
:100D7000DB01D8C0803509F44FC0883509F45DC067
:100D8000883409F0D9C0D6C0883909F4C7C0A8F49E
:100D9000883709F467C038F4883609F463C08037AF
:100DA00009F460C0C9C0883809F4B8C0803909F4B2
:100DB0005FC0803809F0C0C05BC0803B09F486C0CA
:100DC00038F4803A09F466C0883A09F47FC0B4C0A8
:100DD000803C09F4A7C0883C09F4A4C0883B09F40E
:100DE0008AC0AAC08091B80110C09091DA018091A8
:100DF000D901981770F5E091DA0181E08E0F8093A8
:100E0000DA01F0E0E754FE4F80818093BB0085EC6F
:100E100086C08093DB018EC0E091DA0181E08E0F05
:100E20008093DA018091BB00F0E0E754FE4F8083AD
:100E30009091DA018091D9016EC0E091DA0181E0F0
:100E40008E0F8093DA018091BB00F0E0E754FE4FF3
:100E500080838091DC0181116DC081E08093B701B6
:100E600084EA61C083E08093DD0110928A01CFCFD4
:100E700080918A01803208F051C0E0918A0181E0BE
:100E80008E0F80938A018091BB00F0E0E659FE4FFF
:100E90008083BDCF85EC8093BC001092DD018091F2
:100EA0008A01803230F4E0918A01F0E0E659FE4F89
:100EB000108260918A0170E0E0916801F09169010F
:100EC0008AE691E0099510928A0136C084E0809309
:100ED000DD011092670110926601E0916401F091CA
:100EE0006501099580916601811105C081E08093BB
:100EF000660110924401E091670181E08E0F8093BA
:100F00006701F0E0EC5BFE4F80818093BB00909125
:100F1000670180916601981708F479CF85E880937E
:100F2000BC000AC085EC8093BC001092DD0104C0B7
:100F30001092DB010E948502FF91EF91BF91AF916A
:100F40009F918F917F916F915F914F913F912F91E1
:100F50000F900FBE0F901F9018959091DD01911189
:100F6000FCCF91E09093DD019093DC012FEF209373
:100F7000DB011092DA01260F2093D9019093B8017A
:100F80009091B801880F892B8093B8018091B701A7
:100F9000813061F41092B7018091B8018093BB0059
:100FA0008091BC0083FDF8CF85EC01C085EE809375
:100FB000BC008091DD018130E1F38091DA01861778
:100FC00010F46091DA01A9EBB1E027E931E0F90111
:100FD0008E2F821B861718F48D918193F9CF862F5F
:100FE0000895382F209100029091D902213208F003
:100FF00049C08091DD018111FCCF42E04093DD01C9
:101000003093DC013FEF3093DB011092DA01209343
:10101000D901A0EEB1E049EB51E0FA013E2F341BBB
:10102000321718F43D913193F9CF1092B801209105
:10103000B801990F922B9093B8019091B70191301C
:1010400061F41092B7019091B8019093BB00909118
:10105000BC0093FDF8CF95EC01C095EE9093BC00D9
:101060009091DD019230E1F39091DB019F3F79F0A7
:101070008091DB01803241F08091DB01803331F0DF
:1010800084E005C081E003C082E001C083E01092EB
:10109000DF01109200021092DE01089591E090931A
:1010A000DE018093D9021092DF01109200020895B0
:1010B000CF93DF93D82FC62F80E60E944E086D2F66
:1010C0008EE992E00E9413036C2F8EE992E00E9459
:1010D000130381E0DF91CF910C94F107813208F086
:1010E00080E2682F80E60E94AD07109296018093FF
:1010F00095010895CF93DF931F92CDB7DEB7682F88
:1011000080E669830E944E0869818EE992E00E9420
:10111000130380E00E94F10781E090E00E946E08D6
:101120008EE992E00E94C7020F90DF91CF9108955F
:1011300010929601109295011092DF011092000218
:101140001092DD0181E08093DC011092B70161E033
:1011500082E10E94010661E083E10E940106E9EB61
:10116000F0E080818E7F808380818D7F808388E422
:101170008093B80085E48093BC000895009769F0DF
:10118000FC0101900020E9F73197AF01481B590B92
:10119000BC0181E092E00C94E70080E090E00895CB
:1011A0008F929F92AF92BF920F931F93CF93DF9333
:1011B000CDB7DEB7A1970FB6F894DEBF0FBECDBF97
:1011C00019A2423008F44AE08E010F5D1F4F842EB1
:1011D000912CA12CB12CA50194010E94B513E62FEE
:1011E000B901CA0101501109EA3014F4E05D01C0EF
:1011F000E95CD801EC93232B242B252B61F7C80144
:101200000E94BE08A1960FB6F894DEBF0FBECDBFF8
:10121000DF91CF911F910F91BF90AF909F908F90D2
:101220000895CF92DF92EF92FF920F931F93CF9387
:10123000DF939091B7029F3F39F48EBD00000DB44B
:1012400007FEFDCF8EB544C0E82EC7E0D0E0D12C1C
:1012500001E010E0DD0C60E08091B7020E94010621
:10126000B8010C2E01C0660F0A94EAF76E21809136
:10127000B5020E94010661E08091B7020E9401065A
:101280002091B60230E0F901EC59FE4F8491F9014A
:10129000E05BFE4FC490F901E45CFE4FF490FF2048
:1012A00071F081110E94D805EF2DF0E0EE0FFF1FC5
:1012B000EE5CFE4FA591B491EC91EC2129F42197BD
:1012C00008F0C8CF8D2D04C08D2D8160D82EF7CFAA
:1012D000DF91CF911F910F91FF90EF90DF90CF9012
:1012E0000895613208F060E20E94AD071092960105
:1012F00080939501089581E00C94F107CF93DF93DB
:10130000C82F8091B4028F3F01F58091AB020E94FB
:101310004E086C2F8EE992E00E9413030E947B0915
:1013200062E08091AB020E9471098EE992E00E9416
:10133000C702C82F8EE992E00E94C70220E030E089
:101340003C2FE901C82BD92B29C08091B7028F3FD0
:1013500021F482E591E00E947C0660E08091B40275
:101360000E9401068C2F80680E94110980E00E9473
:101370001109C82F80E00E9411092C2F30E0322F74
:101380002227E901C82B61E08091B4020E94010686
:101390008091B7028F3F11F40E947B069C2F8D2F06
:1013A000DF91CF9108958F929F92AF92BF92CF928B
:1013B000DF92EF92FF92CF93DF936B017C019B0151
:1013C000AC010E946B12882319F088E391E027C0DA
:1013D00046015701E894B7F82FEF3FEF4FE75FE77B
:1013E000C501B4010E946B1281110DC02FEF3FEFB8
:1013F0004FE75FE7C501B4010E94FD0F18161CF40A
:101400008CE391E00CC02FEF3FEF4FE75FE4C701A3
:10141000B6010E94A911181674F480E491E0DF91DE
:10142000CF91FF90EF90DF90CF90BF90AF909F90C3
:101430008F900C94BE082FEF3FEF4FE75FECC70192
:10144000B6010E94FD0F87FDE8CF20E030E0A90142
:10145000C701B6010E94FD0F87FF11C0E091010294
:10146000F09102020190F081E02D6DE281E092E0C6
:101470000995EC01F7FAF094F7F8F09402C0C0E097
:10148000D0E02AE037ED43EA5BE3C701B6010E94F2
:10149000910F4B015C010E9474106B017C010E9452
:1014A000A9109B01AC01C501B4010E94900F4B0132
:1014B0005C014AE0C701B6010E94D008C80FD91FDD
:1014C000E0910102F09102020190F081E02D6EE2C4
:1014D00081E092E00995C80FD91F20E030E040E29A
:1014E00051E4C501B4010E94AE114B015C010E94A0
:1014F00074106B01E12CF12C4AE0C701B6010E9487
:10150000D008C80FD91FC701B6010E94A9109B01BE
:10151000AC01C501B4010E94900F20E030E040E230
:1015200051E40E94AE110E94741080E090E04AE005
:101530000E94D0088C0F9D1FDF91CF91FF90EF90FC
:10154000DF90CF90BF90AF909F908F9008950C94B4
:10155000BE0886E20E947A08682F6D7F86E20E94AC
:10156000580886E20E947A08682F626086E20C942E
:101570005808CF92DF92EF92FF92CF93C82F8091BD
:10158000B4028F3FC9F58091AB020E944E086C2FC8
:101590008EE992E00E9413030E947B0963E0809130
:1015A000AB020E9471098EE992E00E94C7026C01B1
:1015B000990FEE08FF08FE2CED2CDC2CCC248EE9D4
:1015C00092E00E94C702AC01990F660B770BC42A08
:1015D000D52AE62AF72AFE2CED2CDC2CCC248EE929
:1015E00092E00E94C702AC01990F660B770BC42AE8
:1015F000D52AE62AF72A33C08091B7028F3F21F41B
:1016000082E591E00E947C0660E08091B4020E9435
:1016100001068C2F80680E94110980E00E94110948
:10162000C82ED12CE12CF12CFE2CED2CDC2CCC2462
:1016300080E00E941109C82AFE2CED2CDC2CCC2461
:1016400080E00E941109C82A61E08091B4020E94E2
:1016500001068091B7028F3F11F40E947B06C701FB
:10166000B601CF91FF90EF90DF90CF9008958F92C9
:101670009F92AF92BF92CF92DF92EF92FF928AEF4A
:101680000E94B90AEBEAF2E0458556854A01A12C91
:10169000B12CC72ED82EE92EFF24E7FCFA94C818E7
:1016A000D908EA08FB08DC01CB0137E0B595A7951E
:1016B000979587953A95D1F7B501A401440F551F29
:1016C000661F771F4C015D01841A950AA60AB70AA6
:1016D000A5019401A785B0890E94E2134B015C012A
:1016E0003BE0B594A794979487943A95D1F7A701D6
:1016F0009601C701B6010E94A5139B01AC016CE0E5
:1017000055954795379527956A95D1F7A189B2895F
:101710000E94E213DC01CB017EE0B595A795979579
:1017200087957A95D1F7A5019401280F391F4A1F93
:101730005B1F2583368347835087A5E0B0E00E9476
:10174000D713DC01CB0180589F4FAF4FBF4F692F9C
:101750007A2F8B2F992787FD9A950E94AB1020E056
:1017600030E048EC52E40E940210FF90EF90DF90CE
:10177000CF90BF90AF909F908F900895789484B54C
:10178000826084BD84B5816084BD85B5826085BD7D
:1017900085B5816085BD80916E00816080936E000B
:1017A00010928100809181008260809381008091FD
:1017B00081008160809381008091800081608093AE
:1017C00080008091B10084608093B1008091B0006E
:1017D00081608093B00080917A00846080937A0069
:1017E00080917A00826080937A0080917A00816093
:1017F00080937A0080917A00806880937A001092BA
:10180000C1000E949808E0911102F091120282E05A
:101810008083E0910D02F0910E021082E0910F02A0
:10182000F09110028FEC808310921902E091150262
:10183000F091160286E08083E0911302F091140289
:10184000808180618083E0911302F0911402808195
:1018500088608083E0911302F09114028081806897
:101860008083E0911302F091140280818F7D808348
:1018700087E78093AB028091B4028F3F19F40E94F6
:1018800098084EC061E00E94010661E08091B402B8
:101890000E94DE018091B7028F3F09F034C0FFB68D
:1018A000F89480919401811127C0E6E4F1E08491DD
:1018B000EAE5F1E09491E82FF0E0EE0FFF1FEC5025
:1018C000FF4FA591B491EC91E92321F461E08AE006
:1018D0000E94010661E08AE00E94DE018CB5806111
:1018E0008CBD8CB580648CBD61E08DE00E94DE0112
:1018F00061E08BE00E94DE01809194018F5F809314
:101900009401FFBE0DC061E00E94DE0161E08091A4
:10191000B5020E94DE0160E08091B6020E94DE0105
:101920008091B4028F3FB1F48091AB020E944E08C7
:1019300060ED8EE992E00E9413030E947B0961E052
:101940008091AB020E9471098EE992E00E94C70269
:10195000F82E19C08091B7028F3F21F482E591E003
:101960000E947C0660E08091B4020E94010680ED36
:101970000E94110980E00E941109F82E61E0809117
:10198000B4020E94010628E5F21282C088E80E9493
:101990007E099093B9028093B8028AE80E947E097A
:1019A0009093BB028093BA028CE80E947E099093C8
:1019B000BD028093BC028EE80E947E099093BF0214
:1019C0008093BE0280E90E947E099093C1028093B9
:1019D000C00282E90E947E099093C3028093C202F2
:1019E00084E90E947E099093C5028093C40286E92F
:1019F0000E947E099093C7028093C60288E90E94E4
:101A00007E099093C9028093C8028AE90E947E09E8
:101A10009093CB028093CA028CE90E947E09909336
:101A2000CD028093CC028EE90E947E099093CF0272
:101A30008093CE028091B4028F3F89F48091AB02F3
:101A40000E944E0864EF8EE992E00E9413036FE358
:101A50008EE992E00E9413030E947B0933C08091BB
:101A6000B7028F3F21F482E591E00E947C0660E09E
:101A70008091B4020E94010684E70E9411098FE35D
:101A80000E94110961E08091B4020E9401061AC00F
:101A9000CEEFD0E0FE016491611105C080E291E0DB
:101AA0000E94BE080EC0E0910102F0910202019076
:101AB000F081E02D81E092E009952196892B51F784
:101AC000EDCFFFCF0E94980886E20E947A08682F27
:101AD000606886E20E94580886E20E947A08682FB1
:101AE000686386E20E94580867E083E10E94580814
:101AF0000E9479026B017C0183E291E00E94A70AB7
:101B00000E94420320E030E048EC52E40E940210C0
:101B100020E030EC4DE754E40E94021021E03EED5D
:101B200042E45EE30E941B129B01AC0160E070E0A6
:101B300080E89FE30E94900F20E03AE24DE257E4F4
:101B40000E94AE110E94D30986E391E00E94A70A89
:101B50000E94A90A69E5A62E62E0B62E80E00E94E6
:101B60007A0881FD10C0F1E0AF1AB10829F460E0F5
:101B700070EC89E794EC4DC061E070E080E090E0AB
:101B80000E943F02EBCF80E60E944E0861E08EE9A2
:101B900092E00E94130380E00E94F10783E090E04E
:101BA0000E946E08833019F78EE992E00E94C70206
:101BB000882E8EE992E00E94C702982E8EE992E06C
:101BC0000E94C7025C01D82D20E0C22FBE01692906
:101BD000072E000C880B990B0E94AB102B013C01C7
:101BE000B501772754E0759567955A95E1F7072E6B
:101BF000000C880B990B0E94AB1020E030E040E80D
:101C00005DE30E94AE119B01AC01C301B2010E94D1
:101C1000910F0E94D30986E391E00E94A70A0E94D7
:101C200079020E94A91020E030E04AE754E40E94C3
:101C300002100E94D30980E291E00E94BE088AE26D
:101C400091E00E94A70A0E9442030E94D30986E302
:101C500091E00E94A70A80E00E947A0880E00E943A
:101C60007A0880E60E944E0861E08EE992E00E94C8
:101C7000130380E00E94F10783E090E00E946E0869
:101C8000833009F043C08EE992E00E94C702B82E6B
:101C90008EE992E00E94C702982E8EE992E00E949F
:101CA000C702A82E0E94A90A892D90E0A0E0B0E00A
:101CB000BA2FA92F982F8827AB298A292A2D20737C
:101CC000A22EB12C34E0B594A7943A95E1F7BC016B
:101CD000CD0146E095958795779567954A95D1F71B
:101CE0000E94AB102B013C01B50180E090E00E9406
:101CF000A91020E030E040E85EE30E94AE119B01B5
:101D0000AC01C301B2010E94910F04C060E070EC0D
:101D100089E794EC0E94D30986E391E00E94A70A28
:101D20000E9479020E94A91020E030E04AE754E4C2
:101D30000E9402100E94D30980E291E00E94BE0836
:101D400081E391E00E94A70A0E94370B0E94D30909
:101D500086E391E00E94A70A80E00E947A0899E554
:101D6000A92E92E0B92E80E00E947A0881FD10C071
:101D700031E0A31AB10829F460E070EC89E794EC33
:101D800060C061E070E080E090E00E943F02EBCF35
:101D900080E60E944E0864E08EE992E00E94130300
:101DA00080E00E94F10782E090E00E946E0882309D
:101DB00019F78EE992E00E94C702B82E8EE992E0F0
:101DC0000E94C702682E0E94A90AB7FC03C06B2DAF
:101DD000712C0EC01B2D00E0C801860D911D919540
:101DE00081959109692F482F407F642E7724739441
:101DF00070E080E090E00E94AB104B015C01662D2A
:101E000070E084E0759567958A95E1F7072E000CE0
:101E1000880B990B0E94AB1020E030E040E85DE3B6
:101E20000E94AE119B01AC01C501B4010E94910F4B
:101E3000772039F09B01AC0160E070E0CB010E949B
:101E4000900F4B015C01C501B4010E94D30986E3E8
:101E500091E00E94A70A0E9479020E94A91020E046
:101E600030E04AE754E40E9402100E94D30980E265
:101E700091E00E94BE080E94790258EEC50E53E020
:101E8000D51EE11CF11CA7019601261B370B480B40
:101E9000590BCA01B9010E943F020E94D40128CE09
:101EA000E1E0F2E01382128288EE93E0A0E0B0E07D
:101EB00084839583A683B78324E031E03183208334
:101EC00025EC30E03587248724EC30E037872687FF
:101ED00020EC30E0318B208B21EC30E0338B228BF7
:101EE00022EC30E0358B248B26EC30E0378B268BD0
:101EF000118E128E138E148EEEE9F2E0138212828E
:101F000084839583A683B78384E191E09183808362
:101F1000EBEAF2E08FEF81878287838784870895D9
:101F20005058BB27AA270E94A80F0C946F110E943B
:101F3000611138F00E94681120F039F49F3F19F4C4
:101F400026F40C944E110EF4E095E7FB0C94481126
:101F5000E92F0E94801158F3BA17620773078407AC
:101F6000950720F079F4A6F50C94A2110EF4E095F3
:101F70000B2EBA2FA02D0B01B90190010C01CA0143
:101F8000A0011124FF27591B99F0593F50F4503EEE
:101F900068F11A16F040A22F232F342F4427585FE0
:101FA000F3CF469537952795A795F0405395C9F7F8
:101FB0007EF41F16BA0B620B730B840BBAF09150B0
:101FC000A1F0FF0FBB1F661F771F881FC2F70EC04F
:101FD000BA0F621F731F841F48F487957795679522
:101FE000B795F7959E3F08F0B0CF9395880F08F00E
:101FF0009927EE0F9795879508950E94241108F46C
:1020000081E008950E9416100C946F110E946811CF
:1020100058F00E94611140F029F45F3F29F00C94C0
:10202000481151110C94A3110C944E110E9480116F
:1020300068F39923B1F3552391F3951B550BBB27F7
:10204000AA2762177307840738F09F5F5F4F220F3C
:10205000331F441FAA1FA9F335D00E2E3AF0E0E833
:1020600032D091505040E695001CCAF72BD0FE2F7D
:1020700029D0660F771F881FBB1F26173707480711
:10208000AB07B0E809F0BB0B802DBF01FF279358C9
:102090005F4F3AF09E3F510578F00C9448110C9434
:1020A000A3115F3FE4F3983ED4F386957795679547
:1020B000B795F7959F5FC9F7880F911D96958795FE
:1020C00097F90895E1E0660F771F881FBB1F62171D
:1020D00073078407BA0720F0621B730B840BBA0BDB
:1020E000EE1F88F7E09508950E94881188F09F57A9
:1020F00098F0B92F9927B751B0F0E1F0660F771F2C
:10210000881F991F1AF0BA95C9F714C0B13091F021
:102110000E94A211B1E008950C94A211672F782FAC
:102120008827B85F39F0B93FCCF3869577956795E6
:10213000B395D9F73EF490958095709561957F4F52
:102140008F4F9F4F089597FB16F40E9451110C94E6
:10215000E710E89409C097FB3EF490958095709540
:1021600061957F4F8F4F9F4F9923A9F0F92F96E9E3
:10217000BB279395F695879577956795B795F11158
:10218000F8CFFAF4BB0F11F460FF1BC06F5F7F4FF5
:102190008F4F9F4F16C0882311F096E911C0772307
:1021A00021F09EE8872F762F05C0662371F096E810
:1021B000862F70E060E02AF09A95660F771F881FDF
:1021C000DAF7880F9695879597F90895E894F92F8F
:1021D00096EBFF2381F0121613061406440B939519
:1021E000F69587957795679557954040FF23B9F702
:1021F0001BC099270895882351F49850D2F7872B54
:10220000762F652F542F432F322F20E0B1F3121673
:1022100013061406440B88233AF09A95440F551F71
:10222000661F771F881FCAF755234AF4440F551FAE
:1022300011F460FF04C06F5F7F4F8F4F9F4F880F77
:102240009695879597F90895990F0008550FAA0B51
:10225000E0E8FEEF16161706E807F907C0F01216B9
:102260001306E407F50798F0621B730B840B950BBC
:1022700039F40A2661F0232B242B252B21F4089511
:102280000A2609F4A140A6958FEF811D811D0895AE
:1022900097F99F6780E870E060E008959FEF80EC19
:1022A00008959095809570956095509540953095DE
:1022B00021953F4F4F4F5F4F6F4F7F4F8F4F9F4F36
:1022C000089500240A94161617061806090608959C
:1022D00000240A9412161306140605060895092E02
:1022E0000394000C11F4882352F0BB0F40F4BF2B71
:1022F00011F460FF04C06F5F7F4F8F4F9F4F0895B1
:1023000057FD9058440F551F59F05F3F71F04795A6
:10231000880F97FB991F61F09F3F79F0879508958B
:10232000121613061406551FF2CF4695F1DF08C0AA
:10233000161617061806991FF1CF869571056105C7
:1023400008940895E894BB2766277727CB0197F96F
:1023500008950E94241108F48FEF08950E94C1117E
:102360000C946F110E94611138F00E94681120F0E6
:10237000952311F00C9448110C944E1111240C94D7
:10238000A3110E94801170F3959FC1F3950F50E047
:10239000551F629FF001729FBB27F00DB11D639F17
:1023A000AA27F00DB11DAA1F649F6627B00DA11DBD
:1023B000661F829F2227B00DA11D621F739FB00D63
:1023C000A11D621F839FA00D611D221F749F3327D3
:1023D000A00D611D231F849F600D211D822F762F6C
:1023E0006A2F11249F5750409AF0F1F088234AF049
:1023F000EE0FFF1FBB1F661F771F881F91505040B5
:10240000A9F79E3F510580F00C9448110C94A3113C
:102410005F3FE4F3983ED4F3869577956795B7953B
:10242000F795E7959F5FC1F7FE2B880F911D969555
:10243000879597F90895FA01EE0FFF1F3096210551
:102440003105A1F16115710561F48038BFE39B0787
:1024500049F168949038810561F08038BFEF9B079F
:1024600041F099234AF5FF3FE1053105210519F1B6
:10247000E8940894E795D901AA2329F4AB2FBE2F3D
:10248000F85FD0F310C0FF5F70F4A695E0F7F7395E
:1024900050F019F0FF3A38F49F779F930DD00F90CA
:1024A00007FC9058089546F00C944E1160E070E0DF
:1024B00080E89FE308954FE79F775F934F933F93A3
:1024C0002F930E941B132F913F914F915F910E9478
:1024D000AE110C9478120E942411880B990B089568
:1024E00029F416F00C9448110C94A2110C944E117E
:1024F0000E948811A8F39638A0F707F80F92E89485
:102500002BE33AEA48EB5FE70E94C4110F920F9267
:102510000F924DB75EB70F920E946313E8E6F0E0AA
:102520000E94AA124F915F91EF91FF91E595EE1FE6
:10253000FF1F49F0FE57E0684427EE0F441FFA954D
:10254000E1F74195550B0E94DD120F9007FE0C94A8
:10255000D1120895DF93CF931F930F93FF92EF92C1
:10256000DF927B018C01689406C0DA2EEF010E9495
:10257000C111FE01E894A5912591359145915591A0
:10258000A6F3EF010E94A80FFE019701A801DA94BB
:1025900069F7DF90EF90FF900F911F91CF91DF913E
:1025A00008959B01AC0160E070E080E89FE30C942B
:1025B00002100C9448110C9497130E948811D8F3C0
:1025C0009923C9F3940F511DA3F39150504094F0F7
:1025D00059F0882332F0660F771F881F91505040C2
:1025E000C1F79E3F51052CF7880F911D9695879551
:1025F00097F908955F3FACF0983E9CF0BB27869515
:1026000077956795B79508F4B1609395C1F7BB0FBF
:1026100058F711F460FFE8CF6F5F7F4F8F4F9F4FE8
:10262000E3CF0C94A31116F00C9497130C944E1155
:1026300068940C9448110E948811A8F39923C1F35F
:10264000AEF3DF93CF931F930F93FF92C92FDD2734
:1026500088232AF02197660F771F881FDAF720E07A
:1026600030E040E85FEB9FE3883920F0803E38F0AF
:1026700021968F770E94910FE0E9F0E004C00E945C
:10268000910FEDEBF0E00E94AA128B01BE01EC016C
:10269000FB2E6F5771097595771F880B990B0E9458
:1026A000AB1028E132E741E35FE30E94C111AF2D97
:1026B0009801AE01FF900F911F91CF91DF910E9481
:1026C000A80F0C946F11FA01DC01AA0FBB1F9B012C
:1026D000AC01BF5728F4222733274427507820C065
:1026E000B75190F4AB2F0024469537952795011CE0
:1026F000A395D2F3002071F0220F331F441FB3952E
:10270000DAF30ED00C94900F61307105A0E88A07BF
:10271000B94630F49B01AC0166277727882790786B
:10272000309621F0208331834283538308959F3F65
:1027300031F0915020F4879577956795B795880F7C
:10274000911D9695879597F90895DB018F939F9337
:102750000E94D713BF91AF91A29F800D911DA39F9F
:10276000900DB29F900D11240895A1E21A2EAA1B7C
:10277000BB1BFD010DC0AA1FBB1FEE1FFF1FA21731
:10278000B307E407F50720F0A21BB30BE40BF50B2E
:10279000661F771F881F991F1A9469F760957095B7
:1027A000809590959B01AC01BD01CF0108950E94D9
:1027B0007515A59F900DB49F900DA49F800D911D40
:1027C00011240895B7FF0C94D7130E94D713821BCE
:1027D000930B0895DF93CF931F930F939A9DF02D42
:1027E000219FF00D8B9DF00D8A9DE02DF10D039F33
:1027F000F00D029FE00DF11D4E9DE00DF11D5E9D5F
:10280000F00D4F9DF00D7F936F93BF92AF925F934A
:102810004F93D5010E9475158B01AC01D7010E9421
:102820007515EB01E80FF91FD6010E943A142F919C
:102830003F91D6010E947515C60FD71FE81FF91FDB
:10284000AF91BF910E943A142F913F910E9475154C
:10285000C60FD71FE81FF91FD6010E947515E60F96
:10286000F71F9801BE01CF0111240F911F91CF9145
:10287000DF9108950E947515460F571FC81FD91F75
:1028800008F431960895689401C0E894F92FF12B6B
:1028900012F00C947714A0E0B0E0E1E5F4E10C94C0
:1028A000E914092E059422F40E94D314112392F402
:1028B000F0E80F26FFEFE094F09400951095B094A7
:1028C000C094D094A194BF0ACF0ADF0AEF0AFF0A8E
:1028D0000F0B1F0B0E94821407FC0E94D314CDB76C
:1028E000DEB7ECE00C940515689401C0E8948F9273
:1028F0009F92CF93DF930E948214DF91CF919F909C
:102900008F90089588249924F401E401B0E49F9302
:10291000AA279A158B049C04ED05FE05CF05D00768
:10292000A10798F4AD2FDC2FCF2FFE2FE92D982C87
:10293000892E982F872F762F652F542F432F322FD4
:102940002227B85031F7BF9127C01B2EBF91BB275C
:10295000220F331F441F551F661F771F881F991FA3
:10296000881C991CEE1FFF1FCC1FDD1FAA1FBB1F59
:102970008A149B04EC05FD05CE05DF05A007B10711
:1029800048F08A189B08EC09FD09CE09DF09A00B65
:10299000B10B21601A94E1F62EF49401AF01BE014F
:1029A000CD01000C089560957095809590953095B7
:1029B0004095509521953F4F4F4F5F4F6F4F7F4F41
:1029C0008F4F9F4F08952F923F924F925F926F9239
:1029D0007F928F929F92AF92BF92CF92DF92EF92AF
:1029E000FF920F931F93CF93DF93CDB7DEB7CA1B30
:1029F000DB0B0FB6F894DEBF0FBECDBF09942A885B
:102A0000398848885F846E847D848C849B84AA8402
:102A1000B984C884DF80EE80FD800C811B81AA818F
:102A2000B981CE0FD11D0FB6F894DEBF0FBECDBF5A
:102A3000ED0108950F93083090F0982F872F762F8F
:102A4000652F542F432F322F22270850F4CF220F07
:102A5000331F441F551F661F771F881F991F0A9534
:102A6000B2F70F91089597FB10F8169400080F9392
:102A7000083098F00850232F342F452F562F672FFA
:102A8000782F892F902DF4CF05949795879577957A
:102A9000679557954795379527950A95AAF70F910A
:102AA00008952A0D3B1D4C1D5D1D6E1D7F1D801F51
:102AB000911F08952A193B094C095D096E097F0988
:102AC000800B910B08950024A7FD00942A17300570
:102AD0004005500560057005800590050895EE0FCE
:102AE000FF1F0590F491E02D0994A29FB001B39FC0
:102AF000C001A39F700D811D1124911DB29F700D07
:102B0000811D1124911D089581E090E0F8940C94AA
:062B10008915F894FFCFC7
:102B1600000000006B01E700340112012601B2013A
:102B2600000000001303E302DB02C702B802B7028B
:102B36000D0A002140414C5423002140505253239A
:102B4600002140544D5023006E616E00696E660090
:042B56006F76660030
:107E0000112484B714BE81FFF0D085E080938100F7
:107E100082E08093C00088E18093C10086E0809377
:107E2000C20080E18093C4008EE0C9D0259A86E02C
:107E300020E33CEF91E0309385002093840096BBD3
:107E4000B09BFECF1D9AA8958150A9F7CC24DD24C4
:107E500088248394B5E0AB2EA1E19A2EF3E0BF2EE7
:107E6000A2D0813461F49FD0082FAFD0023811F036
:107E7000013811F484E001C083E08DD089C08234E0
:107E800011F484E103C0853419F485E0A6D080C0E4
:107E9000853579F488D0E82EFF2485D0082F10E0AE
:107EA000102F00270E291F29000F111F8ED06801E7
:107EB0006FC0863521F484E090D080E0DECF843638
:107EC00009F040C070D06FD0082F6DD080E0C81688
:107ED00080E7D80618F4F601B7BEE895C0E0D1E017
:107EE00062D089930C17E1F7F0E0CF16F0E7DF06D8
:107EF00018F0F601B7BEE89568D007B600FCFDCFD4
:107F0000A601A0E0B1E02C9130E011968C91119780
:107F100090E0982F8827822B932B1296FA010C0160
:107F200087BEE89511244E5F5F4FF1E0A038BF0790
:107F300051F7F601A7BEE89507B600FCFDCF97BE46
:107F4000E89526C08437B1F42ED02DD0F82E2BD052
:107F50003CD0F601EF2C8F010F5F1F4F84911BD097
:107F6000EA94F801C1F70894C11CD11CFA94CF0C13
:107F7000D11C0EC0853739F428D08EE10CD085E9AC
:107F80000AD08FE07ACF813511F488E018D01DD067
:107F900080E101D065CF982F8091C00085FFFCCF94
:107FA0009093C60008958091C00087FFFCCF809118
:107FB000C00084FD01C0A8958091C6000895E0E648
:107FC000F0E098E1908380830895EDDF803219F02E
:107FD00088E0F5DFFFCF84E1DECF1F93182FE3DFCA
:107FE0001150E9F7F2DF1F91089580E0E8DFEE27F6
:047FF000FF270994CA
:027FFE00040479
:0400000300007E007B
:00000001FF
