:100000000C94BD000C94E5000C94E5000C94E50004
:100010000C94E5000C94E5000C94E5000C94E500CC
:100020000C94E5000C94E5000C94E5000C94E500BC
:100030000C94E5000C94E5000C94E5000C94E500AC
:100040000C94E9030C94E5000C945E030C943803C3
:100050000C94E5000C94E5000C94E5000C94E5008C
:100060000C9437040C94E50007634236B79BD8A77D
:100070001A39685618AEBAAB558C1D3CB7CC5763CD
:10008000BD6DEDFD753EF6177231BF000000803F7B
:1000900008000000BE922449123EABAAAA2ABECD97
:1000A000CCCC4C3E00000080BEABAAAAAA3E000009
:1000B0000000BF000000803F000000000008417801
:1000C000D3BB4387D1133D190E3CC3BD4282AD2B38
:1000D0003E68EC8276BED98FE1A93E4C80EFFFBE30
:1000E00001C4FF7F3F000000000000000000250069
:1000F00028002B0000000000240027002A00436F86
:10010000756C64206E6F742066696E642061207661
:10011000616C696420424D503238302073656E73D3
:100120006F722C20636865636B20776972696E67F4
:10013000210000000000230026002900040404041C
:100140000404040402020202020203030303030381
:10015000010204081020408001020408102001025E
:10016000040810200000000800020100000304073A
:100170000000000000000000520F11241FBECFEF4E
:10018000D8E0DEBFCDBF11E0A0E0B1E0EAE1FBE2E4
:1001900002C005900D92A034B107D9F722E0A0E487
:1001A000B1E001C01D92A63DB207E1F710E0CDEB32
:1001B000D0E004C02197FE010E947115CC3BD1070D
:1001C000C9F70E94C20B0C948B150C940000CF92BF
:1001D000DF92EF92FF920F931F93CF93DF936C0107
:1001E0007A018B01C0E0D0E0CE15DF0589F0D8019F
:1001F0006D918D01D601ED91FC910190F081E02D82
:10020000C6010995892B11F47E0102C02196ECCF1D
:10021000C701DF91CF911F910F91FF90EF90DF9079
:10022000CF900895FC01918D828D981761F0828D99
:10023000DF01A80FB11D5D968C91928D9F5F9F731A
:10024000928F90E008958FEF9FEF0895FC01918DBC
:10025000828D981731F0828DE80FF11D858D90E029
:1002600008958FEF9FEF0895FC01918D228D892FC6
:1002700090E0805C9F4F821B91098F7399270895AE
:100280008DEF91E00E94340121E0892B09F420E0F8
:10029000822F0895FC01848DDF01A80FB11DA35AA0
:1002A000BF4F2C91848D90E001968F739927848F96
:1002B000A689B7892C93A089B1898C9180648C938D
:1002C000938D848D981306C00288F389E02D808178
:1002D0008F7D80830895EF92FF920F931F93CF93AA
:1002E000DF93EC0181E0888F9B8D8C8D981305C086
:1002F000E889F989808185FD24C0F62E0B8D10E0F8
:100300000F5F1F4F0F731127E02E8C8DE8120CC06A
:100310000FB607FCFACFE889F989808185FFF5CF10
:10032000CE010E944A01F1CF8B8DFE01E80FF11D35
:10033000E35AFF4FF0820B8FEA89FB89808180624C
:1003400007C0EE89FF896083E889F989808180642C
:10035000808381E090E0DF91CF911F910F91FF901A
:10036000EF900895CF93DF93EC01888D8823C9F037
:10037000EA89FB89808185FD05C0A889B9898C91AE
:1003800086FD0FC00FB607FCF5CF808185FFF2CF49
:10039000A889B9898C9185FFEDCFCE010E944A01D1
:1003A000E7CFDF91CF91089580E090E0892B29F08D
:1003B0000E94400181110C9400000895CF93DF93B7
:1003C00090E0FC01E05BFE4F2491FC01E45CFE4FF9
:1003D0008491882361F190E0880F991FFC01EC5013
:1003E000FF4FC591D491FC01E651FF4FA591B49107
:1003F000611109C09FB7F894888120958223888372
:10040000EC912E230BC0623061F49FB7F8943881D1
:10041000822F809583238883EC912E2B2C939FBF72
:1004200006C08FB7F894E8812E2B28838FBFDF9109
:10043000CF9108953FB7F8948091880190918901F8
:10044000A0918A01B0918B0126B5A89B05C02F3FD2
:1004500019F00196A11DB11D3FBFBA2FA92F982FEA
:100460008827820F911DA11DB11DBC01CD0142E065
:10047000660F771F881F991F4A95D1F708958F92AD
:100480009F92AF92BF92CF92DF92EF92FF926B0159
:100490007C010E941A024B015C01C114D104E104E9
:1004A000F104F1F00E941A02DC01CB0188199909CC
:1004B000AA09BB09883E9340A105B10570F321E06C
:1004C000C21AD108E108F10888EE880E83E0981E70
:1004D000A11CB11CC114D104E104F10419F7DDCF52
:1004E000FF90EF90DF90CF90BF90AF909F908F9054
:1004F000089585ED8093BC008091BC0084FDFCCF05
:100500001092D901089540916201262F30E0240F06
:10051000311D21323105DCF42091D9012430C9F498
:10052000FC0180E090E0861758F43091620121913F
:10053000DC01A05CBE4FA30FB11D2C930196F3CF3D
:1005400080916201680F6093620180E0089581E00C
:10055000089582E008950895E091920180919101BB
:10056000E81730F4F0E0ED56FE4F808190E00895FA
:100570008FEF9FEF089590919201809191019817CC
:1005800050F4E92FF0E0ED56FE4F208130E09F5F00
:100590009093920102C02FEF3FEFC901089580911F
:1005A000910190E020919201821B91090895CF92D0
:1005B000DF92EF92FF920F931F93CF93DF937C0113
:1005C000262F972F8A018091DA01882391F0C62F78
:1005D000D72F6E01C40ED51ECC15DD0571F06991C3
:1005E000D701ED91FC910190F081E02DC7010995B3
:1005F000F3CF642F822F0E948302C801DF91CF9135
:100600001F910F91FF90EF90DF90CF900895CF93BF
:10061000DF931F92CDB7DEB769832091DA012223E1
:10062000D1F02091FC01203240F021E030E0FC01CB
:100630003383228380E090E015C08091DB01E82FB6
:10064000F0E0E452FE4F998190838F5F8093DB014D
:100650008093FC0105C061E0CE0101960E948302F7
:1006600081E090E00F90DF91CF9108950E94861570
:100670001F920F920FB60F9211242F933F934F9317
:100680005F936F937F938F939F93AF93BF93EF93FA
:10069000FF938DEF91E00E944A01FF91EF91BF918E
:1006A000AF919F918F917F916F915F914F913F910A
:1006B0002F910F900FBE0F901F9018951F920F92C1
:1006C0000FB60F9211242F938F939F93EF93FF9365
:1006D000E0910D02F0910E028081E0911302F09101
:1006E000140282FD12C09081809116028F5F8F7379
:1006F00020911702821751F0E0911602F0E0E350CA
:10070000FE4F958F8093160201C08081FF91EF917B
:100710009F918F912F910F900FBE0F901F90189562
:10072000833081F028F4813099F08230A1F008956F
:100730008730A9F08830B9F08430D1F480918000FE
:100740008F7D03C0809180008F7780938000089513
:1007500084B58F7702C084B58F7D84BD0895809164
:10076000B0008F7703C08091B0008F7D8093B00080
:1007700008951F93CF93DF93282F30E0F901EC59B0
:10078000FE4F8491F901E05BFE4FD491F901E45CE6
:10079000FE4FC491CC23C9F0162F81110E94900303
:1007A000EC2FF0E0EE0FFF1FE651FF4FA591B49143
:1007B0008FB7F894111105C09C91ED2FE095E923B6
:1007C00002C0EC91ED2BEC938FBFDF91CF911F9185
:1007D00008951F920F920FB60F9211242F933F93FB
:1007E0008F939F93AF93BF9380918D0190918E01D2
:1007F000A0918F01B09190013091870123E0230FE8
:100800002D3720F40196A11DB11D05C026E8230F48
:100810000296A11DB11D2093870180938D019093B5
:100820008E01A0938F01B0939001809188019091E7
:100830008901A0918A01B0918B010196A11DB11D82
:100840008093880190938901A0938A01B0938B01D2
:10085000BF91AF919F918F913F912F910F900FBEBC
:100860000F901F90189508958CBD9DBD08951F92FF
:100870000F920FB60F9211242F933F934F935F93D4
:100880006F937F938F939F93AF93BF93EF93FF9358
:100890008091B900887F803609F49CC068F5883261
:1008A00009F45BC090F4803109F454C038F4882313
:1008B00009F4F6C0883009F44DC0F6C0883109F457
:1008C0004CC0803209F45DC0EFC0803409F468C0C8
:1008D00048F4803309F455C0883309F0E5C08093AB
:1008E000D701D8C0803509F44FC0883509F45DC000
:1008F000883409F0D9C0D6C0883909F4C7C0A8F433
:10090000883709F467C038F4883609F463C0803743
:1009100009F460C0C9C0883809F4B8C0803909F446
:100920005FC0803809F0C0C05BC0803B09F486C05E
:1009300038F4803A09F466C0883A09F47FC0B4C03C
:10094000803C09F4A7C0883C09F4A4C0883B09F4A2
:100950008AC0AAC08091B40110C09091D601809144
:10096000D501981770F5E091D60181E08E0F809344
:10097000D601F0E0EB54FE4F80818093BB0085EC04
:1009800086C08093D7018EC0E091D60181E08E0FA2
:100990008093D6018091BB00F0E0EB54FE4F808342
:1009A0009091D6018091D5016EC0E091D60181E091
:1009B0008E0F8093D6018091BB00F0E0EB54FE4F88
:1009C00080838091D80181116DC081E08093B30153
:1009D00084EA61C083E08093D90110928601CFCF71
:1009E00080918601803208F051C0E091860181E05B
:1009F0008E0F809386018091BB00F0E0EA59FE4F94
:100A00008083BDCF85EC8093BC001092D90180918A
:100A10008601803230F4E0918601F0E0EA59FE4F21
:100A200010826091860170E0E0916401F0916501AF
:100A300086E691E009951092860136C084E08093A5
:100A4000D9011092630110926201E0916001F0916E
:100A50006101099580916201811105C081E0809357
:100A6000620110924001E091630181E08E0F80935A
:100A70006301F0E0E05CFE4F80818093BB009091C9
:100A8000630180916201981708F479CF85E880931B
:100A9000BC000AC085EC8093BC001092D90104C050
:100AA0001092D7010E947902FF91EF91BF91AF910F
:100AB0009F918F917F916F915F914F913F912F9176
:100AC0000F900FBE0F901F9018959091D901911122
:100AD000FCCF91E09093D9019093D8012FEF209310
:100AE000D7011092D601260F2093D5019093B4011F
:100AF0009091B401880F892B8093B4018091B30148
:100B0000813061F41092B3018091B4018093BB00F5
:100B10008091BC0083FDF8CF85EC01C085EE809309
:100B2000BC008091D9018130E1F38091D601861714
:100B300010F46091D601A5EBB1E023E931E0F901B1
:100B40008E2F821B861718F48D918193F9CF862FF3
:100B50000895382F2091FC019091D502213208F0A0
:100B600049C08091D9018111FCCF42E04093D90165
:100B70003093D8013FEF3093D7011092D6012093E4
:100B8000D501ACEDB1E045EB51E0FA013E2F341B4D
:100B9000321718F43D913193F9CF1092B40120919E
:100BA000B401990F922B9093B4019091B3019130BD
:100BB00061F41092B3019091B4019093BB009091B5
:100BC000BC0093FDF8CF95EC01C095EE9093BC006E
:100BD0009091D9019230E1F39091D7019F3F79F044
:100BE0008091D701803241F08091D701803331F07C
:100BF00084E005C081E003C082E001C083E0109280
:100C0000DB011092FC011092DA01089591E09093BB
:100C1000DA018093D5021092DB011092FC01089555
:100C2000CF93DF93D82FC62F80E60E9406066D2F44
:100C30008AE992E00E9407036C2F8AE992E00E9401
:100C4000070381E0DF91CF910C94A905813208F070
:100C500080E2682F80E60E946505109292018093E1
:100C600091010895CF93DF931F92CDB7DEB7682F20
:100C700080E669830E94060669818AE992E00E9403
:100C8000070380E00E94A90581E090E00E9426060B
:100C90008AE992E00E94BB020F90DF91CF91089504
:100CA00010929201109291011092DB011092FC01BE
:100CB0001092D90181E08093D8011092B30161E0D4
:100CC00082E10E94B90361E083E10E94B903E9EB8C
:100CD000F0E080818E7F808380818D7F808388E4B7
:100CE0008093B80085E48093BC000895009769F074
:100CF000FC0101900020E9F73197AF01481B590B27
:100D0000BC018DEF91E00C94E70080E090E0089545
:100D10008F929F92AF92BF920F931F93CF93DF93C7
:100D2000CDB7DEB7A1970FB6F894DEBF0FBECDBF2B
:100D300019A2423008F44AE08E010F5D1F4F842E45
:100D4000912CA12CB12CA50194010E94B713E62F80
:100D5000B901CA0101501109EA3014F4E05D01C083
:100D6000E95CD801EC93232B242B252B61F7C801D8
:100D70000E947606A1960FB6F894DEBF0FBECDBFD7
:100D8000DF91CF911F910F91BF90AF909F908F9067
:100D90000895CF92DF92EF92FF920F931F93CF931C
:100DA000DF939091B3029F3F39F48EBD00000DB4E4
:100DB00007FEFDCF8EB544C0E82EC7E0D0E0D12CB1
:100DC00001E010E0DD0C60E08091B3020E94B90305
:100DD000B8010C2E01C0660F0A94EAF76E218091CB
:100DE000B1020E94B90361E08091B3020E94B9038D
:100DF0002091B20230E0F901EC59FE4F8491F901E3
:100E0000E05BFE4FC490F901E45CFE4FF490FF20DC
:100E100071F081110E949003EF2DF0E0EE0FFF1FA3
:100E2000EE5CFE4FA591B491EC91EC2129F4219751
:100E300008F0C8CF8D2D04C08D2D8160D82EF7CF3E
:100E4000DF91CF911F910F91FF90EF90DF90CF90A6
:100E50000895613208F060E20E94650510929201E7
:100E600080939101089581E00C94A905CF92DF92BF
:100E7000EF92FF92CF93C82F8091B0028F3FC9F5B8
:100E80008091A7020E9406066C2F8AE992E00E94D8
:100E900007030E94330763E08091A7020E9429079D
:100EA0008AE992E00E94BB026C01990FEE08FF08EC
:100EB000FE2CED2CDC2CCC248AE992E00E94BB02B3
:100EC000AC01990F660B770BC42AD52AE62AF72ABC
:100ED000FE2CED2CDC2CCC248AE992E00E94BB0293
:100EE000AC01990F660B770BC42AD52AE62AF72A9C
:100EF00033C08091B3028F3F21F482E591E00E94DC
:100F0000340460E08091B0020E94B9038C2F8068A5
:100F10000E94C90680E00E94C906C82ED12CE12C8F
:100F2000F12CFE2CED2CDC2CCC2480E00E94C90698
:100F3000C82AFE2CED2CDC2CCC2480E00E94C906B3
:100F4000C82A61E08091B0020E94B9038091B30287
:100F50008F3F11F40E943304C701B601CF91FF9077
:100F6000EF90DF90CF900895CF93DF93C82F8091BB
:100F7000B0028F3F01F58091A7020E9406066C2FF8
:100F80008AE992E00E9407030E94330762E08091A1
:100F9000A7020E9429078AE992E00E94BB02C82F9B
:100FA0008AE992E00E94BB0220E030E03C2FE90198
:100FB000C82BD92B29C08091B3028F3F21F482E541
:100FC00091E00E94340460E08091B0020E94B90375
:100FD0008C2F80680E94C90680E00E94C906C82F35
:100FE00080E00E94C9062C2F30E0322F2227E90131
:100FF000C82B61E08091B0020E94B9038091B302D6
:101000008F3F11F40E9433049C2F8D2FDF91CF91DD
:1010100008954F925F926F927F928F929F92AF92BC
:10102000BF92CF92DF92EF92FF926B017C01B42EC0
:101030009B01AC010E946D12882319F084E391E0BA
:1010400027C026013701E89477F82FEF3FEF4FE7ED
:101050005FE7C301B2010E946D1281110DC02FEF35
:101060003FEF4FE75FE7C301B2010E94FF0F181681
:101070001CF488E391E00CC02FEF3FEF4FE75FE4F3
:10108000C701B6010E94AB11181684F48CE391E0FD
:10109000FF90EF90DF90CF90BF90AF909F908F9098
:1010A0007F906F905F904F900C9476062FEF3FEFFC
:1010B0004FE75FECC701B6010E94FF0F87FDE6CF47
:1010C00020E030E0A901C701B6010E94FF0F87FFB1
:1010D00011C0E091FD01F091FE010190F081E02D41
:1010E0006DE28DEF91E009954C01F7FAF094F7F875
:1010F000F09402C0812C912CA12C60E070E080E083
:101100009FE3AB1441F020E030E040E251E40E9464
:101110000410A394F6CF9B01AC01C701B6010E9455
:10112000930F2B013C010E9476106B017C010E9401
:10113000AB109B01AC01C301B2010E94920F2B01C5
:101140003C014AE0C701B6010E9488067C01E80C18
:10115000F91CBB2069F0E091FD01F091FE010190C6
:10116000F081E02D6EE28DEF91E00995E80EF91E19
:10117000DB2CDD2021F120E030E040E251E4C3012E
:10118000B2010E94B0112B013C010E9476104B016C
:10119000A12CB12C4AE0C501B4010E948806E80EDA
:1011A000F91EC501B4010E94AB109B01AC01C30143
:1011B000B2010E94920F2B013C01DA94DACFC701F1
:1011C000FF90EF90DF90CF90BF90AF909F908F9067
:1011D0007F906F905F904F9008950C94760686E212
:1011E0000E943206682F6D7F86E20E94100686E21A
:1011F0000E943206682F626086E20C9410068F927D
:101200009F92AF92BF92CF92DF92EF92FF928AEFBE
:101210000E943607E7EAF2E0458556854A01A12C8F
:10122000B12CC72ED82EE92EFF24E7FCFA94C8185B
:10123000D908EA08FB08DC01CB0137E0B595A79592
:10124000979587953A95D1F7B501A401440F551F9D
:10125000661F771F4C015D01841A950AA60AB70A1A
:10126000A5019401A785B0890E94E4134B015C019C
:101270003BE0B594A794979487943A95D1F7A7014A
:101280009601C701B6010E94A7139B01AC016CE057
:1012900055954795379527956A95D1F7A189B289D4
:1012A0000E94E413DC01CB017EE0B595A7959795EC
:1012B00087957A95D1F7A5019401280F391F4A1F08
:1012C0005B1F2583368347835087A5E0B0E00E94EB
:1012D000D913DC01CB0180589F4FAF4FBF4F692F0F
:1012E0007A2F8B2F992787FD9A950E94AD1020E0C9
:1012F00030E048EC52E40E940410FF90EF90DF9041
:10130000CF90BF90AF909F908F9008952F923F9273
:101310004F925F926F927F928F929F92AF92BF9205
:10132000CF92DF92EF92FF920F931F93CF93DF93B1
:10133000CDB7DEB7A2970FB6F894DEBF0FBECDBF14
:101340000E94FF0887EF0E9436076A8F7B8F8C8F81
:101350009D8F8091AC029091AD02A091AE02B091B0
:10136000AF026C017D01FF0CCC08DC2C76019C01E6
:10137000AD016C2D7C2D8C2D9C2D345F414051098D
:1013800061097109810991092AA339A349835A8303
:101390006B837C838D839E8359016A017B018C0161
:1013A0000E94EC132A8B3B8B4C8B5D8B6E8B7F8B5F
:1013B000888F998F8091C4028E8FE091C502EF8350
:1013C000F091C202FF8F8091C3028887E091C00232
:1013D000E8A3F091C102F987B090BD02A090BC02D1
:1013E0001B2D110F110BC12ED12EE12EF12E012F2D
:1013F0002AA139A149815A816B817C818D819E818D
:101400000E94EC130CE00E941C1519012A013B01FB
:101410004C01B090BF02A090BE021B2D110F110B0A
:10142000C12ED12EE12EF12E012F2A893B894C8924
:101430005D896E897F89888D998D0E94EC1308E003
:101440000E94351551016201730184010E945315F8
:1014500070588F4F9F4F2090BA023090BB025101BD
:10146000C12CD12CE12CF12C00E010E00E94EC13F7
:1014700001E20E9435152A873B874C875D876E877E
:101480007F87888B998BA0E00E94651509F45EC167
:10149000AE8C1F81110F110BBF80C12ED12EE12EFA
:1014A000F12E012F2A893B894C895D896E897F89BC
:1014B000888D998D0E94EC1319012A013B014C0182
:1014C000AF8C1885110F110BB884C12ED12EE12ECF
:1014D000F12E012F2AA139A149815A816B817C818A
:1014E0008D819E810E94EC1301E10E941C1559011F
:1014F0006A017B018C019101A201B301C4010E9428
:10150000531519012A013B014C014A8D5B8D6C8DED
:101510007D8D84E075956795579547958A95D1F7A8
:1015200080E090E0A0E1B0E0841B950BA60BB70B28
:101530006C017D01FF0CCC08DC2C76019C01AD0117
:101540006C2D7C2D8C2D9C2D0FE10E941C15F9011A
:10155000B42FA52F6C837D8389839A8328A19985D5
:10156000990F990B3985492F592F692F792F892F79
:1015700003E20E941C1559016A017B018C01910153
:10158000A201B301C4010E94531559016A017B01F4
:101590008C019F014B2F5A2F6C817D8189819A810B
:1015A0000E945C154901542E652EB62FA72FF82FE7
:1015B000E92F03E00E941C155401C52CD62CEB2EFC
:1015C000FA2E0F2F1E2F0E945C1559016A017B0114
:1015D000782E192F03E00E941C15072D0E945C1520
:1015E00003E00E941C155401C52CD62CEB2EFA2EBC
:1015F0000F2F1E2F0E945C1502E00E941C150F2F5A
:101600000E945C1501E00E941C150F2F0E945C15C2
:10161000AA84BB84CC84DD84EE84FF840889198984
:101620000E94471428873F8349835A836B837C83B6
:101630008D839E830DE00E943515922E832E742E8D
:10164000652E562E472E382E292E3091CB02209112
:10165000CA02932F990F990BA92CB82CC72CD62C02
:10166000E52CF42C032D122D492F592F692F792F9A
:10167000892F0E94EC130E94EC1309E10E9435159A
:1016800059016A017B018C0128853F8149815A817A
:101690006B817C818D819E810E94531519012A01E5
:1016A0003B014C013091C9022091C802932F990F40
:1016B000990BA884BF80C980DA80EB80FC800D8103
:1016C0001E81492F592F692F792F892F0E94EC13E2
:1016D00003E10E94351559016A017B018C019101DA
:1016E000A201B301C4010E94531508E00E94351500
:1016F000522E632E742E852E962EF72FE82FB92F9B
:101700003091C7022091C602932F990F990B492F50
:10171000592F692F792F892F04E00E941C15590138
:101720006A017B018C01252D362D472D582D692D01
:101730007F2F8E2F9B2F0E9453150E94A51020E013
:1017400030E040E85BE30E94B01103C060E070E06D
:10175000CB01A2960FB6F894DEBF0FBECDBFDF91CE
:10176000CF911F910F91FF90EF90DF90CF90BF909E
:10177000AF909F908F907F906F905F904F903F9031
:101780002F900895CF93DF931F92CDB7DEB7789453
:1017900084B5826084BD84B5816084BD85B5826076
:1017A00085BD85B5816085BD80916E008160809327
:1017B0006E00109281008091810082608093810090
:1017C00080918100816080938100809180008160A0
:1017D000809380008091B10084608093B1008091FB
:1017E000B00081608093B00080917A008460809323
:1017F0007A0080917A00826080937A0080917A00EA
:10180000816080937A0080917A00806880937A006A
:101810001092C1000E945006E0910D02F0910E025C
:1018200082E08083E0910902F0910A021082E09147
:101830000B02F0910C028FEC808310921502E09164
:101840001102F091120286E08083E0910F02F09184
:101850001002808180618083E0910F02F09110027C
:10186000808188608083E0910F02F0911002808176
:1018700080688083E0910F02F091100280818F7D5B
:10188000808387E78093A7028091B0028F3F19F48D
:101890000E9450064EC061E00E94B90361E0809151
:1018A000B0020E94DE018091B3028F3F09F034C084
:1018B000FFB6F89480918C01811127C0E6E4F1E035
:1018C0008491EAE5F1E09491E82FF0E0EE0FFF1F3C
:1018D000EC50FF4FA591B491EC91E92321F461E024
:1018E0008AE00E94B90361E08AE00E94DE018CB5C3
:1018F00080618CBD8CB580648CBD61E08DE00E9400
:10190000DE0161E08BE00E94DE0180918C018F5F3F
:1019100080938C01FFBE0DC061E00E94DE0161E09A
:101920008091B1020E94DE0160E08091B2020E94CB
:10193000DE018091B0028F3FB1F48091A7020E9436
:10194000060660ED8AE992E00E9407030E943307D1
:1019500061E08091A7020E9429078AE992E00E9433
:10196000BB02F82E19C08091B3028F3F21F482E5AB
:1019700091E00E94340460E08091B0020E94B903BB
:1019800080ED0E94C90680E00E94C906F82E61E041
:101990008091B0020E94B90328E5F21282C088E863
:1019A0000E94B4079093B5028093B4028AE80E9423
:1019B000B4079093B7028093B6028CE80E94B407F4
:1019C0009093B9028093B8028EE80E94B407909376
:1019D000BB028093BA0280E90E94B4079093BD02D3
:1019E0008093BC0282E90E94B4079093BF02809367
:1019F000BE0284E90E94B4079093C1028093C002A2
:101A000086E90E94B4079093C3028093C20288E9DA
:101A10000E94B4079093C5028093C4028AE90E9491
:101A2000B4079093C7028093C6028CE90E94B40762
:101A30009093C9028093C8028EE90E94B4079093E4
:101A4000CB028093CA028091B0028F3F89F48091CB
:101A5000A7020E94060664EF8AE992E00E9407034B
:101A60006FE38AE992E00E9407030E94330734C0C3
:101A70008091B3028F3F21F482E591E00E9434040B
:101A800060E08091B0020E94B90384E70E94C90619
:101A90008FE30E94C90661E08091B0020E94B90301
:101AA0001BC00EEF10E0F8016491611105C080E2E7
:101AB00091E00E9476060FC0E091FD01F091FE01D9
:101AC0000190F081E02D8DEF91E009950F5F1F4FA0
:101AD000892B49F7ECCFFFCF0E94500686E20E9487
:101AE0003206682F606886E20E94100686E20E9435
:101AF0003206682F686386E20E94100667E083E181
:101B00000E94100683E291E00E94ED080E94FF0807
:101B100042E00E94090889E291E00E94ED080E94DB
:101B2000860942E00E94090889E291E00E94ED08DE
:101B30000E94860920E030E048EC52E40E94041044
:101B400020E030EC4DE754E40E94041021E03EED2B
:101B500042E45EE30E941D129B01AC0160E070E074
:101B600080E89FE30E94920F20E03AE24DE257E4C2
:101B70000E94B01142E00E94090889E291E00E94AF
:101B8000ED082FB7F89460918D0170918E018091CE
:101B90008F01909190012FBF0E94AB1020E030E0A8
:101BA0004AE754E40E94041042E00E94090880E2DF
:101BB00091E00E9476068BE291E00E94ED0880E0C1
:101BC0000E943206A9E5EA2EA2E0FA2E80E00E94E9
:101BD000320681FD10C0F1E0EF1AF10829F460E04F
:101BE00070EC89E794EC63C061E070E080E090E025
:101BF0000E943F02EBCF80E60E94060664E08AE97D
:101C000092E00E94070380E00E94A90582E090E034
:101C10000E942606823019F78AE992E00E94BB02F0
:101C2000F82E8AE992E00E94BB0289830E94EF08A5
:101C30008981F7FC04C06F2DB82EA12C0FC07F2C1A
:101C4000612C9301280F311DC9019195819591094E
:101C5000692F382F307FB32EAA24A39470E080E040
:101C600090E00E94AD106B017C018B2D90E0F4E0C0
:101C700095958795FA95E1F7BC01990F880B990B1B
:101C80000E94AD1020E030E040E85DE30E94B0111A
:101C90009B01AC01C701B6010E94930FAA2039F045
:101CA0009B01AC0160E070E0CB010E94920F42E02A
:101CB0006B017C01C701B6010E94090889E291E02D
:101CC0000E94ED0880E00E94320680E00E94320609
:101CD00080E60E94060661E08AE992E00E9407031E
:101CE00080E00E94A90583E090E00E9426068330F0
:101CF00009F043C08AE992E00E94BB02F82E8AE90B
:101D000092E00E94BB02D82E8AE992E00E94BB02B8
:101D1000E82E0E94EF088D2D90E0A0E0B0E0BA2FF1
:101D2000A92F982F8827AF298E292E2D2073E22ED8
:101D3000F12C54E0F594E7945A95E1F7BC01CD01FC
:101D4000E6E09595879577956795EA95D1F70E9496
:101D5000AD104B015C01B70180E090E00E94AB1038
:101D600020E030E040E85EE30E94B0119B01AC014E
:101D7000C501B4010E94930F04C060E070EC89E7D4
:101D800094EC42E00E94090889E291E00E94ED088B
:101D90000E94EF0839E5E32E32E0F32E80E00E9446
:101DA000320681FD10C081E0E81AF10829F460E0F4
:101DB00070EC89E794EC4CC061E070E080E090E06A
:101DC0000E943F02EBCF80E60E94060661E08AE9AE
:101DD00092E00E94070380E00E94A90583E090E062
:101DE0000E942606833019F78AE992E00E94BB021E
:101DF000C82E8AE992E00E94BB02D82E8AE992E0BE
:101E00000E94BB027C011C2D00E0B8016D29072E49
:101E1000000C880B990B0E94AD104B015C01C701AF
:101E2000992724E0959587952A95E1F7BC01990FAC
:101E3000880B990B0E94AD1020E030E040E85DE394
:101E40000E94B0119B01AC01C501B4010E94930F27
:101E500042E00E94090889E291E00E94ED082FB754
:101E6000F89460918D0170918E0180918F01909115
:101E700090012FBF0E94AB1020E030E04AE754E40D
:101E80000E94041042E00E94090880E291E00E9452
:101E9000760668EE73E080E090E00E943F020E94C8
:101EA000D40130CEEDEFF1E01382128288EE93E0A0
:101EB000A0E0B0E084839583A683B78324E031E07B
:101EC0003183208325EC30E03587248724EC30E013
:101ED0003787268720EC30E0318B208B21EC30E0F7
:101EE000338B228B22EC30E0358B248B26EC30E0D8
:101EF000378B268B118E128E138E148EEAE9F2E048
:101F00001382128284839583A683B78384E191E050
:101F100091838083E7EAF2E08FEF8187828783876E
:101F2000848708955058BB27AA270E94AA0F0C94B3
:101F300071110E94631138F00E946A1120F039F487
:101F40009F3F19F426F40C9450110EF4E095E7FB32
:101F50000C944A11E92F0E94821158F3BA176207B4
:101F600073078407950720F079F4A6F50C94A41163
:101F70000EF4E0950B2EBA2FA02D0B01B9019001A4
:101F80000C01CA01A0011124FF27591B99F0593FE8
:101F900050F4503E68F11A16F040A22F232F342F30
:101FA0004427585FF3CF469537952795A795F0407E
:101FB0005395C9F77EF41F16BA0B620B730B840B93
:101FC000BAF09150A1F0FF0FBB1F661F771F881F4B
:101FD000C2F70EC0BA0F621F731F841F48F48795A3
:101FE00077956795B795F7959E3F08F0B0CF939595
:101FF000880F08F09927EE0F9795879508950E940E
:10200000261108F481E008950E9418100C947111B3
:102010000E946A1158F00E94631140F029F45F3F5A
:1020200029F00C944A1151110C94A5110C945011E3
:102030000E94821168F39923B1F3552391F3951B04
:10204000550BBB27AA2762177307840738F09F5FD9
:102050005F4F220F331F441FAA1FA9F335D00E2E46
:102060003AF0E0E832D091505040E695001CCAF7B3
:102070002BD0FE2F29D0660F771F881FBB1F261776
:1020800037074807AB07B0E809F0BB0B802DBF014D
:10209000FF2793585F4F3AF09E3F510578F00C941C
:1020A0004A110C94A5115F3FE4F3983ED4F3869552
:1020B00077956795B795F7959F5FC9F7880F911D3D
:1020C0009695879597F90895E1E0660F771F881F29
:1020D000BB1F621773078407BA0720F0621B730BDC
:1020E000840BBA0BEE1F88F7E09508950E948A11C1
:1020F00088F09F5798F0B92F9927B751B0F0E1F0C9
:10210000660F771F881F991F1AF0BA95C9F714C078
:10211000B13091F00E94A411B1E008950C94A41183
:10212000672F782F8827B85F39F0B93FCCF38695B1
:1021300077956795B395D9F73EF49095809570950E
:1021400061957F4F8F4F9F4F089597FB16F40E9424
:1021500053110C94E910E89409C097FB3EF4909554
:102160008095709561957F4F8F4F9F4F9923A9F070
:10217000F92F96E9BB279395F695879577956795FF
:10218000B795F111F8CFFAF4BB0F11F460FF1BC043
:102190006F5F7F4F8F4F9F4F16C0882311F096E9D6
:1021A00011C0772321F09EE8872F762F05C0662384
:1021B00071F096E8862F70E060E02AF09A95660F3D
:1021C000771F881FDAF7880F9695879597F90895F6
:1021D000E894F92F96EBFF2381F0121613061406EC
:1021E000440B9395F695879577956795579540405D
:1021F000FF23B9F71BC099270895882351F49850FD
:10220000D2F7872B762F652F542F432F322F20E0C4
:10221000B1F3121613061406440B88233AF09A956C
:10222000440F551F661F771F881FCAF755234AF4AE
:10223000440F551F11F460FF04C06F5F7F4F8F4F35
:102240009F4F880F9695879597F90895990F0008E5
:10225000550FAA0BE0E8FEEF16161706E807F90778
:10226000C0F012161306E407F50798F0621B730B13
:10227000840B950B39F40A2661F0232B242B252B94
:1022800021F408950A2609F4A140A6958FEF811D37
:10229000811D089597F99F6780E870E060E00895D8
:1022A0009FEF80EC0895909580957095609550957E
:1022B0004095309521953F4F4F4F5F4F6F4F7F4F68
:1022C0008F4F9F4F089500240A941616170618067C
:1022D0000906089500240A9412161306140605062A
:1022E0000895092E0394000C11F4882352F0BB0FBB
:1022F00040F4BF2B11F460FF04C06F5F7F4F8F4F1E
:102300009F4F089557FD9058440F551F59F05F3F58
:1023100071F04795880F97FB991F61F09F3F79F007
:1023200087950895121613061406551FF2CF469589
:10233000F1DF08C0161617061806991FF1CF86950B
:102340007105610508940895E894BB2766277727EF
:10235000CB0197F908950E94261108F48FEF089594
:102360000E94C3110C9471110E94631138F00E94F5
:102370006A1120F0952311F00C944A110C9450111D
:1023800011240C94A5110E94821170F3959FC1F342
:10239000950F50E0551F629FF001729FBB27F00D13
:1023A000B11D639FAA27F00DB11DAA1F649F662768
:1023B000B00DA11D661F829F2227B00DA11D621FB7
:1023C000739FB00DA11D621F839FA00D611D221F71
:1023D000749F3327A00D611D231F849F600D211D55
:1023E000822F762F6A2F11249F5750409AF0F1F0D8
:1023F00088234AF0EE0FFF1FBB1F661F771F881F41
:1024000091505040A9F79E3F510580F00C944A111D
:102410000C94A5115F3FE4F3983ED4F3869577952D
:102420006795B795F795E7959F5FC1F7FE2B880FE6
:10243000911D9695879597F90895FA01EE0FFF1F64
:10244000309621053105A1F16115710561F48038DF
:10245000BFE39B0749F168949038810561F08038AB
:10246000BFEF9B0741F099234AF5FF3FE105310596
:10247000210519F1E8940894E795D901AA2329F4D4
:10248000AB2FBE2FF85FD0F310C0FF5F70F4A6959E
:10249000E0F7F73950F019F0FF3A38F49F779F933F
:1024A0000DD00F9007FC9058089546F00C945011F1
:1024B00060E070E080E89FE308954FE79F775F93C7
:1024C0004F933F932F930E941D132F913F914F9154
:1024D0005F910E94B0110C947A120E942611880B11
:1024E000990B089529F416F00C944A110C94A41138
:1024F0000C9450110E948A11A8F39638A0F707F89F
:102500000F92E8942BE33AEA48EB5FE70E94C6118A
:102510000F920F920F924DB75EB70F920E94651304
:10252000E8E6F0E00E94AC124F915F91EF91FF91CD
:10253000E595EE1FFF1F49F0FE57E0684427EE0FB8
:10254000441FFA95E1F74195550B0E94DF120F9059
:1025500007FE0C94D3120895DF93CF931F930F932C
:10256000FF92EF92DF927B018C01689406C0DA2E15
:10257000EF010E94C311FE01E894A59125913591C8
:1025800045915591A6F3EF010E94AA0FFE01970114
:10259000A801DA9469F7DF90EF90FF900F911F91F7
:1025A000CF91DF9108959B01AC0160E070E080E87D
:1025B0009FE30C9404100C944A110C9499130E94FC
:1025C0008A11D8F39923C9F3940F511DA3F39150A5
:1025D000504094F059F0882332F0660F771F881F1F
:1025E00091505040C1F79E3F51052CF7880F911D27
:1025F0009695879597F908955F3FACF0983E9CF0CB
:10260000BB27869577956795B79508F4B160939544
:10261000C1F7BB0F58F711F460FFE8CF6F5F7F4F32
:102620008F4F9F4FE3CF0C94A51116F00C94991384
:102630000C94501168940C944A110E948A11A8F3CA
:102640009923C1F3AEF3DF93CF931F930F93FF92C0
:10265000C92FDD2788232AF02197660F771F881F4F
:10266000DAF720E030E040E85FEB9FE3883920F0C4
:10267000803E38F021968F770E94930FE0E9F0E0DA
:1026800004C00E94930FEDEBF0E00E94AC128B01AE
:10269000BE01EC01FB2E6F5771097595771F880BF2
:1026A000990B0E94AD1028E132E741E35FE30E94FD
:1026B000C311AF2D9801AE01FF900F911F91CF91E3
:1026C000DF910E94AA0F0C947111FA01DC01AA0F8C
:1026D000BB1F9B01AC01BF5728F422273327442797
:1026E000507820C0B75190F4AB2F00244695379511
:1026F0002795011CA395D2F3002071F0220F331F00
:10270000441FB395DAF30ED00C94920F613071052B
:10271000A0E88A07B94630F49B01AC016627772709
:1027200088279078309621F0208331834283538329
:1027300008959F3F31F0915020F4879577956795E4
:10274000B795880F911D9695879597F90895DB01A8
:102750008F939F930E94D913BF91AF91A29F800D39
:10276000911DA39F900DB29F900D11240895A1E299
:102770001A2EAA1BBB1BFD010DC0AA1FBB1FEE1FFB
:10278000FF1FA217B307E407F50720F0A21BB30B46
:10279000E40BF50B661F771F881F991F1A9469F7C2
:1027A00060957095809590959B01AC01BD01CF011E
:1027B00008950E947715A59F900DB49F900DA49F3A
:1027C000800D911D11240895B7FF0C94D9130E9418
:1027D000D913821B930B0895DF93CF931F930F930D
:1027E0009A9DF02D219FF00D8B9DF00D8A9DE02D7F
:1027F000F10D039FF00D029FE00DF11D4E9DE00DC8
:10280000F11D5E9DF00D4F9DF00D7F936F93BF9274
:10281000AF925F934F93D5010E9477158B01AC0166
:10282000D7010E947715EB01E80FF91FD6010E942E
:102830003C142F913F91D6010E947715C60FD71FE8
:10284000E81FF91FAF91BF910E943C142F913F9157
:102850000E947715C60FD71FE81FF91FD6010E94E7
:102860007715E60FF71F9801BE01CF0111240F91D4
:102870001F91CF91DF9108950E947715460F571F42
:10288000C81FD91F08F431960895689401C0E894D0
:10289000F92FF12B12F00C947914A0E0B0E0E3E5ED
:1028A000F4E10C94EB14092E059422F40E94D51443
:1028B000112392F4F0E80F26FFEFE094F0940095D6
:1028C0001095B094C094D094A194BF0ACF0ADF0AA7
:1028D000EF0AFF0A0F0B1F0B0E94841407FC0E94D3
:1028E000D514CDB7DEB7ECE00C940715689401C0A1
:1028F000E8948F929F92CF93DF930E948414DF918C
:10290000CF919F908F90089588249924F401E40139
:10291000B0E49F93AA279A158B049C04ED05FE054D
:10292000CF05D007A10798F4AD2FDC2FCF2FFE2FB6
:10293000E92D982C892E982F872F762F652F542FCD
:10294000432F322F2227B85031F7BF9127C01B2EBB
:10295000BF91BB27220F331F441F551F661F771FD0
:10296000881F991F881C991CEE1FFF1FCC1FDD1F9D
:10297000AA1FBB1F8A149B04EC05FD05CE05DF05CD
:10298000A007B10748F08A189B08EC09FD09CE0999
:10299000DF09A00BB10B21601A94E1F62EF494012B
:1029A000AF01BE01CD01000C089560957095809532
:1029B000909530954095509521953F4F4F4F5F4FE3
:1029C0006F4F7F4F8F4F9F4F08952F923F924F929F
:1029D0005F926F927F928F929F92AF92BF92CF92AF
:1029E000DF92EF92FF920F931F93CF93DF93CDB7B8
:1029F000DEB7CA1BDB0B0FB6F894DEBF0FBECDBF30
:102A000009942A88398848885F846E847D848C8400
:102A10009B84AA84B984C884DF80EE80FD800C8109
:102A20001B81AA81B981CE0FD11D0FB6F894DEBFEC
:102A30000FBECDBFED0108950F93083090F0982F91
:102A4000872F762F652F542F432F322F22270850A0
:102A5000F4CF220F331F441F551F661F771F881F97
:102A6000991F0A95B2F70F91089597FB10F81694E5
:102A700000080F93083098F00850232F342F452F6B
:102A8000562F672F782F892F902DF4CF0594979587
:102A900087957795679557954795379527950A9523
:102AA000AAF70F9108952A0D3B1D4C1D5D1D6E1D4B
:102AB0007F1D801F911F08952A193B094C095D094C
:102AC0006E097F09800B910B08950024A7FD0094E7
:102AD0002A173005400550056005700580059005F2
:102AE0000895EE0FFF1F0590F491E02D0994A29F29
:102AF000B001B39FC001A39F700D811D1124911DD2
:102B0000B29F700D811D1124911D089581E090E008
:0A2B1000F8940C948B15F894FFCF95
:102B1A00000000006B01E700340112012601B20136
:102B2A00000000000703D702CF02BB02AC02AB02CF
:102B3A000D0A00424D5032383023004D504C33318B
:102B4A00313523006E616E00696E66006F7666002D
:107E0000112484B714BE81FFF0D085E080938100F7
:107E100082E08093C00088E18093C10086E0809377
:107E2000C20080E18093C4008EE0C9D0259A86E02C
:107E300020E33CEF91E0309385002093840096BBD3
:107E4000B09BFECF1D9AA8958150A9F7CC24DD24C4
:107E500088248394B5E0AB2EA1E19A2EF3E0BF2EE7
:107E6000A2D0813461F49FD0082FAFD0023811F036
:107E7000013811F484E001C083E08DD089C08234E0
:107E800011F484E103C0853419F485E0A6D080C0E4
:107E9000853579F488D0E82EFF2485D0082F10E0AE
:107EA000102F00270E291F29000F111F8ED06801E7
:107EB0006FC0863521F484E090D080E0DECF843638
:107EC00009F040C070D06FD0082F6DD080E0C81688
:107ED00080E7D80618F4F601B7BEE895C0E0D1E017
:107EE00062D089930C17E1F7F0E0CF16F0E7DF06D8
:107EF00018F0F601B7BEE89568D007B600FCFDCFD4
:107F0000A601A0E0B1E02C9130E011968C91119780
:107F100090E0982F8827822B932B1296FA010C0160
:107F200087BEE89511244E5F5F4FF1E0A038BF0790
:107F300051F7F601A7BEE89507B600FCFDCF97BE46
:107F4000E89526C08437B1F42ED02DD0F82E2BD052
:107F50003CD0F601EF2C8F010F5F1F4F84911BD097
:107F6000EA94F801C1F70894C11CD11CFA94CF0C13
:107F7000D11C0EC0853739F428D08EE10CD085E9AC
:107F80000AD08FE07ACF813511F488E018D01DD067
:107F900080E101D065CF982F8091C00085FFFCCF94
:107FA0009093C60008958091C00087FFFCCF809118
:107FB000C00084FD01C0A8958091C6000895E0E648
:107FC000F0E098E1908380830895EDDF803219F02E
:107FD00088E0F5DFFFCF84E1DECF1F93182FE3DFCA
:107FE0001150E9F7F2DF1F91089580E0E8DFEE27F6
:047FF000FF270994CA
:027FFE00040479
:0400000300007E007B
:00000001FF
