:100000000C94BD000C94E5000C94E5000C94A10642
:100010000C94A1060C94A1060C94E5000C94E50048
:100020000C94E5000C94E5000C94E5000C94E500BC
:100030000C94E5000C94E5000C94E5000C94E500AC
:100040000C9457060C94E5000C94A6050C948005BE
:100050000C94E5000C94E5000C94E5000C94E5008C
:100060000C94FE060C94E50007634236B79BD8A7B4
:100070001A39685618AEBAAB558C1D3CB7CC5763CD
:10008000BD6DEDFD753EF6177231BF000000803F7B
:1000900008000000BE922449123EABAAAA2ABECD97
:1000A000CCCC4C3E00000080BEABAAAAAA3E000009
:1000B0000000BF000000803F000000000008417801
:1000C000D3BB4387D1133D190E3CC3BD4282AD2B38
:1000D0003E68EC8276BED98FE1A93E4C80EFFFBE30
:1000E00001C4FF7F3F000000000000000000250069
:1000F00028002B0000000000240027002A00436F86
:10010000756C64206E6F742066696E642061207661
:10011000616C696420424D503238302073656E73D3
:100120006F722C20636865636B20776972696E67F4
:10013000210000000000230026002900040404041C
:100140000404040402020202020203030303030381
:10015000010204081020408001020408102001025E
:10016000040810200000000800020100000304073A
:1001700000000000000000003C0F11241FBECFEF64
:10018000D8E0DEBFCDBF11E0A0E0B1E0EEEEFAE2D4
:1001900002C005900D92A434B107D9F722E0A4E47F
:1001A000B1E001C01D92AC3DB207E1F710E0CDEB2C
:1001B000D0E004C02197FE010E945B15CC3BD10723
:1001C000C9F70E94300C0C9475150C940000CF9266
:1001D000DF92EF92FF920F931F93CF93DF936C0107
:1001E0007A018B01C0E0D0E0CE15DF0589F0D8019F
:1001F0006D918D01D601ED91FC910190F081E02D82
:10020000C6010995892B11F47E0102C02196ECCF1D
:10021000C701DF91CF911F910F91FF90EF90DF9079
:10022000CF900895FC01918D828D981761F0828D99
:10023000DF01A80FB11D5D968C91928D9F5F9F731A
:10024000928F90E008958FEF9FEF0895FC01918DBC
:10025000828D981731F0828DE80FF11D858D90E029
:1002600008958FEF9FEF0895FC01918D228D892FC6
:1002700090E0805C9F4F821B91098F7399270895AE
:1002800083E092E00E94340121E0892B09F420E010
:10029000822F0895FC01848DDF01A80FB11DA35AA0
:1002A000BF4F2C91848D90E001968F739927848F96
:1002B000A689B7892C93A089B1898C9180648C938D
:1002C000938D848D981306C00288F389E02D808178
:1002D0008F7D80830895EF92FF920F931F93CF93AA
:1002E000DF93EC0181E0888F9B8D8C8D981305C086
:1002F000E889F989808185FD24C0F62E0B8D10E0F8
:100300000F5F1F4F0F731127E02E8C8DE8120CC06A
:100310000FB607FCFACFE889F989808185FFF5CF10
:10032000CE010E944A01F1CF8B8DFE01E80FF11D35
:10033000E35AFF4FF0820B8FEA89FB89808180624C
:1003400007C0EE89FF896083E889F989808180642C
:10035000808381E090E0DF91CF911F910F91FF901A
:10036000EF900895CF93DF93EC01888D8823C9F037
:10037000EA89FB89808185FD05C0A889B9898C91AE
:1003800086FD0FC00FB607FCF5CF808185FFF2CF49
:10039000A889B9898C9185FFEDCFCE010E944A01D1
:1003A000E7CFDF91CF91089580E090E0892B29F08D
:1003B0000E94400181110C9400000895CF93DF93B7
:1003C00090E0FC01E05BFE4F2491FC01E45CFE4FF9
:1003D0008491882361F190E0880F991FFC01EC5013
:1003E000FF4FC591D491FC01E651FF4FA591B49107
:1003F000611109C09FB7F894888120958223888372
:10040000EC912E230BC0623061F49FB7F8943881D1
:10041000822F809583238883EC912E2B2C939FBF72
:1004200006C08FB7F894E8812E2B28838FBFDF9109
:10043000CF9108953FB7F8948091920190919301E4
:10044000A0919401B091950126B5A89B05C02F3FBE
:1004500019F00196A11DB11D3FBFBA2FA92F982FEA
:100460008827820F911DA11DB11DBC01CD0142E065
:10047000660F771F881F991F4A95D1F708958F92AD
:100480009F92AF92BF92CF92DF92EF92FF926B0159
:100490007C010E941A024B015C01C114D104E104E9
:1004A000F104F1F00E941A02DC01CB0188199909CC
:1004B000AA09BB09883E9340A105B10570F321E06C
:1004C000C21AD108E108F10888EE880E83E0981E70
:1004D000A11CB11CC114D104E104F10419F7DDCF52
:1004E000FF90EF90DF90CF90BF90AF909F908F9054
:1004F00008952FB7F89460918E0170918F018091CB
:100500009001909191012FBF089585ED8093BC00DB
:100510008091BC0084FDFCCF1092DF0108954091D2
:100520006601262F30E0240F311D21323105DCF425
:100530002091DF012430C9F4FC0180E090E08617AF
:1005400058F4309166012191DC01AC5BBE4FA30FE2
:10055000B11D2C930196F3CF80916601680F6093D3
:10056000660180E0089581E0089582E0089508958D
:10057000E091980180919701E81730F4F0E0E75698
:10058000FE4F808190E008958FEF9FEF0895909146
:10059000980180919701981750F4E92FF0E0E75601
:1005A000FE4F208130E09F5F9093980102C02FEFB3
:1005B0003FEFC90108958091970190E02091980143
:1005C000821B91090895CF92DF92EF92FF920F93D1
:1005D0001F93CF93DF937C01262F972F8A01809161
:1005E000E001882391F0C62FD72F6E01C40ED51ECF
:1005F000CC15DD0571F06991D701ED91FC91019069
:10060000F081E02DC7010995F3CF642F822F0E945E
:100610008F02C801DF91CF911F910F91FF90EF9052
:10062000DF90CF900895CF93DF931F92CDB7DEB7C1
:1006300069832091E0012223D1F02091020220322F
:1006400040F021E030E0FC013383228380E090E041
:1006500015C08091E101E82FF0E0EE51FE4F998145
:1006600090838F5F8093E1018093020205C061E077
:10067000CE0101960E948F0281E090E00F90DF9101
:10068000CF9108952F923F924F925F926F927F92F7
:100690008F929F92AF92BF92CF92DF92EF92FF9292
:1006A0000F931F93CF93DF93CDB7DEB7A2970FB60B
:1006B000F894DEBF0FBECDBF0E943B0B87EF0E94B8
:1006C000BD0A6A8F7B8F8C8F9D8F8091B202909133
:1006D000B302A091B402B091B5026C017D01FF0C90
:1006E000CC08DC2C76019C01AD016C2D7C2D8C2D71
:1006F0009C2D345F414051096109710981099109BB
:100700002AA339A349835A836B837C838D839E8379
:1007100059016A017B018C010E94D6132A8B3B8B05
:100720004C8B5D8B6E8B7F8B888F998F8091CA02EB
:100730008E8FE091CB02EF83F091C802FF8F809102
:10074000C9028887E091C602E8A3F091C702F98741
:10075000B090C302A090C2021B2D110F110BC12E2D
:10076000D12EE12EF12E012F2AA139A149815A81E2
:100770006B817C818D819E810E94D6130CE00E944A
:10078000061519012A013B014C01B090C502A09049
:10079000C4021B2D110F110BC12ED12EE12EF12EF3
:1007A000012F2A893B894C895D896E897F89888DD3
:1007B000998D0E94D61308E00E941F155101620115
:1007C000730184010E943D1570588F4F9F4F2090F8
:1007D000C0023090C1025101C12CD12CE12CF12C6E
:1007E00000E010E00E94D61301E20E941F152A8744
:1007F0003B874C875D876E877F87888B998BA0E0CE
:100800000E944F1509F45EC1AE8C1F81110F110BB0
:10081000BF80C12ED12EE12EF12E012F2A893B89D6
:100820004C895D896E897F89888D998D0E94D61348
:1008300019012A013B014C01AF8C1885110F110BD6
:10084000B884C12ED12EE12EF12E012F2AA139A17B
:1008500049815A816B817C818D819E810E94D61352
:1008600001E10E94061559016A017B018C01910189
:10087000A201B301C4010E943D1519012A013B01E7
:100880004C014A8D5B8D6C8D7D8D84E075956795EF
:10089000579547958A95D1F780E090E0A0E1B0E0C8
:1008A000841B950BA60BB70B6C017D01FF0CCC08CC
:1008B000DC2C76019C01AD016C2D7C2D8C2D9C2DAA
:1008C0000FE10E940615F901B42FA52F6C837D83DB
:1008D00089839A8328A19985990F990B3985492F86
:1008E000592F692F792F892F03E20E94061559018C
:1008F0006A017B018C019101A201B301C4010E9434
:100900003D1559016A017B018C019F014B2F5A2F24
:100910006C817D8189819A810E9446154901542EFE
:10092000652EB62FA72FF82FE92F03E00E9406159A
:100930005401C52CD62CEB2EFA2E0F2F1E2F0E9401
:10094000461559016A017B01782E192F03E00E9498
:100950000615072D0E94461503E00E940615540156
:10096000C52CD62CEB2EFA2E0F2F1E2F0E944615CB
:1009700002E00E9406150F2F0E94461501E00E941A
:1009800006150F2F0E944615AA84BB84CC84DD84F3
:10099000EE84FF84088919890E94311428873F83D7
:1009A00049835A836B837C838D839E830DE00E94F1
:1009B0001F15922E832E742E652E562E472E382EFE
:1009C000292E3091D1022091D002932F990F990BAB
:1009D000A92CB82CC72CD62CE52CF42C032D122DC9
:1009E000492F592F692F792F892F0E94D6130E94E2
:1009F000D61309E10E941F1559016A017B018C0180
:100A000028853F8149815A816B817C818D819E81BE
:100A10000E943D1519012A013B014C013091CF0282
:100A20002091CE02932F990F990BA884BF80C98083
:100A3000DA80EB80FC800D811E81492F592F692FB0
:100A4000792F892F0E94D61303E10E941F155901A7
:100A50006A017B018C019101A201B301C4010E94D2
:100A60003D1508E00E941F15522E632E742E852E10
:100A7000962EF72FE82FB92F3091CD022091CC027E
:100A8000932F990F990B492F592F692F792F892F60
:100A900004E00E94061559016A017B018C01252D95
:100AA000362D472D582D692D7F2F8E2F9B2F0E947D
:100AB0003D150E948F1020E030E040E85BE30E948B
:100AC0009A1103C060E070E0CB01A2960FB6F894D3
:100AD000DEBF0FBECDBFDF91CF911F910F91FF9071
:100AE000EF90DF90CF90BF90AF909F908F907F90CE
:100AF0006F905F904F903F902F9008950E947015D7
:100B00001F920F920FB60F9211242F933F934F9382
:100B10005F936F937F938F939F93AF93BF93EF9365
:100B2000FF9383E092E00E944A01FF91EF91BF9111
:100B3000AF919F918F917F916F915F914F913F9175
:100B40002F910F900FBE0F901F9018951F920F922C
:100B50000FB60F9211242F938F939F93EF93FF93D0
:100B6000E0911302F09114028081E0911902F0915A
:100B70001A0282FD12C0908180911C028F5F8F73D8
:100B800020911D02821751F0E0911C02F0E0ED5F10
:100B9000FD4F958F80931C0201C08081FF91EF91E2
:100BA0009F918F912F910F900FBE0F901F901895CE
:100BB000833081F028F4813099F08230A1F00895DB
:100BC0008730A9F08830B9F08430D1F4809180006A
:100BD0008F7D03C0809180008F778093800008957F
:100BE00084B58F7702C084B58F7D84BD08958091D0
:100BF000B0008F7703C08091B0008F7D8093B000EC
:100C000008951F93CF93DF93282F30E0F901EC591B
:100C1000FE4F8491F901E05BFE4FD491F901E45C51
:100C2000FE4FC491CC23C9F0162F81110E94D80524
:100C3000EC2FF0E0EE0FFF1FE651FF4FA591B491AE
:100C40008FB7F894111105C09C91ED2FE095E92321
:100C500002C0EC91ED2BEC938FBFDF91CF911F91F0
:100C6000089510929801109297011092E10110924C
:100C700002021092DF0181E08093DE011092B9013F
:100C800061E082E10E94010661E083E10E940106C9
:100C9000E9EBF0E080818E7F808380818D7F80838F
:100CA00088E48093B80085E48093BC0008951F9287
:100CB0000F920FB60F9211242F933F938F939F9310
:100CC000AF93BF9380918E0190918F01A09190017D
:100CD000B091910130918D0123E0230F2D3720F445
:100CE0000196A11DB11D05C026E8230F0296A11D86
:100CF000B11D20938D0180938E0190938F01A0935D
:100D00009001B09391018091920190919301A091F3
:100D10009401B09195010196A11DB11D809392019E
:100D200090939301A0939401B0939501BF91AF91DB
:100D30009F918F913F912F910F900FBE0F901F9019
:100D400018951F920F920FB60F9211240F900FBE9D
:100D50000F901F90189508958CBD9DBD0895CF9359
:100D6000DF93C82F8091B6028F3F01F58091AD02CD
:100D70000E94F6096C2F80EA92E00E9413030E9401
:100D8000BA0A62E08091AD020E94B00A80EA92E065
:100D90000E94C702C82F80EA92E00E94C70220E0AA
:100DA00030E03C2FE901C82BD92B23C08091B90238
:100DB0008F3F21F482E591E00E94AC0660E08091D3
:100DC000B6020E9401068C2F80680E94500A80E0C3
:100DD0000E94500AC82F80E00E94500A2C2F30E059
:100DE000322F2227E901C82B61E08091B6020E94D0
:100DF00001069C2F8D2FDF91CF9108951F920F92A6
:100E00000FB60F9211242F933F934F935F936F93DD
:100E10007F938F939F93AF93BF93EF93FF938091B3
:100E2000B900887F803609F49CC068F5883209F4DF
:100E30005BC090F4803109F454C038F4882309F47D
:100E4000F6C0883009F44DC0F6C0883109F44CC0B2
:100E5000803209F45DC0EFC0803409F468C048F402
:100E6000803309F455C0883309F0E5C08093DD0173
:100E7000D8C0803509F44FC0883509F45DC0883486
:100E800009F0D9C0D6C0883909F4C7C0A8F488379A
:100E900009F467C038F4883609F463C0803709F470
:100EA00060C0C9C0883809F4B8C0803909F45FC08F
:100EB000803809F0C0C05BC0803B09F486C038F4BC
:100EC000803A09F466C0883A09F47FC0B4C0803C17
:100ED00009F4A7C0883C09F4A4C0883B09F48AC07F
:100EE000AAC08091BA0110C09091DC018091DB0111
:100EF000981770F5E091DC0181E08E0F8093DC01A2
:100F0000F0E0E554FE4F80818093BB0085EC86C005
:100F10008093DD018EC0E091DC0181E08E0F809333
:100F2000DC018091BB00F0E0E554FE4F808390919E
:100F3000DC018091DB016EC0E091DC0181E08E0F6D
:100F40008093DC018091BB00F0E0E554FE4F80838C
:100F50008091DE0181116DC081E08093B90184EA46
:100F600061C083E08093DF0110928A01CFCF80912E
:100F70008A01803208F051C0E0918A0181E08E0F31
:100F800080938A018091BB00F0E0E659FE4F808398
:100F9000BDCF85EC8093BC001092DF0180918A0167
:100FA000803230F4E0918A01F0E0E659FE4F108281
:100FB00060918A0170E0E0916801F09169018AE630
:100FC00091E0099510928A0136C084E08093DF0198
:100FD0001092670110926601E0916401F091650141
:100FE000099580916601811105C081E080936601B9
:100FF00010924401E091670181E08E0F80936701B8
:10100000F0E0EC5BFE4F80818093BB009091670124
:1010100080916601981708F479CF85E88093BC0029
:101020000AC085EC8093BC001092DF0104C01092CE
:10103000DD010E948502FF91EF91BF91AF919F91D9
:101040008F917F916F915F914F913F912F910F9071
:101050000FBE0F901F9018959091DF019111FCCF5A
:1010600091E09093DF019093DE012FEF2093DD015B
:101070001092DC01260F2093DB019093BA0190912E
:10108000BA01880F892B8093BA018091B901813010
:1010900061F41092B9018091BA018093BB008091F4
:1010A000BC0083FDF8CF85EC01C085EE8093BC00C9
:1010B0008091DF018130E1F38091DC01861710F42B
:1010C0006091DC01ABEBB1E029E931E0F9018E2F51
:1010D000821B861718F48D918193F9CF862F08957E
:1010E000009769F0FC0101900020E9F73197AF010A
:1010F000481B590BBC0183E092E00C94E70080E0B0
:1011000090E008958F929F92AF92BF920F931F939A
:10111000CF93DF93CDB7DEB7A1970FB6F894DEBFBC
:101120000FBECDBF19A2423008F44AE08E010F5D18
:101130001F4F842E912CA12CB12CA50194010E944B
:10114000A113E62FB901CA0101501109EA3014F4C4
:10115000E05D01C0E95CD801EC93232B242B252B07
:1011600061F7C8010E947008A1960FB6F894DEBF1F
:101170000FBECDBFDF91CF911F910F91BF90AF9068
:101180009F908F9008958F929F92AF92BF92CF922F
:10119000DF92EF92FF92CF93DF936B017C019B0173
:1011A000AC010E945712882319F088E391E027C010
:1011B00046015701E894B7F82FEF3FEF4FE75FE79D
:1011C000C501B4010E94571281110DC02FEF3FEFEE
:1011D0004FE75FE7C501B4010E94E90F18161CF440
:1011E0008CE391E00CC02FEF3FEF4FE75FE4C701C6
:1011F000B6010E949511181674F480E491E0DF9115
:10120000CF91FF90EF90DF90CF90BF90AF909F90E5
:101210008F900C9470082FEF3FEF4FE75FECC70102
:10122000B6010E94E90F87FDE8CF20E030E0A90178
:10123000C701B6010E94E90F87FF11C0E0910302C8
:10124000F09104020190F081E02D6DE283E092E0E4
:101250000995EC01F7FAF094F7F8F09402C0C0E0B9
:10126000D0E02AE037ED43EA5BE3C701B6010E9414
:101270007D0F4B015C010E9460106B017C010E949C
:1012800095109B01AC01C501B4010E947C0F4B017C
:101290005C014AE0C701B6010E948208C80FD91F4D
:1012A000E0910302F09104020190F081E02D6EE2E2
:1012B00083E092E00995C80FD91F20E030E040E2BA
:1012C00051E4C501B4010E949A114B015C010E94D6
:1012D00060106B01E12CF12C4AE0C701B6010E94BD
:1012E0008208C80FD91FC701B6010E9495109B0143
:1012F000AC01C501B4010E947C0F20E030E040E267
:1013000051E40E949A110E94601080E090E04AE04F
:101310000E9482088C0F9D1FDF91CF91FF90EF906C
:10132000DF90CF90BF90AF909F908F9008950C94D6
:101330007008382F209102029091DB02213208F0D0
:1013400049C08091DF018111FCCF42E04093DF0171
:101350003093DE013FEF3093DD011092DC012093EA
:10136000DB01A2EEB1E04BEB51E0FA013E2F341B62
:10137000321718F43D913193F9CF1092BA012091B0
:10138000BA01990F922B9093BA019091B9019130C3
:1013900061F41092B9019091BA019093BB009091C1
:1013A000BC0093FDF8CF95EC01C095EE9093BC0086
:1013B0009091DF019230E1F39091DD019F3F79F050
:1013C0008091DD01803241F08091DD01803331F088
:1013D00084E005C081E003C082E001C083E0109298
:1013E000E101109202021092E001089591E09093C1
:1013F000E0018093DB021092E10110920202089555
:10140000CF93DF93D82FC62F80E60E94F6096D2F69
:1014100080EA92E00E9413036C2F80EA92E00E941F
:10142000130381E0DF91CF910C949909813208F088
:1014300080E2682F80E60E942C0810929801809329
:1014400097010895CF93DF931F92CDB7DEB7682F32
:1014500080E669830E94F609698180EA92E00E9431
:10146000130380E00E94990981E090E00E94160A2F
:1014700080EA92E00E94C7020F90DF91CF91089519
:1014800086E20E94220A682F6D7F86E20E94000A8F
:1014900086E20E94220A682F626086E20C94000AAB
:1014A000CF92DF92EF92FF920F931F93CF93DF9330
:1014B0009091B9029F3F39F48EBD00000DB407FE34
:1014C000FDCF8EB544C0E82EC7E0D0E0D12C01E0BE
:1014D00010E0DD0C60E08091B9020E940106B801C5
:1014E0000C2E01C0660F0A94EAF76E218091B702B4
:1014F0000E94010661E08091B9020E9401062091DC
:10150000B80230E0F901EC59FE4F8491F901E05B3B
:10151000FE4FC490F901E45CFE4FF490FF2071F09F
:1015200081110E94D805EF2DF0E0EE0FFF1FEE5C59
:10153000FE4FA591B491EC91EC2129F4219708F08C
:10154000C8CF8D2D04C08D2D8160D82EF7CFDF91AF
:10155000CF911F910F91FF90EF90DF90CF90089562
:10156000613208F060E20E942C081092980180938A
:101570009701089581E00C949909CF92DF92EF9240
:10158000FF92CF93C82F8091B6028F3FC9F580910B
:10159000AD020E94F6096C2F80EA92E00E941303CC
:1015A0000E94BA0A63E08091AD020E94B00A80EA0C
:1015B00092E00E94C7026C01990FEE08FF08FE2C12
:1015C000ED2CDC2CCC2480EA92E00E94C702AC0116
:1015D000990F660B770BC42AD52AE62AF72AFE2C28
:1015E000ED2CDC2CCC2480EA92E00E94C702AC01F6
:1015F000990F660B770BC42AD52AE62AF72A33C03F
:101600008091B9028F3F21F482E591E00E94AC06FF
:1016100060E08091B6020E9401068C2F80680E94D3
:10162000500A80E00E94500AC82ED12CE12CF12CE7
:10163000FE2CED2CDC2CCC2480E00E94500AC82A21
:10164000FE2CED2CDC2CCC2480E00E94500AC82A11
:1016500061E08091B6020E9401068091B9028F3F3D
:1016600011F40E94AB06C701B601CF91FF90EF9035
:10167000DF90CF9008958F929F92AF92BF92CF92BA
:10168000DF92EF92FF928AEF0E94BD0AEDEAF2E04C
:10169000458556854A01A12CB12CC72ED82EE92E9E
:1016A000FF24E7FCFA94C818D908EA08FB08DC0113
:1016B000CB0137E0B595A795979587953A95D1F7E2
:1016C000B501A401440F551F661F771F4C015D0132
:1016D000841A950AA60AB70AA5019401A785B089BC
:1016E0000E94CE134B015C013BE0B594A794979404
:1016F00087943A95D1F7A7019601C701B6010E94D8
:1017000091139B01AC016CE0559547953795279552
:101710006A95D1F7A189B2890E94CE13DC01CB0171
:101720007EE0B595A795979587957A95D1F7A50110
:101730009401280F391F4A1F5B1F25833683478377
:101740005087A5E0B0E00E94C313DC01CB018058B4
:101750009F4FAF4FBF4F692F7A2F8B2F992787FD50
:101760009A950E94971020E030E048EC52E40E94E5
:10177000EE0FFF90EF90DF90CF90BF90AF909F90D3
:101780008F900895CF92DF92EF92FF921F93CF93A5
:10179000DF9380E00E94220A80E00E94220A80E615
:1017A0000E94F60961E080EA92E00E94130380E063
:1017B0000E94990983E090E00E94160A833009F0A4
:1017C00043C080EA92E00E94C702D82F80EA92E0EC
:1017D0000E94C702182F80EA92E00E94C702C82F19
:1017E0000E94400A812F90E0A0E0B0E0BA2FA92F1C
:1017F000982F8827AD2B8C2BC0732C2F30E0E9015C
:1018000034E0D595C7953A95E1F7BC01CD0146E0A6
:1018100095958795779567954A95D1F70E9497108A
:101820006B017C01BE0180E090E00E94951020E0F9
:1018300030E040E85EE30E949A119B01AC01C701D1
:10184000B6010E947D0F04C060E070EC89E794EC63
:10185000DF91CF911F91FF90EF90DF90CF9008958F
:10186000CF93DF931F92CDB7DEB7789484B58260B3
:1018700084BD84B5816084BD85B5826085BD85B534
:10188000816085BD80916E00816080936E001092B2
:10189000810080918100826080938100809181002D
:1018A00081608093810080918000816080938000BE
:1018B0008091B10084608093B1008091B00081601C
:1018C0008093B00080917A00846080937A00809148
:1018D0007A00826080937A0080917A0081608093A0
:1018E0007A0080917A00806880937A001092C1001B
:1018F0000E943106E0911302F091140282E080838D
:10190000E0911302F09114021082E0910F02F09125
:1019100010021082E0911102F091120280E18083A6
:1019200010921B02E0911702F091180286E080836A
:10193000E0911502F0911602808180618083E09130
:101940001502F0911602808188608083E091150273
:10195000F0911602808180688083E0911502F091F9
:10196000160280818F7D808387E78093AD0280910E
:10197000B6028F3F19F40E9431064EC061E00E940A
:10198000010661E08091B6020E94DE018091B902F9
:101990008F3F09F034C01FB7F894809196018111F0
:1019A00027C0E6E4F1E08491EAE5F1E09491E82FC4
:1019B000F0E0EE0FFF1FEC50FF4FA591B491EC91BA
:1019C000E92321F461E08AE00E94010661E08AE0F7
:1019D0000E94DE018CB580618CBD8CB580648CBDAD
:1019E00061E08DE00E94DE0161E08BE00E94DE019B
:1019F000809196018F5F809396011FBF0DC061E0BB
:101A00000E94DE0161E08091B7020E94DE0160E089
:101A10008091B8020E94DE018091B6028F3FB1F43E
:101A20008091AD020E94F60960ED80EA92E00E948A
:101A300013030E94BA0A61E08091AD020E94B00ACD
:101A400080EA92E00E94C702182F19C08091B90263
:101A50008F3F21F482E591E00E94AC0660E0809126
:101A6000B6020E94010680ED0E94500A80E00E94AA
:101A7000500A182F61E08091B6020E9401061835C5
:101A800009F082C088E80E94AF069093BB02809361
:101A9000BA028AE80E94AF069093BD028093BC020E
:101AA0008CE80E94AF069093BF028093BE028EE83E
:101AB0000E94AF069093C1028093C00280E90E9409
:101AC000AF069093C3028093C20282E90E94AF06E0
:101AD0009093C5028093C40284E90E94AF0690935C
:101AE000C7028093C60286E90E94AF069093C9029E
:101AF0008093C80288E90E94AF069093CB0280933E
:101B0000CA028AE90E94AF069093CD028093CC026C
:101B10008CE90E94AF069093CF028093CE028EE9AB
:101B20000E94AF069093D1028093D0028091B602BA
:101B30008F3F89F48091AD020E94F60964EF80EA3C
:101B400092E00E9413036FE380EA92E00E94130385
:101B50000E94BA0A34C08091B9028F3F21F482E515
:101B600091E00E94AC0660E08091B6020E940106FE
:101B700084E70E94500A8FE30E94500A61E080913E
:101B8000B6020E9401061BC00EEF10E0F80164913E
:101B9000611105C080E291E00E9470080FC0E091E1
:101BA0000302F09104020190F081E02D83E092E0C5
:101BB00009950F5F1F4F892B49F7ECCFFFCF0E948C
:101BC000310686E20E94220A682F6F7786E20E9421
:101BD000000A86E20E94220A682F686386E20E9459
:101BE000000A67E083E10E94000A0E9479026B010B
:101BF0007C0183E291E00E9497090E94420320E069
:101C000030E048EC52E40E94EE0F20E030EC4DE76B
:101C100054E40E94EE0F21E03EED42E45EE30E94B8
:101C200007129B01AC0160E070E080E89FE30E9436
:101C30007C0F20E03AE24DE257E40E949A110E94A4
:101C4000C3088FE291E00E9497090E94C20B20E82E
:101C500036EE45EC57E40E94EE0F2BE534ED42E4FE
:101C60005EE30E9407129B01AC0160E070E080E837
:101C70009FE30E947C0F25EC3AE24DE257E40E947C
:101C80009A1120E030E040E752E40E947D0F0E946C
:101C9000C3088FE291E00E9497090E9479020E9496
:101CA000951020E030E04AE754E40E94EE0F0E94D5
:101CB000C30880E291E00E9470088AE291E00E94ED
:101CC00097090E94420320E030E048EC52E40E9471
:101CD000EE0F0E94C3088FE291E00E9497090E94D4
:101CE000C20B20E030E048EC52E40E94EE0F0E946C
:101CF000C3088FE291E00E9497090E9479020E9436
:101D0000951020E030E04AE754E40E94EE0F0E9474
:101D1000C30880E291E00E94700881E391E00E9494
:101D200097090E943B0B0E94C3088FE291E00E943A
:101D3000970980E00E94220A09E512E080E00E94F3
:101D4000220A81FD0FC00150110929F460E070ECF6
:101D500089E794EC61C061E070E080E090E00E946F
:101D60003F02ECCF80E60E94F60964E080EA92E050
:101D70000E94130380E00E94990982E090E00E9493
:101D8000160A823019F780EA92E00E94C702182FE3
:101D900080EA92E00E94C70289830E94400A8981FA
:101DA00017FD04C0612F082F10E00DC0712E612CAB
:101DB0009301280F311DC901919581959109692FD2
:101DC000082F007F11E070E080E090E00E94971003
:101DD0004B015C01802F90E024E0959587952A9532
:101DE000E1F7BC01990F880B990B0E94971020E036
:101DF00030E040E85DE30E949A119B01AC01C5010F
:101E0000B4010E947D0F112339F09B01AC0160E009
:101E100070E0CB010E947C0F4B015C01C501B40155
:101E20000E94C3088FE291E00E9497090E94790204
:101E30000E94951020E030E04AE754E40E94EE0F43
:101E40000E94C30880E291E00E9470080E9479021B
:101E500034EFC30E31E0D31EE11CF11CA701960143
:101E6000261B370B480B590BCA01B90111F00E9410
:101E70003F020E94D401B9CEE3E0F2E01382128265
:101E800088EE93E0A0E0B0E084839583A683B783D7
:101E900024E031E03183208325EC30E0358724874E
:101EA00024EC30E03787268720EC30E0318B208B24
:101EB00021EC30E0338B228B22EC30E0358B248B0D
:101EC00026EC30E0378B268B118E128E138E148EFB
:101ED000E0EAF2E01382128284839583A683B783BB
:101EE00084E191E091838083EDEAF2E08FEF8187D6
:101EF00082878387848708955058BB27AA270E942A
:101F0000940F0C945B110E944D1138F00E945411F3
:101F100020F039F49F3F19F426F40C943A110EF492
:101F2000E095E7FB0C943411E92F0E946C1158F3F3
:101F3000BA17620773078407950720F079F4A6F5AE
:101F40000C948E110EF4E0950B2EBA2FA02D0B01E0
:101F5000B90190010C01CA01A0011124FF27591BEE
:101F600099F0593F50F4503E68F11A16F040A22FF4
:101F7000232F342F4427585FF3CF46953795279565
:101F8000A795F0405395C9F77EF41F16BA0B620B64
:101F9000730B840BBAF09150A1F0FF0FBB1F661FAB
:101FA000771F881FC2F70EC0BA0F621F731F841FEE
:101FB00048F4879577956795B795F7959E3F08F014
:101FC000B0CF9395880F08F09927EE0F97958795D6
:101FD00008950E94101108F481E008950E940210F3
:101FE0000C945B110E94541158F00E944D1140F066
:101FF00029F45F3F29F00C94341151110C948F1186
:102000000C943A110E946C1168F39923B1F3552393
:1020100091F3951B550BBB27AA27621773078407FB
:1020200038F09F5F5F4F220F331F441FAA1FA9F391
:1020300035D00E2E3AF0E0E832D091505040E6957F
:10204000001CCAF72BD0FE2F29D0660F771F881FE0
:10205000BB1F261737074807AB07B0E809F0BB0BD3
:10206000802DBF01FF2793585F4F3AF09E3F5105E7
:1020700078F00C9434110C948F115F3FE4F3983E88
:10208000D4F3869577956795B795F7959F5FC9F7D0
:10209000880F911D9695879597F90895E1E0660F51
:1020A000771F881FBB1F621773078407BA0720F0CA
:1020B000621B730B840BBA0BEE1F88F7E095089533
:1020C0000E94741188F09F5798F0B92F9927B75143
:1020D000B0F0E1F0660F771F881F991F1AF0BA95CC
:1020E000C9F714C0B13091F00E948E11B1E008958B
:1020F0000C948E11672F782F8827B85F39F0B93F7D
:10210000CCF3869577956795B395D9F73EF490957E
:102110008095709561957F4F8F4F9F4F089597FBE6
:1021200016F40E943D110C94D310E89409C097FB5B
:102130003EF490958095709561957F4F8F4F9F4F9E
:102140009923A9F0F92F96E9BB279395F6958795E2
:1021500077956795B795F111F8CFFAF4BB0F11F4A5
:1021600060FF1BC06F5F7F4F8F4F9F4F16C088234C
:1021700011F096E911C0772321F09EE8872F762F82
:1021800005C0662371F096E8862F70E060E02AF0C3
:102190009A95660F771F881FDAF7880F96958795AF
:1021A00097F90895E894F92F96EBFF2381F0121622
:1021B00013061406440B9395F695879577956795C6
:1021C00057954040FF23B9F71BC0992708958823EE
:1021D00051F49850D2F7872B762F652F542F432F29
:1021E000322F20E0B1F3121613061406440B882395
:1021F0003AF09A95440F551F661F771F881FCAF73C
:1022000055234AF4440F551F11F460FF04C06F5F5B
:102210007F4F8F4F9F4F880F9695879597F9089519
:10222000990F0008550FAA0BE0E8FEEF16161706E7
:10223000E807F907C0F012161306E407F50798F04F
:10224000621B730B840B950B39F40A2661F0232B68
:10225000242B252B21F408950A2609F4A140A695E4
:102260008FEF811D811D089597F99F6780E870E0C9
:1022700060E008959FEF80EC0895909580957095AB
:10228000609550954095309521953F4F4F4F5F4F4A
:102290006F4F7F4F8F4F9F4F089500240A9416165B
:1022A000170618060906089500240A941216130644
:1022B000140605060895092E0394000C11F48823D2
:1022C00052F0BB0F40F4BF2B11F460FF04C06F5FEE
:1022D0007F4F8F4F9F4F089557FD9058440F551FC4
:1022E00059F05F3F71F04795880F97FB991F61F098
:1022F0009F3F79F087950895121613061406551F0F
:10230000F2CF4695F1DF08C0161617061806991F7A
:10231000F1CF86957105610508940895E894BB276F
:1023200066277727CB0197F908950E94101108F4CA
:102330008FEF08950E94AD110C945B110E944D1116
:1023400038F00E94541120F0952311F00C943411B0
:102350000C943A1111240C948F110E946C1170F39B
:10236000959FC1F3950F50E0551F629FF001729F3A
:10237000BB27F00DB11D639FAA27F00DB11DAA1F49
:10238000649F6627B00DA11D661F829F2227B00D96
:10239000A11D621F739FB00DA11D621F839FA00D21
:1023A000611D221F749F3327A00D611D231F849F71
:1023B000600D211D822F762F6A2F11249F575040C8
:1023C0009AF0F1F088234AF0EE0FFF1FBB1F661F43
:1023D000771F881F91505040A9F79E3F510580F00C
:1023E0000C9434110C948F115F3FE4F3983ED4F3B6
:1023F000869577956795B795F795E7959F5FC1F7B0
:10240000FE2B880F911D9695879597F90895FA01EF
:10241000EE0FFF1F309621053105A1F16115710501
:1024200061F48038BFE39B0749F1689490388105D7
:1024300061F08038BFEF9B0741F099234AF5FF3FD9
:10244000E1053105210519F1E8940894E795D901D2
:10245000AA2329F4AB2FBE2FF85FD0F310C0FF5F83
:1024600070F4A695E0F7F73950F019F0FF3A38F418
:102470009F779F930DD00F9007FC9058089546F0DA
:102480000C943A1160E070E080E89FE308954FE714
:102490009F775F934F933F932F930E9407132F9142
:1024A0003F914F915F910E949A110C9464120E9487
:1024B0001011880B990B089529F416F00C9434111F
:1024C0000C948E110C943A110E947411A8F3963852
:1024D000A0F707F80F92E8942BE33AEA48EB5FE79E
:1024E0000E94B0110F920F920F924DB75EB70F92EC
:1024F0000E944F13E8E6F0E00E9496124F915F9120
:10250000EF91FF91E595EE1FFF1F49F0FE57E06840
:102510004427EE0F441FFA95E1F74195550B0E94B1
:10252000C9120F9007FE0C94BD120895DF93CF934C
:102530001F930F93FF92EF92DF927B018C016894BF
:1025400006C0DA2EEF010E94AD11FE01E894A591BC
:102550002591359145915591A6F3EF010E94940F75
:10256000FE019701A801DA9469F7DF90EF90FF90E0
:102570000F911F91CF91DF9108959B01AC0160E015
:1025800070E080E89FE30C94EE0F0C9434110C94EF
:1025900083130E947411D8F39923C9F3940F511D2A
:1025A000A3F39150504094F059F0882332F0660F15
:1025B000771F881F91505040C1F79E3F51052CF75F
:1025C000880F911D9695879597F908955F3FACF018
:1025D000983E9CF0BB27869577956795B79508F44C
:1025E000B1609395C1F7BB0F58F711F460FFE8CFC6
:1025F0006F5F7F4F8F4F9F4FE3CF0C948F1116F07B
:102600000C9483130C943A1168940C9434110E9426
:102610007411A8F39923C1F3AEF3DF93CF931F9303
:102620000F93FF92C92FDD2788232AF02197660F89
:10263000771F881FDAF720E030E040E85FEB9FE388
:10264000883920F0803E38F021968F770E947D0FE8
:10265000E0E9F0E004C00E947D0FEDEBF0E00E94A5
:1026600096128B01BE01EC01FB2E6F577109759517
:10267000771F880B990B0E94971028E132E741E3FE
:102680005FE30E94AD11AF2D9801AE01FF900F9155
:102690001F91CF91DF910E94940F0C945B11FA016E
:1026A000DC01AA0FBB1F9B01AC01BF5728F42227F6
:1026B00033274427507820C0B75190F4AB2F002423
:1026C000469537952795011CA395D2F3002071F00C
:1026D000220F331F441FB395DAF30ED00C947C0FF6
:1026E00061307105A0E88A07B94630F49B01AC015E
:1026F0006627772788279078309621F020833183CA
:102700004283538308959F3F31F0915020F4879581
:1027100077956795B795880F911D9695879597F949
:102720000895DB018F939F930E94C313BF91AF91D4
:10273000A29F800D911DA39F900DB29F900D11241B
:102740000895A1E21A2EAA1BBB1BFD010DC0AA1FF2
:10275000BB1FEE1FFF1FA217B307E407F50720F00A
:10276000A21BB30BE40BF50B661F771F881F991F85
:102770001A9469F760957095809590959B01AC01CE
:10278000BD01CF0108950E946115A59F900DB49FD2
:10279000900DA49F800D911D11240895B7FF0C94F6
:1027A000C3130E94C313821B930B0895DF93CF932F
:1027B0001F930F939A9DF02D219FF00D8B9DF00D8F
:1027C0008A9DE02DF10D039FF00D029FE00DF11D9C
:1027D0004E9DE00DF11D5E9DF00D4F9DF00D7F9320
:1027E0006F93BF92AF925F934F93D5010E94611593
:1027F0008B01AC01D7010E946115EB01E80FF91FB5
:10280000D6010E9426142F913F91D6010E94611596
:10281000C60FD71FE81FF91FAF91BF910E94261462
:102820002F913F910E946115C60FD71FE81FF91F16
:10283000D6010E946115E60FF71F9801BE01CF0176
:1028400011240F911F91CF91DF9108950E9461157E
:10285000460F571FC81FD91F08F431960895689472
:1028600001C0E894F92FF12B12F00C946314A0E04E
:10287000B0E0EDE3F4E10C94D514092E059422F4B4
:102880000E94BF14112392F4F0E80F26FFEFE094AA
:10289000F09400951095B094C094D094A194BF0A80
:1028A000CF0ADF0AEF0AFF0A0F0B1F0B0E946E14FC
:1028B00007FC0E94BF14CDB7DEB7ECE00C94F11416
:1028C000689401C0E8948F929F92CF93DF930E9407
:1028D0006E14DF91CF919F908F9008958824992452
:1028E000F401E401B0E49F93AA279A158B049C0499
:1028F000ED05FE05CF05D007A10798F4AD2FDC2F1D
:10290000CF2FFE2FE92D982C892E982F872F762FE9
:10291000652F542F432F322F2227B85031F7BF9104
:1029200027C01B2EBF91BB27220F331F441F551FEB
:10293000661F771F881F991F881C991CEE1FFF1F99
:10294000CC1FDD1FAA1FBB1F8A149B04EC05FD05CD
:10295000CE05DF05A007B10748F08A189B08EC09EF
:10296000FD09CE09DF09A00BB10B21601A94E1F635
:102970002EF49401AF01BE01CD01000C08956095C5
:1029800070958095909530954095509521953F4F45
:102990004F4F5F4F6F4F7F4F8F4F9F4F08952F9235
:1029A0003F924F925F926F927F928F929F92AF92DF
:1029B000BF92CF92DF92EF92FF920F931F93CF932C
:1029C000DF93CDB7DEB7CA1BDB0B0FB6F894DEBFC3
:1029D0000FBECDBF09942A88398848885F846E84E9
:1029E0007D848C849B84AA84B984C884DF80EE8033
:1029F000FD800C811B81AA81B981CE0FD11D0FB63C
:102A0000F894DEBF0FBECDBFED0108950F930830DF
:102A100090F0982F872F762F652F542F432F322F2A
:102A200022270850F4CF220F331F441F551F661F63
:102A3000771F881F991F0A95B2F70F91089597FB8A
:102A400010F8169400080F93083098F00850232FC0
:102A5000342F452F562F672F782F892F902DF4CFA5
:102A600005949795879577956795579547953795E9
:102A700027950A95AAF70F9108952A0D3B1D4C1D25
:102A80005D1D6E1D7F1D801F911F08952A193B0932
:102A90004C095D096E097F09800B910B0895002494
:102AA000A7FD00942A173005400550056005700504
:102AB000800590050895EE0FFF1F0590F491E02D1D
:102AC0000994A29FB001B39FC001A39F700D811D07
:102AD0001124911DB29F700D811D1124911D089527
:0E2AE00081E090E0F8940C947515F894FFCF07
:102AEE00000000006B01E700340112012601B20163
:102AFE00000000001303E302DB02C702B802B702B4
:102B0E000D0A002140414C542300214042415223E2
:102B1E0000214054485223006E616E00696E6600BB
:042B2E006F76660058
:00000001FF
