:100000000C9458000C9480000C9480000C94800098
:100010000C9480000C9480000C9480000C94800060
:100020000C9480000C9480000C9480000C94800050
:100030000C9480000C9480000C9480000C94800040
:100040000C9453050C9480000C9421050C94FB0433
:100050000C9480000C9480000C9480000C94800020
:100060000C949D050C9480000000000025002800E1
:100070002B00040404040404040402020202020229
:10008000030303030303010204081020408001025C
:1000900004081020010204081020000000080002DB
:1000A0000100000304070000000000000000CB0670
:1000B00011241FBECFEFD8E0DEBFCDBF11E0A0E01E
:1000C000B1E0E2E0F7E102C005900D92A435B1077E
:1000D000D9F722E0A4E5B1E001C01D92AA3BB20726
:1000E000E1F710E0C8E5D0E004C02197FE010E94CE
:1000F000740BC735D107C9F70E9404070C947F0B16
:100100000C940000382F2091100290910F022132A0
:1001100008F049C08091EC018111FCCF42E040938E
:10012000EC013093EB013FEF3093EA011092E901CB
:100130002093E801AFEEB1E048EC51E0FA013E2F28
:10014000341B321718F43D913193F9CF1092C70147
:100150002091C701990F922B9093C7019091C601EE
:10016000913061F41092C6019091C7019093BB0049
:100170009091BC0093FDF8CF95EC01C095EE909363
:10018000BC009091EC019230E1F39091EA019F3F25
:1001900079F08091EA01803241F08091EA01803368
:1001A00031F084E005C081E003C082E001C083E05B
:1001B0001092EE01109210021092ED01089590E05D
:1001C000FC01E656FF4F2491FC01EA57FF4F3491A2
:1001D000FC01EE58FF4FE491EE23B1F1222339F1F7
:1001E000233091F038F42130A9F0223001F584B5A4
:1001F0008F7D12C0273091F02830A1F02430B9F45F
:10020000809180008F7D03C0809180008F778093E4
:1002100080000DC084B58F7784BD09C08091B00087
:100220008F7703C08091B0008F7D8093B000F0E0A5
:10023000EE0FFF1FE859FF4FA591B4918FB7F894C7
:10024000EC913E2B3C938FBF0895CF92DF92EF92BB
:10025000FF920F931F93CF93DF936C017A018B0171
:10026000C0E0D0E0CE15DF0589F0D8016D918D0199
:10027000D601ED91FC910190F081E02DC601099528
:10028000892B11F47E0102C02196ECCFC701DF91CA
:10029000CF911F910F91FF90EF90DF90CF90089535
:1002A000FC01918D828D981761F0828DDF01A80F7E
:1002B000B11D5D968C91928D9F5F9F73928F90E0A0
:1002C00008958FEF9FEF0895FC01918D828D98170F
:1002D00031F0828DE80FF11D858D90E008958FEF4C
:1002E0009FEF0895FC01918D228D892F90E0805C15
:1002F0009F4F821B91098F739927089581E192E0A6
:100300000E94720121E0892B09F420E0822F0895D8
:10031000FC01848DDF01A80FB11DA35ABF4F2C91A2
:10032000848D90E001968F739927848FA689B78971
:100330002C93A089B1898C9180648C93938D848D4A
:10034000981306C00288F389E02D80818F7D808319
:100350000895EF92FF920F931F93CF93DF93EC01D9
:1003600081E0888F9B8D8C8D981305C0E889F98971
:10037000808185FD24C0F62E0B8D10E00F5F1F4F8E
:100380000F731127E02E8C8DE8120CC00FB607FCFE
:10039000FACFE889F989808185FFF5CFCE010E94E7
:1003A0008801F1CF8B8DFE01E80FF11DE35AFF4F5D
:1003B000F0820B8FEA89FB898081806207C0EE8919
:1003C000FF896083E889F98980818064808381E086
:1003D00090E0DF91CF911F910F91FF90EF900895E2
:1003E000CF93DF93EC01888D8823C9F0EA89FB89DC
:1003F000808185FD05C0A889B9898C9186FD0FC0D3
:100400000FB607FCF5CF808185FFF2CFA889B989A7
:100410008C9185FFEDCFCE010E948801E7CFDF915F
:10042000CF91089580E090E0892B29F00E947E0111
:1004300081110C94000008953FB7F8948091A001B9
:100440009091A101A091A201B091A30126B5A89B12
:1004500005C02F3F19F00196A11DB11D3FBFBA2F56
:10046000A92F982F8827820F911DA11DB11DBC01B6
:10047000CD0142E0660F771F881F991F4A95D1F77B
:100480000895CF92DF92EF92FF920E941C026B01BF
:100490007C010E941C02DC01CB018C199D09AE0974
:1004A000BF09883E9340A105B10598F3FF90EF90F6
:1004B000DF90CF90089585ED8093BC008091BC00C3
:1004C00084FDFCCF1092EC01089540917601262F17
:1004D00030E0240F311D21323105DCF42091EC0194
:1004E0002430C9F4FC0180E090E0861758F4309184
:1004F00076012191DC01AC5ABE4FA30FB11D2C93A4
:100500000196F3CF80917601680F6093760180E0C9
:10051000089581E0089582E008951092EC0181E051
:100520008093EB011092C60182E10E94DF0083E11B
:100530000E94DF00E9EBF0E080818E7F8083808184
:100540008D7F808388E48093B80085E48093BC002D
:1005500008950895E091A5018091A401E81730F471
:10056000F0E0EA55FE4F808190E008958FEF9FEF15
:1005700008959091A5018091A401981750F4E92F56
:10058000F0E0EA55FE4F208130E09F5F9093A50197
:1005900002C02FEF3FEFC90108958091A40190E0C0
:1005A0002091A501821B91090895CF92DF92EF92CD
:1005B000FF920F931F93CF93DF937C01262F972FEA
:1005C0008A018091ED01882391F0C62FD72F6E010B
:1005D000C40ED51ECC15DD0571F06991D701ED91E2
:1005E000FC910190F081E02DC7010995F3CF642FB4
:1005F000822F0E946502C801DF91CF911F910F9158
:10060000FF90EF90DF90CF900895CF93DF931F92EC
:10061000CDB7DEB769832091ED012223D1F020917F
:100620001002203240F021E030E0FC0133832283CD
:1006300080E090E015C08091EE01E82FF0E0E151FC
:10064000FE4F998190838F5F8093EE01809310021B
:1006500005C061E0CE0101960E94650281E090E054
:100660000F90DF91CF910895CF93C62F91E0909393
:10067000ED0190E690930F021092EE01109210029D
:10068000682F8EEA92E00E9405036C2F8EEA92E0BA
:100690000E94050381E0CF910C9482009091EC01BF
:1006A0009111FCCF813208F080E291E09093EC014F
:1006B0009093EB012FEF2093EA011092E901280FAC
:1006C0002093E8019093C7019091C701906C90939B
:1006D000C7019091C601913061F41092C6019091CA
:1006E000C7019093BB009091BC0093FDF8CF95ECAF
:1006F00001C095EE9093BC009091EC019130E1F334
:100700009091E901981710F48091E901A8ECB1E00B
:1007100026EA31E0F9019E2F921B981718F49D915B
:100720009193F9CF1092A5018093A401089591E0CF
:100730009093ED0190E690930F021092EE011092CB
:100740001002682F8EEA92E00E94050380E00E946A
:10075000820081E090E00E944E038EEA92E00E94C7
:10076000B902089586E20E949703682F6D7F86E2A2
:100770000E94340386E20E949703682F626086E23B
:100780000C943403009769F0FC0101900020E9F714
:100790003197AF01481B590BBC0181E192E00C94E9
:1007A000250180E090E008958F929F92AF92BF92D2
:1007B0000F931F93CF93DF93CDB7DEB7A1970FB6FB
:1007C000F894DEBF0FBECDBF19A2423008F44AE054
:1007D0008E010F5D1F4F842E912CA12CB12CA501F1
:1007E00094010E94520BE62FB901CA010150110970
:1007F000EA3014F4E05D01C0E95CD801EC93232BEE
:10080000242B252B61F7C8010E94C203A1960FB6C5
:10081000F894DEBF0FBECDBFDF91CF911F910F9136
:10082000BF90AF909F908F9008954F925F926F927C
:100830007F928F929F92AF92BF92CF92DF92EF9270
:10084000FF926B017C01B42E9B01AC010E944D0B09
:10085000882319F080E291E027C026013701E8944F
:1008600077F82FEF3FEF4FE75FE7C301B2010E9438
:100870004D0B81110DC02FEF3FEF4FE75FE7C30135
:10088000B2010E94830918161CF484E291E00CC0A6
:100890002FEF3FEF4FE75FE4C701B6010E94DB0A8D
:1008A000181684F488E291E0FF90EF90DF90CF90EB
:1008B000BF90AF909F908F907F906F905F904F9080
:1008C0000C94C2032FEF3FEF4FE75FECC701B60177
:1008D0000E94830987FDE6CF20E030E0A901C7012F
:1008E000B6010E94830987FF11C0E0911102F091C7
:1008F00012020190F081E02D6DE281E192E0099514
:100900004C01F7FAF094F7F8F09402C0812C912C86
:10091000A12C60E070E080E09FE3AB1441F020E0A8
:1009200030E040E251E40E948809A394F6CF9B0195
:10093000AC01C701B6010E9417092B013C010E94BE
:10094000FA096B017C010E94290A9B01AC01C301D9
:10095000B2010E9416092B013C014AE0C701B60111
:100960000E94D4037C01E80CF91CBB2069F0E091E3
:100970001102F09112020190F081E02D6EE281E10E
:1009800092E00995E80EF91EDB2CDD2021F120E034
:1009900030E040E251E4C301B2010E94E00A2B01C1
:1009A0003C010E94FA094B01A12CB12C4AE0C5017F
:1009B000B4010E94D403E80EF91EC501B4010E94DF
:1009C000290A9B01AC01C301B2010E9416092B0147
:1009D0003C01DA94DACFC701FF90EF90DF90CF901F
:1009E000BF90AF909F908F907F906F905F904F904F
:1009F00008950E947A0B1F920F920FB60F92112446
:100A00002F933F934F935F936F937F938F939F9316
:100A1000AF93BF93EF93FF9381E192E00E9488012F
:100A2000FF91EF91BF91AF919F918F917F916F91C6
:100A30005F914F913F912F910F900FBE0F901F909C
:100A400018951F920F920FB60F9211242F938F9328
:100A50009F93EF93FF93E0912102F0912202808116
:100A6000E0912702F091280282FD12C090818091CE
:100A70002A028F5F8F7320912B02821751F0E09131
:100A80002A02F0E0EF5EFD4F958F80932A0201C0AD
:100A90008081FF91EF919F918F912F910F900FBEC9
:100AA0000F901F9018951F920F920FB60F9211245E
:100AB0002F933F938F939F93AF93BF9380919C010C
:100AC00090919D01A0919E01B0919F0130919B0159
:100AD00023E0230F2D3720F40196A11DB11D05C081
:100AE00026E8230F0296A11DB11D20939B01809340
:100AF0009C0190939D01A0939E01B0939F018091D2
:100B0000A0019091A101A091A201B091A301019631
:100B1000A11DB11D8093A0019093A101A093A201FA
:100B2000B093A301BF91AF919F918F913F912F916E
:100B30000F900FBE0F901F9018951F920F920FB637
:100B40000F9211242F933F934F935F936F937F9353
:100B50008F939F93AF93BF93EF93FF938091B900CF
:100B6000887F803609F49CC068F5883209F45BC040
:100B700090F4803109F454C038F4882309F4F6C0A5
:100B8000883009F44DC0F6C0883109F44CC0803279
:100B900009F45DC0EFC0803409F468C048F48033C4
:100BA00009F455C0883309F0E5C08093EA01D8C044
:100BB000803509F44FC0883509F45DC0883409F0E8
:100BC000D9C0D6C0883909F4C7C0A8F4883709F459
:100BD00067C038F4883609F463C0803709F460C010
:100BE000C9C0883809F4B8C0803909F45FC08038BA
:100BF00009F0C0C05BC0803B09F486C038F4803A7D
:100C000009F466C0883A09F47FC0B4C0803C09F496
:100C1000A7C0883C09F4A4C0883B09F48AC0AAC0D4
:100C20008091C70110C09091E9018091E801981767
:100C300070F5E091E90181E08E0F8093E901F0E029
:100C4000E853FE4F80818093BB0085EC86C0809383
:100C5000EA018EC0E091E90181E08E0F8093E90105
:100C60008091BB00F0E0E853FE4F80839091E90152
:100C70008091E8016EC0E091E90181E08E0F8093E0
:100C8000E9018091BB00F0E0E853FE4F8083809142
:100C9000EB0181116DC081E08093C60184EA61C0DF
:100CA00083E08093EC0110929A01CFCF80919A015A
:100CB000803208F051C0E0919A0181E08E0F80935C
:100CC0009A018091BB00F0E0E658FE4F8083BDCFD3
:100CD00085EC8093BC001092EC0180919A018032E7
:100CE00030F4E0919A01F0E0E658FE4F10826091F6
:100CF0009A0170E0E0917801F09179018AE791E042
:100D0000099510929A0136C084E08093EC0110920C
:100D1000770110927601E0917401F09175010995C7
:100D200080917601811105C081E080937601109257
:100D30005401E091770181E08E0F80937701F0E01C
:100D4000EC5AFE4F80818093BB0090917701809197
:100D50007601981708F479CF85E88093BC000AC023
:100D600085EC8093BC001092EC0104C01092EA0163
:100D70000E945B02FF91EF91BF91AF919F918F9184
:100D80007F916F915F914F913F912F910F900FBE87
:100D90000F901F901895E1E1F2E01382128288EE25
:100DA00093E0A0E0B0E084839583A683B78324E03A
:100DB00031E03183208325EC30E03587248724EC33
:100DC00030E03787268720EC30E0318B208B21EC18
:100DD00030E0338B228B22EC30E0358B248B26ECF9
:100DE00030E0378B268B118E128E138E148EEEEA26
:100DF000F2E01382128284839583A683B78384E111
:100E000091E0918380830895CF93DF931F92CDB7B4
:100E1000DEB7789484B5826084BD84B5816084BD7A
:100E200085B5826085BD85B5816085BD80916E0088
:100E3000816080936E0010928100809181008260B9
:100E400080938100809181008160809381008091F6
:100E500080008160809380008091B10084608093E5
:100E6000B1008091B00081608093B00080917A00E1
:100E7000846080937A0080917A00826080937A0007
:100E800080917A00816080937A0080917A008068F6
:100E900080937A001092C1001092A5011092A401D3
:100EA0001092EE01109210020E948D02E091210238
:100EB000F091220282E08083E0911D02F0911E02F7
:100EC0001082E0911F02F09120028FEC808310923B
:100ED0002902E0912502F091260286E08083E091CC
:100EE0002302F0912402808180618083E0912302BB
:100EF000F0912402808188608083E0912302F09148
:100F00002402808180688083E0912302F091240292
:100F100080818F7D80830E948D0286E20E949703EC
:100F2000682F606886E20E94340386E20E9497037D
:100F3000682F686386E20E94340367E083E10E94C1
:100F40003403FF24F39480E6E82E0E94B20309E5FF
:100F5000C02E02E0D02E80E00E94970381FD0FC0DA
:100F600021E0C21AD10841F4812C10EC912E19E72E
:100F7000A12E14ECB12E4FC00E944102ECCFF09292
:100F8000ED01E0920F021092EE011092100261E06A
:100F90008EEA92E00E94050380E00E94820083E0D6
:100FA00090E00E944E038330F9F68EEA92E00E94B0
:100FB000B902A82E8EEA92E00E94B902B82E8EEAFB
:100FC00092E00E94B9026C017A2C612CB3016B296A
:100FD000072E000C880B990B0E942B0A4B015C0119
:100FE000B6017727B4E075956795BA95E1F7072EB6
:100FF000000C880B990B0E942B0A20E030E040E89F
:101000005DE30E94E00A9B01AC01C501B4010E94AE
:1010100017094B015C018CE291E00E94C20342E09F
:10102000C501B4010E94150480E00E94970380E08E
:101030000E949703F092ED01E0920F021092EE01F0
:101040001092100261E08EEA92E00E94050380E0B7
:101050000E94820083E090E00E944E03833009F0FA
:1010600045C08EEA92E00E94B902D82E8EEA92E044
:101070000E94B902B82E8EEA92E00E94B902C82EF0
:101080000E94B2038B2D90E0A0E0B0E0BA2FA92F10
:10109000982F8827AD298C292C2D2073C22ED12C76
:1010A000F4E0D594C794FA95E1F7BC01CD01A6E030
:1010B0009595879577956795AA95D1F70E942B0A04
:1010C0004B015C01B60180E090E00E94290A20E01B
:1010D00030E040E85EE30E94E00A9B01AC01C501FC
:1010E000B4010E9417094B015C0107C0812C70EC10
:1010F000972E79E7A72E74ECB72E89E391E00E9432
:10110000C20342E0C501B4010E94150480E00E94C0
:10111000970369E5C62E62E0D62E80E00E94970311
:1011200081FD0FC031E0C31AD10841F4B12C30EC7D
:10113000A32E49E7C42E54ECD52E67C00E9441026D
:10114000ECCFF092ED01E0920F021092EE011092BE
:10115000100264E08EEA92E00E94050380E00E94A3
:10116000820082E090E00E944E038230F9F68EEA1F
:1011700092E00E94B902D82E8EEA92E00E94B90253
:1011800089830E94B2038981D7FC04C06D2DC82ECB
:10119000D12C0FC01D2D00E09801280F311DC90171
:1011A000919581959109692F382F307FC32EDD24C9
:1011B000D39470E080E090E00E942B0A4B015C0128
:1011C0008C2D90E024E0959587952A95E1F7BC0158
:1011D000990F880B990B0E942B0A20E030E040E821
:1011E0005DE30E94E00A9B01AC01C501B4010E94CD
:1011F0001709DD2039F09B01AC0160E070E0CB0104
:101200000E941609B62EA72E6C0187E491E00E9479
:10121000C20342E06B2D7A2DC6010E94150481E5C0
:1012200091E00E94C2030E9412028FCE5058BB2749
:10123000AA270E942E090C94A10A0E94930A38F052
:101240000E949A0A20F039F49F3F19F426F40C9476
:10125000900A0EF4E095E7FB0C948A0AE92F0E94AD
:10126000B20A58F3BA17620773078407950720F08C
:1012700079F4A6F50C94D40A0EF4E0950B2EBA2F4F
:10128000A02D0B01B90190010C01CA01A00111248C
:10129000FF27591B99F0593F50F4503E68F11A1638
:1012A000F040A22F232F342F4427585FF3CF4695C9
:1012B00037952795A795F0405395C9F77EF41F16EB
:1012C000BA0B620B730B840BBAF09150A1F0FF0FB5
:1012D000BB1F661F771F881FC2F70EC0BA0F621FA1
:1012E000731F841F48F4879577956795B795F79591
:1012F0009E3F08F0B0CF9395880F08F09927EE0F26
:101300009795879508950E94660A08F481E00895EC
:101310000E949C090C94A10A0E949A0A58F00E940B
:10132000930A40F029F45F3F29F00C948A0A511186
:101330000C94D50A0C94900A0E94B20A68F399237F
:10134000B1F3552391F3951B550BBB27AA276217C1
:101350007307840738F09F5F5F4F220F331F441FCE
:10136000AA1FA9F335D00E2E3AF0E0E832D0915002
:101370005040E695001CCAF72BD0FE2F29D0660FEF
:10138000771F881FBB1F261737074807AB07B0E832
:1013900009F0BB0B802DBF01FF2793585F4F3AF038
:1013A0009E3F510578F00C948A0A0C94D50A5F3F51
:1013B000E4F3983ED4F3869577956795B795F795BE
:1013C0009F5FC9F7880F911D9695879597F90895A6
:1013D000E1E0660F771F881FBB1F62177307840742
:1013E000BA0720F0621B730B840BBA0BEE1F88F751
:1013F000E09508950E94BA0A88F09F5798F0B92F97
:101400009927B751B0F0E1F0660F771F881F991F39
:101410001AF0BA95C9F714C0B13091F00E94D40AFD
:10142000B1E008950C94D40A672F782F8827B85F0D
:1014300039F0B93FCCF3869577956795B395D9F791
:101440003EF490958095709561957F4F8F4F9F4F9B
:101450000895E89409C097FB3EF4909580957095A7
:1014600061957F4F8F4F9F4F9923A9F0F92F96E9F0
:10147000BB279395F695879577956795B795F11165
:10148000F8CFFAF4BB0F11F460FF1BC06F5F7F4F02
:101490008F4F9F4F16C0882311F096E911C0772314
:1014A00021F09EE8872F762F05C0662371F096E81D
:1014B000862F70E060E02AF09A95660F771F881FEC
:1014C000DAF7880F9695879597F90895990F000890
:1014D000550FAA0BE0E8FEEF16161706E807F90706
:1014E000C0F012161306E407F50798F0621B730BA1
:1014F000840B950B39F40A2661F0232B242B252B22
:1015000021F408950A2609F4A140A6958FEF811DC4
:10151000811D089597F99F6780E870E060E0089565
:101520009FEF80EC089500240A94161617061806FB
:101530000906089500240A941216130614060506D7
:101540000895092E0394000C11F4882352F0BB0F68
:1015500040F4BF2B11F460FF04C06F5F7F4F8F4FCB
:101560009F4F089557FD9058440F551F59F05F3F06
:1015700071F04795880F97FB991F61F09F3F79F0B5
:1015800087950895121613061406551FF2CF469537
:10159000F1DF08C0161617061806991FF1CF8695B9
:1015A0007105610508940895E894BB27662777279D
:1015B000CB0197F908950E94660A08F48FEF089509
:1015C0000E94F30A0C94A10A0E94930A38F00E9428
:1015D0009A0A20F0952311F00C948A0A0C94900A30
:1015E00011240C94D50A0E94B20A70F3959FC1F39E
:1015F000950F50E0551F629FF001729FBB27F00DC1
:10160000B11D639FAA27F00DB11DAA1F649F662715
:10161000B00DA11D661F829F2227B00DA11D621F64
:10162000739FB00DA11D621F839FA00D611D221F1E
:10163000749F3327A00D611D231F849F600D211D02
:10164000822F762F6A2F11249F5750409AF0F1F085
:1016500088234AF0EE0FFF1FBB1F661F771F881FEE
:1016600091505040A9F79E3F510580F00C948A0A92
:101670000C94D50A5F3FE4F3983ED4F386957795B2
:101680006795B795F795E7959F5FC1F7FE2B880F94
:10169000911D9695879597F908950E94660A880B83
:1016A000990B0895A1E21A2EAA1BBB1BFD010DC0C8
:1016B000AA1FBB1FEE1FFF1FA217B307E407F50702
:1016C00020F0A21BB30BE40BF50B661F771F881FDE
:1016D000991F1A9469F760957095809590959B0174
:1016E000AC01BD01CF010895EE0FFF1F0590F491ED
:1016F000E02D099481E090E0F8940C947F0BF8942D
:02170000FFCF19
:1017020000000000A9012501720150016401F001ED
:10171200000000000503D502CD02B902AA02A90207
:101722006E616E00696E66006F766600416C746968
:1017320074756465286D293A005072657373757209
:1017420065285061293A002054656D702863293A52
:04175200000D0A007C
:107E0000112484B714BE81FFF0D085E080938100F7
:107E100082E08093C00088E18093C10086E0809377
:107E2000C20080E18093C4008EE0C9D0259A86E02C
:107E300020E33CEF91E0309385002093840096BBD3
:107E4000B09BFECF1D9AA8958150A9F7CC24DD24C4
:107E500088248394B5E0AB2EA1E19A2EF3E0BF2EE7
:107E6000A2D0813461F49FD0082FAFD0023811F036
:107E7000013811F484E001C083E08DD089C08234E0
:107E800011F484E103C0853419F485E0A6D080C0E4
:107E9000853579F488D0E82EFF2485D0082F10E0AE
:107EA000102F00270E291F29000F111F8ED06801E7
:107EB0006FC0863521F484E090D080E0DECF843638
:107EC00009F040C070D06FD0082F6DD080E0C81688
:107ED00080E7D80618F4F601B7BEE895C0E0D1E017
:107EE00062D089930C17E1F7F0E0CF16F0E7DF06D8
:107EF00018F0F601B7BEE89568D007B600FCFDCFD4
:107F0000A601A0E0B1E02C9130E011968C91119780
:107F100090E0982F8827822B932B1296FA010C0160
:107F200087BEE89511244E5F5F4FF1E0A038BF0790
:107F300051F7F601A7BEE89507B600FCFDCF97BE46
:107F4000E89526C08437B1F42ED02DD0F82E2BD052
:107F50003CD0F601EF2C8F010F5F1F4F84911BD097
:107F6000EA94F801C1F70894C11CD11CFA94CF0C13
:107F7000D11C0EC0853739F428D08EE10CD085E9AC
:107F80000AD08FE07ACF813511F488E018D01DD067
:107F900080E101D065CF982F8091C00085FFFCCF94
:107FA0009093C60008958091C00087FFFCCF809118
:107FB000C00084FD01C0A8958091C6000895E0E648
:107FC000F0E098E1908380830895EDDF803219F02E
:107FD00088E0F5DFFFCF84E1DECF1F93182FE3DFCA
:107FE0001150E9F7F2DF1F91089580E0E8DFEE27F6
:047FF000FF270994CA
:027FFE00040479
:0400000300007E007B
:00000001FF
