:100000000C94D5010C94FD010C94FD010C94A805F1
:100010000C94A8050C94A8050C94FD010C94FD010A
:100020000C94FD010C94FD010C94FD010C94FD0158
:100030000C94FD010C94FD010C94FD010C94FD0148
:100040000C945E050C94FD010C94E0040C94BA042D
:100050000C94FD010C94FD010C94FD010C94FD0128
:100060000C94FD010C94FD014C085E0861086808C1
:100070006F089D08A408B108BE08CA08CA08CA08C3
:10008000CA08CA08CA08CA08CA08CA08CA08CA08E0
:10009000CA08CA08CA08CA08CA08CA08CA08CA08D0
:1000A000CA08CA08CA08CA084C0859085E08610884
:1000B00068086F08760883089008084AD73B3BCE4B
:1000C000016E84BCBFFDC12F3D6C74319ABD568357
:1000D0003DDA3D00C77F11BED9E4BB4C3E916BAA0F
:1000E000AABE000000803F05A84CCDB2D44EB9385E
:1000F00036A9020C50B9918688083CA6AAAA2ABE45
:10010000000000803F000000000800020100000322
:10011000040700000000000000002D2D2D2D2D2DC6
:100120002D2D2D2D2D2D2D2D2D2D2D2D2D2D2D2DFF
:100130002D2D2D2D2D2D2D2D2D2D2D2D2D2D2D2DEF
:100140002D2D2D2D2D2D2D2D2D2D2D2D2D2D2D2DDF
:100150002D2D2D2D2D2D2D2D2D2D2D2D2D2D2D2DCF
:100160002D2D2D2D2D2D2D2D2D2D2D2D2D2D2D2DBF
:100170002D2D2D2D2D2D2D2D2D2D2D2D2D2D2D2DAF
:100180002D2D2D2D2D2D2D2D2D2D2D2D2D2D2D2D9F
:100190002D2D2D2D2D2D2D2D2D2D2D2D2D2D2D2D8F
:1001A0002D0020202020202020202020286465678A
:1001B0002920202020202028646567292020202055
:1001C0002020204167652020202020202020202082
:1001D0002020202020202020202020204167652072
:1001E00020286D29202020202D2D2D2066726F6D56
:1001F00020475053202D2D2D2D20202D2D2D2D200D
:10020000746F204C6F6E646F6E20202D2D2D2D206D
:10021000205258202020205258202020202020200A
:10022000204661696C00536174732048444F50202C
:100230004C617469747564652020204C6F6E676929
:1002400074756465202020466978202044617465B7
:100250002020202020202054696D6520202020208F
:100260004461746520416C7420202020436F7572B6
:100270007365205370656564204361726420204477
:10028000697374616E636520436F75727365204393
:10029000617264202043686172732053656E7465D7
:1002A0006E63657320436865636B73756D00627977
:1002B000204D696B616C20486172740054657374E1
:1002C000696E672054696E794750532B2B206C69F7
:1002D000627261727920762E2000416E20657874FA
:1002E000656E73697665206578616D706C65206FE9
:1002F00066206D616E7920696E74657265737469CC
:100300006E672054696E794750532B2B20666561C8
:1003100074757265730046756C6C4578616D706CB0
:10032000652E696E6F002A2A2A2A2A2A2A2A200084
:100330002A2A2A2A2A2A2A2A2A2A20004E6F2047D5
:1003400050532064617461207265636569766564E9
:100350003A20636865636B20776972696E67000095
:10036000000000250028002B0000000000240027CA
:10037000002A0000000000230026002900040404D5
:10038000040404040402020202020203030303033E
:10039000030102040810204080010204081020011B
:1003A0000204081020006D10E80B11241FBECFEFCF
:1003B000D8E0DEBFCDBF11E0A0E0B1E0E0E0F3E3C4
:1003C00002C005900D92AA3DB107D9F723E0AAED2E
:1003D000B1E001C01D92A039B207E1F711E0C4ED10
:1003E000D1E004C02197FE010E943B16C33DD10716
:1003F000C9F70E94F20B0C9473190C940000CF9271
:10040000DF92EF92FF920F931F93CF93DF936C01D4
:100410007A018B01C0E0D0E0CE15DF0589F0D8016C
:100420006D918D01D601ED91FC910190F081E02D4F
:10043000C6010995892B11F47E0102C02196ECCFEB
:10044000C701DF91CF911F910F91FF90EF90DF9047
:10045000CF900895FC01918D828D981761F0828D67
:10046000DF01A80FB11D5D968C91928D9F5F9F73E8
:10047000928F90E008958FEF9FEF0895FC01918D8A
:10048000828D981731F0828DE80FF11D858D90E0F7
:1004900008958FEF9FEF0895FC01918D228D892F94
:1004A00090E0805C9F4F821B91098F73992708957C
:1004B00087E292E00E944C0221E0892B09F420E0BF
:1004C000822F0895FC01848DDF01A80FB11DA35A6E
:1004D000BF4F2C91848D90E001968F739927848F64
:1004E000A689B7892C93A089B1898C9180648C935B
:1004F000938D848D981306C00288F389E02D808146
:100500008F7D80830895EF92FF920F931F93CF9377
:10051000DF93EC0181E0888F9B8D8C8D981305C053
:10052000E889F989808185FD24C0F62E0B8D10E0C5
:100530000F5F1F4F0F731127E02E8C8DE8120CC038
:100540000FB607FCFACFE889F989808185FFF5CFDE
:10055000CE010E946202F1CF8B8DFE01E80FF11DEA
:10056000E35AFF4FF0820B8FEA89FB89808180621A
:1005700007C0EE89FF896083E889F98980818064FA
:10058000808381E090E0DF91CF911F910F91FF90E8
:10059000EF900895CF93DF93EC01888D8823C9F005
:1005A000EA89FB89808185FD05C0A889B9898C917C
:1005B00086FD0FC00FB607FCF5CF808185FFF2CF17
:1005C000A889B9898C9185FFEDCFCE010E94620286
:1005D000E7CFDF91CF91089580E090E0892B29F05B
:1005E0000E94580281110C94000008952FB7F894CE
:1005F00060911F027091200280912102909122024D
:100600002FBF08952091250230912602281739071F
:1006100071F49091230280912402981741F0E091A7
:100620002302F0E0E652FE4F808190E008958FEFC4
:100630009FEF089508951F93CF93DF93DC015C969D
:100640002D913C915D972115310539F481E090E0C1
:1006500013969C938E9312973DC05196ED91FC9109
:10066000529750969C915097892F80951FB75E9610
:100670004C915E9741FB772770F941FD6095F894A6
:100680004081772311F0492B01C048234083E901C1
:100690002197F1F748E0508160FF02C0592B01C05B
:1006A00058235083E9012197F1F76695415099F756
:1006B000772321F090818923808303C08081982B48
:1006C00090831FBF5C968D919C915D970197F1F788
:1006D00021E030E0C901DF91CF911F910895209171
:1006E0002502309126022817390771F480912402DF
:1006F0002091230290E0805C9F4F821B910960E46F
:1007000070E00E940516089580E090E00895209121
:1007100025023091260228173907B9F49091230257
:1007200080912402981789F0E0912302F0E0E652CC
:10073000FE4F80812091230230E02F5F3F4F2F73C7
:1007400033272093230290E008958FEF9FEF0895C1
:10075000E0912502F0912602E817F90769F4A389D0
:10076000B4899C918589809589238C931092260267
:100770001092250281E0089580E00895CF93DF93E1
:10078000EC018A859B85AC85BD858E839F83A88778
:10079000B9870E94F6026A837B838C839D8381E004
:1007A00089838883DF91CF9108950E9477162F92D5
:1007B0003F924F925F926F927F928F929F92AF92F1
:1007C000BF92CF92DF92EF92FF920F931F93CF933E
:1007D000DF93D82FC92F8B010E94161224E630E038
:1007E00040E050E00E94191649015A019B01AC01FA
:1007F00060E876E988E990E00E94F5156B017C01DC
:10080000F80191828082ED2FFC2F2191822F022E00
:10081000000C990BC0970A97C0F32E3239F51F01CF
:1008200080E8882E86E9982E88E9A82EB12C9AE0D7
:10083000492E512C612C712CF101C1911F010C2EFC
:10084000000CDD0BE097CA30D10580F4C501B4017E
:10085000A30192010E94191649015A01DE010E946A
:100860004C16C60ED71EE81EF91EE6CFA5E0B0E076
:10087000A70196010E9441166F5F7F4F8F4F9F4FD8
:1008800023E030E040E050E00E941916F801228396
:100890003383448355831682DF91CF911F910F914B
:1008A000FF90EF90DF90CF90BF90AF909F908F9090
:1008B0007F906F905F904F903F902F900895FF92A0
:1008C0000F931F93CF93DF93EC01FF24F394888160
:1008D0008D3211F0F12C01C02196CE010E9416122A
:1008E0009B01AC01A4E6B0E00E944116FE014991D3
:1008F000242F042E000C330B205331092A303105EC
:10090000A8F34E3241F52181022E000C330B205307
:1009100031092A303105F8F44AE0429F8001439FB3
:10092000100D1124012E000C220B330B600F711FD0
:10093000821F931F0281002E000C110B005311091E
:100940000A30110540F4012E000C220B330B600F0E
:10095000711F821F931FFF2039F09095809570952D
:1009600061957F4F8F4F9F4FDF91CF911F910F91D7
:10097000FF9008951F920F920FB60F9211242F939C
:100980003F934F935F936F937F938F939F93AF9317
:10099000BF93EF93FF9387E292E00E946202FF9180
:1009A000EF91BF91AF919F918F917F916F915F91E7
:1009B0004F913F912F910F900FBE0F901F90189560
:1009C0001F920F920FB60F9211242F938F939F9324
:1009D000EF93FF93E0913702F09138028081E0912C
:1009E0003D02F0913E0282FD12C090818091400252
:1009F0008F5F8F7320914102821751F0E091400286
:100A0000F0E0E95DFD4F958F8093400201C0808149
:100A1000FF91EF919F918F912F910F900FBE0F90AB
:100A20001F90189590E0FC01EA5FFE4F3491FC01A5
:100A3000EF56FC4F2491FC01E358FC4FE491EE2368
:100A400009F43BC0332339F1333091F038F43130BD
:100A5000A9F0323001F584B58F7D12C0373091F0A6
:100A60003830A1F03430B9F4809180008F7D03C01C
:100A7000809180008F77809380000DC084B58F7740
:100A800084BD09C08091B0008F7703C08091B00011
:100A90008F7D8093B000F0E0EE0FFF1FE15AFC4F16
:100AA000A591B4918FB7F894EC91611103C0209592
:100AB0002E2301C02E2B2C938FBF08951F920F92CF
:100AC0000FB60F9211242F933F938F939F93AF9361
:100AD000BF9380911F0290912002A0912102B091BA
:100AE000220230911E0223E0230F2D3720F40196BD
:100AF000A11DB11D05C026E8230F0296A11DB11D41
:100B000020931E0280931F0290932002A093210243
:100B1000B093220280911A0290911B02A0911C02B4
:100B2000B0911D020196A11DB11D80931A029093F0
:100B30001B02A0931C02B0931D02BF91AF919F9125
:100B40008F913F912F910F900FBE0F901F9018958E
:100B50001F920F920FB60F9211242F933F934F9332
:100B60005F936F937F938F939F93AF93BF93EF9315
:100B7000FF93E0912502F0912602309709F451C0CD
:100B8000968DA685B785858591FF04C09C918923A4
:100B900029F447C09C91892309F043C0A389B489F3
:100BA0009C918589809589238C9386899789019763
:100BB000F1F7608D718DA685B785558538E020E009
:100BC000CB010197F1F7822F90E095958795282F1B
:100BD0004C91452309F02068315091F7868D81FDB5
:100BE00020958091240290E001968F73992730918F
:100BF0002302381749F0A0912402B0E0A652BE4F5C
:100C00002C938093240203C0868D8160868F828D11
:100C1000938D0197F1F7A389B4899C918589892BDC
:100C20008C93FF91EF91BF91AF919F918F917F91A5
:100C30006F915F914F913F912F910F900FBE0F9049
:100C40001F9018954F925F926F927F928F929F9212
:100C5000AF92BF92CF92DF92EF92FF920F931F93CA
:100C6000CF93DF932B013C010E94F6024B015C0104
:100C700082E0C82ED1E097E0D92E84EC92E00E9469
:100C80006F03892B09F4ECC284EC92E00E94870385
:100C9000C82F8091800390918103A0918203B0912D
:100CA00083030196A11DB11D80938003909381035E
:100CB000A0938203B0938303C43209F4B0C2E091DD
:100CC0007A03C53234F4CA3071F0CD3009F0B4C2C1
:100CD0000AC0CA3241F0CC3209F0AEC2809167033B
:100CE0008C2780936703EF3008F08BC2F0E0E75960
:100CF000FC4F108280916803882309F46BC1209116
:100D000069033FEB320F822F022E000C990B363015
:100D100010F4C79707C02156263018F4875591095B
:100D200001C0C097282F2295207F30916A034FEB96
:100D3000430F832F032E000C990B463010F4C797F6
:100D400007C03156363018F48755910901C0C09755
:100D5000820F90916703891329C180918C03909130
:100D60008D03A0918E03B0918F030196A11DB11D3B
:100D700080938C0390938D03A0938E03B0938F0385
:100D800080917B03882399F080918403909185035F
:100D9000A0918603B09187030196A11DB11D809398
:100DA000840390938503A0938603B09387031091E7
:100DB0007803112309F46BC0113009F0D0C0809181
:100DC0000B0390910C03A0910D03B0910E0380933F
:100DD000070390930803A0930903B0930A030E94AA
:100DE000F60260930F0370931003809311039093A6
:100DF0001203109306031093050380911903909139
:100E00001A03A0911B03B0911C03809315039093C8
:100E10001603A0931703B09318030E94F602609381
:100E20001D0370931E0380931F0390932003109360
:100E300014031093130380917B03882309F48FC05C
:100E4000E3EFF2E0A5EEB2E08D2D01900D928A95D0
:100E5000E1F7EAEFF2E0ACEEB2E08D2D01900D92F9
:100E60008A95E1F70E94F6026093010370930203F2
:100E700080930303909304031093E4021093E3021E
:100E800081E293E00E94BE038FE293E066C080910E
:100E9000190390911A03A0911B03B0911C03809336
:100EA000150390931603A0931703B09318030E94A1
:100EB000F60260931D0370931E0380931F039093AB
:100EC0002003D0931403D093130380917B038823D2
:100ED00021F1E3EFF2E0A5EEB2E08D2D01900D924D
:100EE0008A95E1F7EAEFF2E0ACEEB2E08D2D0190E9
:100EF0000D928A95E1F70E94F602609301037093C8
:100F000002038093030390930403D093E402D093ED
:100F1000E3028DE393E00E94BE038091550390911C
:100F20005603A0915703B0915803809351039093B7
:100F30005203A0935303B09354030E94F6026093AC
:100F40004D0370934E0380934F0390935003D093BF
:100F50004C03D0934B0389E593E00E94BE030091BC
:100F60007E0310917F030115110509F44AC1E09138
:100F70007E03F0917F0366A177A1F80186A197A176
:100F80000E947C16892B09F03CC1B801C80140962B
:100F90000E9485160E94F602F80160A371A382A345
:100FA00093A3D5A3D4A302A513A5DDCF8091880375
:100FB00090918903A0918A03B0918B030196A11DA2
:100FC000B11D8093880390938903A0938A03B09303
:100FD0008B0317C190917903911146C060E671E0CF
:100FE00089E693E00E947C16892B41F066E671E069
:100FF00089E693E00E947C16892B19F4D09378033C
:1010000015C06CE671E089E693E00E947C16892B9E
:1010100041F062E771E089E693E00E947C16892B3B
:1010200019F41092780302C0C092780380917C0377
:1010300090917D0390937F0380937E0300917E03C4
:1010400010917F030115110509F4DBC0F801E6A03A
:10105000F7A069E673E0C7010E947C1697FFC5C040
:10106000F80182A593A5E6CFE0917803E23009F478
:1010700091C080916903882309F48CC020E2E29F2B
:10108000F0011124E92B3197E932F10508F082C013
:10109000EC5CFF4F0C943B1689E693E00E945F04E2
:1010A0006093190370931A0380931B0390931C039E
:1010B00071C091E0813409F043C043C063EF72E036
:1010C00009C091E0833509F090E09093F90262C085
:1010D0006AEF72E089E693E00E94D7035BC091E07B
:1010E000873509F090E09093000354C089E693E0BF
:1010F0000E945F0460932B0370932C0380932D0355
:1011000090932E0347C089E693E00E945F046093AA
:10111000390370933A0380933B0390933C033AC0A6
:1011200089E693E00E94161260930B0370930C0300
:1011300080930D0390930E032DC091E081330CF446
:1011400090E090937B0326C089E693E00E941612FC
:1011500060935503709356038093570390935803FD
:1011600019C089E693E00E945F0460936303709363
:10117000640380936503909366030CC089E693E053
:101180000E945F0460934703709348038093490370
:1011900090934A0300917E0310917F03011511057E
:1011A00081F1E0917E03F0917F0366A177A1F801C0
:1011B00086A197A10E947C16892B19F5F80120A51C
:1011C00031A58091790390E082179307D4F0281716
:1011D000390739F440E150E069E673E0C8010E9444
:1011E0008C16F80102A513A5D9CF69E673E0C701F3
:1011F0000E947C161816190624F410927F03109290
:101200007E03809179038F5F8093790310927A0334
:1012100081E0CA3209F080E0809368032ECD1092FD
:101220007A031092790310926703C09278031092A8
:10123000680310927B0321CDEE3040F481E08E0FE5
:1012400080937A03F0E0E759FC4FC08380916803F4
:10125000811113CD80916703C827C09367030DCD1B
:101260000E94F602DC01CB0188199909AA09BB0981
:1012700084159505A605B70508F4FFCCDF91CF913D
:101280001F910F91FF90EF90DF90CF90BF90AF90A4
:101290009F908F907F906F905F904F900895EF9206
:1012A000FF920F931F93CF93DF93CDB7DEB7A09735
:1012B0000FB6F894DEBF0FBECDBF790122E1E0E0AA
:1012C000F1E08E010F5F1F4FD80101900D922A951A
:1012D000E1F7FE0173962EE0DF011D922A95E9F7F2
:1012E000442389F09F938F937F936F9388E791E0D6
:1012F0009F938F931F930F930E949B160FB6F894A2
:10130000DEBF0FBECDBFF801EE0DFF1D1082F8014C
:1013100001900020E9F7319720E2CF01801B910B6B
:101320008E159F0514F42193F8CF1E141F042CF47E
:10133000FE01EE0DFF1D80E28083C8010E94D20AEB
:1013400060E070E0CB010E942206A0960FB6F894F0
:10135000DEBF0FBECDBFDF91CF911F910F91FF90E8
:10136000EF9008952F923F924F925F926F927F92EB
:101370008F929F92AF92BF92CF92DF92EF92FF92A5
:101380000F931F93CF93DF936B017C01E901411110
:101390000CC0C230D1052CF08AE20E94130B2197B9
:1013A000F8CF80E20E94130BE6C09B01AC010E94C3
:1013B000C715882319F08CE791E01AC04601570140
:1013C000E894B7F82FEF3FEF4FE75FE7C501B401AF
:1013D0000E94C71581110FC02FEF3FEF4FE75FE766
:1013E000C501B4010E94311318162CF480E891E075
:1013F0000E94D20A81C02FEF3FEF4FE75FE4C701A1
:10140000B6010E94FB1418161CF484E891E0F0CF9A
:101410002FEF3FEF4FE75FECC701B6010E9431139A
:1014200087FDF3CF20E030E0A901C701B6010E949B
:10143000311387FF0AC08DE20E94130B460157014A
:10144000B7FAB094B7F8B09402C046015701302EF5
:10145000712C60E070E080E09FE3731440F420E0C2
:1014600030E040E251E40E943B137394F6CF9B01BD
:10147000AC01C501B4010E9453124B015C010E94F2
:10148000B4132B013C010E94E3139B01AC01C50185
:10149000B4010E9452124B015C014AE0C301B20147
:1014A0000E941E0B332019F08EE20E94130B702E47
:1014B000772011F120E030E040E251E4C501B401B1
:1014C0000E9408154B015C010E94B4131B01412CC2
:1014D000512C4AE0C201B1010E941E0BC201B101B0
:1014E0000E94E3139B01AC01C501B4010E9452129A
:1014F0004B015C017A94DCCFC701B6010E94AD13A9
:101500005B0177FF04C0AA24BB24A61AB70A20E017
:1015100030E0A901C701B6010E943113082E000C6A
:10152000990B8827990F881F99270196080F191F73
:1015300088EEA81683E0B8065CF484E6A816B10429
:1015400054F48AE0A816B1044CF481E090E008C09D
:1015500084E090E005C083E090E002C082E090E08B
:10156000080F191F0C171D0734F480E20E94130B9B
:101570000F5F1F4FF7CF60E070E0CB01DF91CF919D
:101580001F910F91FF90EF90DF90CF90BF90AF90A1
:101590009F908F907F906F905F904F903F902F9093
:1015A0000C942206009769F0FC0101900020E9F7F5
:1015B0003197AF01481B590BBC0187E292E00C94B4
:1015C000FF0180E090E008950F931F93CF93DF9386
:1015D0008C01C0E0D0E0F801EC0FFD1F64916623A0
:1015E00071F0E0912702F09128020190F081E02D46
:1015F00087E292E00995892B11F02196ECCFCE017C
:10160000DF91CF911F910F910895CF93DF930E94A7
:10161000E40AEC0182E991E00E94D20A8C0F9D1F3E
:10162000DF91CF910895E0912702F0912802019077
:10163000F081E02D682F87E292E009948F929F92CB
:10164000AF92BF920F931F93CF93DF93CDB7DEB7C7
:10165000A1970FB6F894DEBF0FBECDBF19A24230DE
:1016600008F44AE08E010F5D1F4F842E912CA12CAF
:10167000B12CA50194010E941916E62FB901CA01E7
:1016800001501109EA3014F4E05D01C0E95CD801B1
:10169000EC93232B242B252B61F7C8010E94D20A3F
:1016A000A1960FB6F894DEBF0FBECDBFDF91CF91EC
:1016B0001F910F91BF90AF909F908F900895EF92E0
:1016C000FF920F931F93CF93DF937C01FC01019056
:1016D0000020E9F731978F01081B190BC0E0D0E01B
:1016E000C017D1072CF4F701EC0FFD1F808101C05A
:1016F00080E20E94130B2196C630D10589F760E085
:1017000070E0CB01DF91CF911F910F91FF90EF908F
:101710000C942206CF92DF92EF92FF921092E40295
:101720006091E5027091E60280E090E00E94E31390
:101730006B017C016091E7027091E8028091E902FF
:101740009091EA020E94E31328E23BE64EE65EE453
:101750000E943B139B01AC01C701B6010E945312CA
:101760002091EB0221119058FF90EF90DF90CF90E5
:101770000895CF92DF92EF92FF921092E40260916F
:10178000EC027091ED0280E090E00E94E3136B01A7
:101790007C016091EE027091EF028091F0029091D5
:1017A000F1020E94E31328E23BE64EE65EE40E946B
:1017B0003B139B01AC01C701B6010E94531220915B
:1017C000F20221119058FF90EF90DF90CF90089592
:1017D00084E591E09093C5028093C40284EC92E08A
:1017E0000C94A803CF93DF93CDB7DEB7AC970FB6B9
:1017F000F894DEBF0FBECDBF789484B5826084BDFF
:1018000084B5816084BD85B5826085BD85B5816004
:1018100085BD80916E00816080936E001092810082
:10182000809181008260809381008091810081603D
:1018300080938100809180008160809380008091FE
:10184000B10084608093B1008091B000816080938A
:10185000B00080917A00846080937A0080917A0051
:10186000826080937A0080917A00816080937A0010
:1018700080917A00806880937A001092C100E09194
:101880003702F091380282E08083E0913302F091D8
:1018900034021082E0913502F091360280E18083BB
:1018A00010923F02E0913B02F0913C0286E080837F
:1018B000E0913902F0913A02808180618083E09169
:1018C0003902F0913A02808188608083E091390288
:1018D000F0913A02808180688083E0913902F09132
:1018E0003A0280818F7D80831092DF021092DE02A7
:1018F0001092DD021092DC021092DB021092DA02EA
:101900008EE393E09093E1028093E0029091D00205
:10191000963108F057C02DE831E03093DB02209378
:10192000DA022CE333E03093DD022093DC0224E67C
:1019300032E03093DF022093DE022091680098307D
:1019400050F031E09E3008F430E081E001C0880FB3
:101950003A95EAF701C084E0822B809368009830C2
:1019600038F09E3040F0963148F020E030E008C07A
:101970002DE630E005C02BE630E002C02CE630E07A
:101980003093D8022093D702983030F481E001C020
:10199000880F9A95EAF70EC0292F30E09E3018F490
:1019A0002850310902C02E50310981E001C0880F52
:1019B0002A95EAF78093D9028091E0029091E102A2
:1019C0000197F1F78091DE029091DF02892B21F1DE
:1019D000809125029091260222E0843C9207E1F05A
:1019E000009711F00E94A8038091E2028E7F8093FD
:1019F000E202109224021092230284EC92E090936F
:101A0000260280932502E091D702F091D8029081BE
:101A10008091D902892B808386E193E00E94050B97
:101A20008AED92E00E94050B8CEB92E00E94E40AA2
:101A30008DE891E00E94D20A82E991E00E94D20AE8
:101A40008EEA92E00E94050B82E991E00E94D20AA0
:101A500086E292E00E94050B82EA91E00E94050B6B
:101A60008AE191E00E94050BCE0101961C01409194
:101A70004B0310924C03609151037091520380917B
:101A800053039091540325E030E00E944F094091A8
:101A9000590310925A0360915F0370916003809123
:101AA00061039091620325E030E00E944F0940916C
:101AB000E3024CA70E948A0B06E010E02BE030E026
:101AC0004CA50E94B2094091E3024CA70E94B90BB9
:101AD0002CE030E04CA50E94B2094091E30244237F
:101AE00089F04CA70E94F602C0900103D090020337
:101AF000E0900303F09004036C197D098E099F099F
:101B00004CA503C06FEF7FEFCB0125E030E00E94D2
:101B10004F0980910503811105C080E393E00E9485
:101B2000E40A3CC010920603C0900703D09008035B
:101B3000E0900903F0900A03C701B60124E630E003
:101B400040E050E00E94191649015A016053784F55
:101B50007F936F93C701B60120E137E240E050E088
:101B60000E9419161F922F93C501B40124E630E09C
:101B700040E050E00E9419167F936F93A5E9B1E011
:101B8000BF93AF933F922F920E949B16C1010E9478
:101B9000D20A0FB6F894DEBF0FBECDBF80911303FB
:101BA000811105C086E293E00E94E40A48C01092C9
:101BB0001403C0901503D0901603E0901703F09023
:101BC0001803C701B60124E630E040E050E00E946F
:101BD0001916CA01B90124E630E040E050E00E9445
:101BE00019167F936F93C701B60120E137E240E0F9
:101BF00050E00E941916CA01B90124E630E040E025
:101C000050E00E9419167F936F93C701B60120E43C
:101C100032E44FE050E00E9419161F922F93A5EA7C
:101C2000B1E0BF93AF933F922F920E949B16C101E8
:101C30000E94D20A0FB6F894DEBF0FBECDBF40910E
:101C40000503442389F04CA70E94F602C0900F03BD
:101C5000D0901003E0901103F09012036C197D09ED
:101C60008E099F094CA503C06FEF7FEFCB0125E0E4
:101C700030E00E944F0960E070E0CB010E94220634
:101C8000F0903D0310923E03609143037091440332
:101C900080914503909146030E94E51320E030E0D7
:101CA00048EC52E40E943B1302E010E027E030E0F1
:101CB0004F2D0E94B209F0902F03109230036091D3
:101CC00035037091360380913703909138030E9459
:101CD000E51320E030E048EC52E40E943B1327E09B
:101CE00030E04F2D0E94B209F090210310922203A0
:101CF00060912703709128038091290390912A0312
:101D00000E94E51326E53EE04DEE5FE30E940815D4
:101D100020E030E048EC52E40E943B1326E030E043
:101D20004F2D0E94B20980912F03882339F1109220
:101D300030036091350370913603809137039091A1
:101D400038030E94E51320E030E044E351E40E94B0
:101D5000531220E030E044EB51E40E943B130E9418
:101D6000AD13CB0160E170E00E940516FC01EE0F9F
:101D7000FF1FE05EFE4F8081918102C088E891E004
:101D80000E945F0B0E94B90B4B015C010E948A0B01
:101D90006B017C0125EF32E143E05EE3C501B40154
:101DA0000E94531225E33AEF4EE85CE30E940815C7
:101DB0004B015C010E9475156DA37EA38FA398A7AC
:101DC000C501B4010E94361369A37AA38BA39CA317
:101DD00025E33AEF4EE85CE3C701B6010E9408151F
:101DE0006B017C010E9475154B015C01C701B601B6
:101DF0000E9436136B017C012CEC3EE548E45FE366
:101E00000E9408152B013C0127ED35E54FE15FE30A
:101E1000C501B4010E94081529A13AA14BA15CA1FA
:101E20000E9408159B01AC01C301B2010E9452122D
:101E30009B01AC010E9408152B013C0127ED35E503
:101E40004FE15FE36DA17EA18FA198A50E940815C7
:101E50009B01AC010E9408159B01AC01C301B201BA
:101E60000E9453120E9483152B013C012CEC3EE58D
:101E700048E45FE3C501B4010E9408154B015C0111
:101E800027ED35E54FE15FE3C701B6010E94081574
:101E900029A13AA14BA15CA10E9408159B01AC01AC
:101EA000C501B4010E9453129B01AC01C301B201F0
:101EB0000E94D21226E73BE742EC5AE40E94081542
:101EC0000E94B41328EE33E040E050E00E9419165F
:101ED000CA01B90129E030E04091E3020E944F09B4
:101EE0000E94B90B9B01AC0169A73AA74CA75BA75D
:101EF0000E948A0B6B017C0129A53AA54CA55BA524
:101F000065EF72E183E09EEB0E94521225E33AEF07
:101F10004EE85CE30E9408154B015C0125E33AEFB3
:101F20004EE85CE3C701B6010E9408156B017C0115
:101F3000C501B4010E94751569A37AA38BA39CA364
:101F4000C701B6010E9475152B013C01C501B40102
:101F50000E9436134B015C0127ED35E54FE15FE34D
:101F6000C301B2010E940815A50194010E94081541
:101F70004B015C01C701B6010E9436132CEC3EE513
:101F800048E45FE30E940815A50194010E945212E3
:101F90006B017C0127ED35E54FE15FE369A17AA193
:101FA0008BA19CA10E940815A70196010E94D21244
:101FB0006B017C0120E030E0A9010E94311387FF12
:101FC0000AC02BED3FE049EC50E4C701B6010E9486
:101FD00053126B017C0121EE3EE245E652E4C7015B
:101FE000B6010E9408156B017C0102E010E027E0B9
:101FF00030E04091E3020E94B20920E030E044E387
:1020000051E4C701B6010E94531220E030E044EBD6
:1020100051E40E943B130E94AD13CB0160E170E0DC
:102020000E940516FC01EE0FFF1FE05EFE4F80814F
:1020300091812091E302211102C088E891E00E9481
:102040005F0B609180037091810380918203909176
:10205000830326E030E041E00E944F096091840351
:102060007091850380918603909187032AE030E088
:1020700041E00E944F09609188037091890380912B
:102080008A0390918B0329E030E041E00E944F09E0
:1020900082E991E00E94D20A68EE73E080E090E06D
:1020A0000E9422060E94F60269387341810591055B
:1020B00060F08091800390918103A0918203B091A0
:1020C00083030A97A105B10518F00E94EC02CFCC5A
:1020D0008CE393E00E94050BF8CFCF93DF9310922F
:1020E0002A021092290288EE93E0A0E0B0E08093EB
:1020F0002B0290932C02A0932D02B0932E0224E485
:1021000031E0309328022093270225EC30E0309311
:1021100034022093330224EC30E0309336022093D3
:10212000350220EC30E0309338022093370221EC66
:1021300030E030933A022093390222EC30E03093C1
:102140003C0220933B0226EC30E030933E02209389
:102150003D021092400210924102109242021092EF
:1021600043021092E3021092E4021092E6021092EF
:10217000E5021092E7021092E8021092E902109232
:10218000EA021092EB021092ED021092EC02109211
:10219000EE021092EF021092F0021092F1021092F1
:1021A000F2021092F4021092F3021092F5021092D1
:1021B000F6021092F7021092F8021092F9021092B1
:1021C000FB021092FA021092FC021092FD02109291
:1021D000FE021092FF02109200031092050310926B
:1021E000060310920703109208031092090310923D
:1021F0000A03109213031092140310921503109205
:1022000016031092170310921803109221031092D4
:102210002203109227031092280310922903109290
:102220002A0310922F03109230031092350310925C
:102230003603109237031092380310923D03109228
:102240003E031092430310924403109245031092F0
:10225000460310924B0310924C03109251031092BC
:102260005203109253031092540310925903109288
:102270005A0310925F031092600310926103109250
:102280006203109267031092680322E020937803A0
:102290001092790310927A0310927B0310927D03BF
:1022A00010927C0310927F0310927E0310928003A1
:1022B0001092810310928203109283031092840380
:1022C0001092850310928603109287031092880360
:1022D0001092890310928A0310928B0310928C0340
:1022E00010928D0310928E0310928F031092690347
:1022F0001092C7021092C6028093C8029093C9023E
:10230000A093CA02B093CB0284E591E09093C502FA
:102310008093C4021092DB021092DA021092DD0266
:102320001092DC021092DF021092DE021092E102A3
:102330001092E0026091E2026E7F6D7F6093E20294
:102340006695617081E0682783E00E941205E4E9E8
:10235000F3E02491E0E8F3E08491882399F090E0A1
:10236000880F991FFC01E759FC4FA591B491FC011E
:10237000E15AFC4F859194918FB7F894EC91E22B40
:10238000EC938FBFE4E9F3E0E491E093D402E0E85A
:10239000F3E0E491F0E0EE0FFF1FE15AFC4F85916E
:1023A00094919093D6028093D502E3E9F3E02491CF
:1023B000EFE7F3E084918823C1F090E0880F991F44
:1023C000FC01E759FC4FC591D491FC01E15AFC4F47
:1023D000A591B4919FB7F8948881E22FE0958E2360
:1023E00088838C91E823EC939FBF8091E20281FD6A
:1023F00004C061E082E00E94120582E08093D00276
:10240000E3E9F3E0E491E093D102EFE7F3E0E49154
:10241000F0E0EE0FFF1FED58FC4F859194919093E3
:10242000D3028093D202DF91CF9108951F93FC01D4
:1024300099278827BC01E89411911032E9F31930EB
:1024400010F01E30C8F31B3251F01D3249F468946D
:1024500006C00E943D12610F711D811D911D1191D9
:1024600010531A30B0F33EF49095809570956195B5
:102470007F4F8F4F9F4F1F910895592F482F372F10
:10248000262F660F771F881F991F660F771F881FDB
:10249000991F620F731F841F951F660F771F881F78
:1024A000991F08955058BB27AA270E946A120C94BE
:1024B000AD140E94741438F00E947B1420F039F49B
:1024C0009F3F19F426F40C944A140EF4E095E7FBB0
:1024D0000C944414E92F0E94D21458F3BA176207DF
:1024E00073078407950720F079F4A6F50C94F4148B
:1024F0000EF4E0950B2EBA2FA02D0B01B90190011F
:102500000C01CA01A0011124FF27591B99F0593F62
:1025100050F4503E68F11A16F040A22F232F342FAA
:102520004427585FF3CF469537952795A795F040F8
:102530005395C9F77EF41F16BA0B620B730B840B0D
:10254000BAF09150A1F0FF0FBB1F661F771F881FC5
:10255000C2F70EC0BA0F621F731F841F48F487951D
:1025600077956795B795F7959E3F08F0B0CF93950F
:10257000880F08F09927EE0F9795879508950E9488
:10258000741460F080E891E009F49EEF0E947B14DF
:1025900028F040E851E071F45EEF0CC00C944A144E
:1025A0000C94F414E92FE0780E94D21440F3092E21
:1025B000052AB1F3261737074807590738F00E2EBA
:1025C00007F8E02569F0E025E0640AC0EF6307F84A
:1025D000009407FADB01B9019D01DC01CA01AD01DC
:1025E000EF930E9452130E94AD140E9402135F9158
:1025F000552339F02BED3FE049E450FD49EC0C94B4
:1026000053120895DF93DD27B92FBF7740E85FE3CA
:102610001616170648075B0718F4D92F0E940015F5
:102620009F938F937F936F930E94C315EAEBF0E023
:102630000E944D140E94AD142F913F914F915F91D4
:102640000E941B15DD2351F09058A2EA2AED3FE0CD
:1026500049EC5FE3D0785D270E946A12DF910C9409
:10266000AD140E94201408F481E008950E9484149F
:10267000E3950C94BE140E944F130C94AD140E9469
:102680007B1458F00E94741440F029F45F3F29F045
:102690000C94441451110C94F5140C944A140E9497
:1026A000D21468F39923B1F3552391F3951B550B7D
:1026B000BB27AA2762177307840738F09F5F5F4F15
:1026C000220F331F441FAA1FA9F335D00E2E3AF054
:1026D000E0E832D091505040E695001CCAF72BD06C
:1026E000FE2F29D0660F771F881FBB1F26173707BD
:1026F0004807AB07B0E809F0BB0B802DBF01FF27EF
:1027000093585F4F3AF09E3F510578F00C94441473
:102710000C94F5145F3FE4F3983ED4F386957795D7
:102720006795B795F7959F5FC9F7880F911D9695A7
:10273000879597F90895E1E0660F771F881FBB1F03
:10274000621773078407BA0720F0621B730B840BB0
:10275000BA0BEE1F88F7E09508950E94B4136894B1
:10276000B1110C94F51408950E94DA1488F09F5763
:1027700098F0B92F9927B751B0F0E1F0660F771FA5
:10278000881F991F1AF0BA95C9F714C0B13091F09B
:102790000E94F414B1E008950C94F414672F782F7C
:1027A0008827B85F39F0B93FCCF386957795679560
:1027B000B395D9F73EF490958095709561957F4FCC
:1027C0008F4F9F4F0895E89409C097FB3EF4909572
:1027D0008095709561957F4F8F4F9F4F9923A9F0FA
:1027E000F92F96E9BB279395F69587957795679589
:1027F000B795F111F8CFFAF4BB0F11F460FF1BC0CD
:102800006F5F7F4F8F4F9F4F16C0882311F096E95F
:1028100011C0772321F09EE8872F762F05C066230D
:1028200071F096E8862F70E060E02AF09A95660FC6
:10283000771F881FDAF7880F9695879597F908957F
:10284000990F0008550FAA0BE0E8FEEF16161706C1
:10285000E807F907C0F012161306E407F50798F029
:10286000621B730B840B950B39F40A2661F0232B42
:10287000242B252B21F408950A2609F4A140A695BE
:102880008FEF811D811D089597F99F6780E870E0A3
:1028900060E008959FEF80EC0895DF93CF931F933E
:1028A0000F93FF92EF92DF927B018C01689406C038
:1028B000DA2EEF010E941B15FE01E894A5912591E7
:1028C000359145915591A6F3EF010E946A12FE01E0
:1028D0009701A801DA9469F7DF90EF90FF900F91CC
:1028E0001F91CF91DF91089500240A9416161706C0
:1028F00018060906089500240A94121613061406F1
:10290000050608950C944A140E94DA14D8F3E8944A
:10291000E0E0BB279F57F0F02AED3FE049EC06C00E
:10292000EE0FBB0F661F771F881F28F0B23A6207B1
:102930007307840728F0B25A620B730B840BE3957C
:102940009A9572F7803830F49A95BB0F661F771FFF
:10295000881FD2F790480C94CE15092E0394000CD2
:1029600011F4882352F0BB0F40F4BF2B11F460FF29
:1029700004C06F5F7F4F8F4F9F4F0895EF93E0FF2D
:1029800007C0A2EA2AED3FE049EC5FEB0E946A1221
:102990000E94AD140F90039401FC9058E7EEF0E014
:1029A0000C94E11557FD9058440F551F59F05F3FA7
:1029B00071F04795880F97FB991F61F09F3F79F061
:1029C00087950895121613061406551FF2CF4695E3
:1029D000F1DF08C0161617061806991FF1CF869565
:1029E0007105610508940895E894BB276627772749
:1029F000CB0197F908950E94201408F48FEF0895F1
:102A00009B01AC0160E070E080E89FE30C943B1315
:102A10000E941B150C94AD140E94741438F00E948F
:102A20007B1420F0952311F00C9444140C944A1458
:102A300011240C94F5140E94D21470F3959FC1F3E5
:102A4000950F50E0551F629FF001729FBB27F00D5C
:102A5000B11D639FAA27F00DB11DAA1F649F6627B1
:102A6000B00DA11D661F829F2227B00DA11D621F00
:102A7000739FB00DA11D621F839FA00D611D221FBA
:102A8000749F3327A00D611D231F849F600D211D9E
:102A9000822F762F6A2F11249F5750409AF0F1F021
:102AA00088234AF0EE0FFF1FBB1F661F771F881F8A
:102AB00091505040A9F79E3F510580F00C9444146A
:102AC0000C94F5145F3FE4F3983ED4F38695779524
:102AD0006795B795F795E7959F5FC1F7FE2B880F30
:102AE000911D9695879597F908959F930E94841458
:102AF0000F9007FCEE5F0C94BE1419F416F40C94BE
:102B00004A140C94CC150E94DA14B8F39923C9F333
:102B1000B6F39F57550B87FF0E94DA150024A0E6F5
:102B200040EA900180585695979528F4805C660F8E
:102B3000771F881F20F026173707480730F4621BDD
:102B4000730B840B202931294A2BA69517940794DF
:102B5000202531254A2758F7660F771F881F20F058
:102B600026173707480730F4620B730B840B200DD0
:102B7000311D411DA09581F7B901842F9158880F0F
:102B80009695879508959B01AC010C9408150E94B9
:102B90002014880B990B08959F3F31F0915020F439
:102BA000879577956795B795880F911D9695879529
:102BB00097F9089591505040660F771F881FD2F7FC
:102BC00008959F938F937F936F93FF93EF939B0150
:102BD000AC010E940815EF91FF910E944D142F91B6
:102BE0003F914F915F910C940815DB018F939F9358
:102BF0000E944116BF91AF91A29F800D911DA39F8E
:102C0000900DB29F900D1124089597FB072E16F496
:102C1000009407D077FD09D00E94541607FC05D018
:102C20003EF4909581959F4F0895709561957F4FE3
:102C30000895A1E21A2EAA1BBB1BFD010DC0AA1FFD
:102C4000BB1FEE1FFF1FA217B307E407F50720F015
:102C5000A21BB30BE40BF50B661F771F881F991F90
:102C60001A9469F760957095809590959B01AC01D9
:102C7000BD01CF010895EE0FFF1F0590F491E02DE7
:102C800009940E946816A59F900DB49F900DA49F73
:102C9000800D911D11240895B7FF0C9441160E94D8
:102CA0004116821B930B0895AA1BBB1B51E107C061
:102CB000AA1FBB1FA617B70710F0A61BB70B881FCC
:102CC000991F5A95A9F780959095BC01CD0108955B
:102CD000A29FB001B39FC001A39F700D811D11245D
:102CE000911DB29F700D811D1124911D089581E0E9
:102CF00090E0F8940C947319FB01DC018D91019024
:102D000080190110D9F3990B0895FB01DC010190A2
:102D10000D920020E1F70895FB01DC014150504085
:102D200048F001900D920020C9F701C01D9241505A
:102D30005040E0F70895AEE0B0E0E1EAF6E10C942F
:102D40004A190D891E8986E08C831A8309838FEFC7
:102D50009FE79E838D83AE01475E5F4F6F89788DBD
:102D6000CE0101960E94BE162F813885F801E20F30
:102D7000F31F10822E96E4E00C946619ACE0B0E0EC
:102D8000E4ECF6E10C943C197C016B018A01FC0136
:102D900017821682838181FFBDC1CE0101964C014D
:102DA000F7019381F60193FD859193FF81916F0166
:102DB000882309F4ABC1853239F493FD859193FFE3
:102DC00081916F01853229F4B70190E00E94A61825
:102DD000E7CF512C312C20E02032A0F48B3269F067
:102DE00030F4803259F0833269F420612CC08D3286
:102DF00039F0803339F4216026C02260246023C07A
:102E0000286021C027FD27C030ED380F3A3078F414
:102E100026FF06C0FAE05F9E300D1124532E13C02A
:102E20008AE0389E300D1124332E20620CC08E3281
:102E300021F426FD6BC1206406C08C3611F4206895
:102E400002C0883641F4F60193FD859193FF81918C
:102E50006F018111C1CF982F9F7D9554933028F435
:102E60000C5F1F4FFFE3F9830DC0833631F08337CA
:102E700071F0833509F05BC022C0F801808189833D
:102E80000E5F1F4F44244394512C540115C0380148
:102E9000F2E06F0E711CF801A080B18026FF03C024
:102EA000652D70E002C06FEF7FEFC5012C870E9497
:102EB0009B182C0183012C852F77222E17C03801F7
:102EC000F2E06F0E711CF801A080B18026FF03C0F4
:102ED000652D70E002C06FEF7FEFC5012C870E9467
:102EE00090182C012C852068222E830123FC1BC006
:102EF000832D90E048165906B0F4B70180E290E0C7
:102F00000E94A6183A94F4CFF50127FC859127FE7C
:102F100081915F01B70190E00E94A61831103A94A8
:102F2000F1E04F1A51084114510471F7E5C084369D
:102F300011F0893639F5F80127FF07C060817181EA
:102F4000828193810C5F1F4F08C060817181072EC1
:102F5000000C880B990B0E5F1F4F2F76722E97FF78
:102F600009C090958095709561957F4F8F4F9F4FC9
:102F70002068722E2AE030E0A4010E94DE18A82EFC
:102F8000A81844C0853729F42F7EB22E2AE030E0FD
:102F900025C0F22FF97FBF2E8F36C1F018F4883587
:102FA00079F0B4C0803719F0883721F0AFC02F2FE7
:102FB0002061B22EB4FE0DC08B2D8460B82E09C0E6
:102FC00024FF0AC09F2F9660B92E06C028E030E08B
:102FD00005C020E130E002C020E132E0F801B7FE98
:102FE00007C060817181828193810C5F1F4F06C091
:102FF0006081718180E090E00E5F1F4FA4010E940C
:10300000DE18A82EA818FB2DFF777F2E76FE0BC0AA
:10301000372D3E7FA51450F474FE0AC072FC08C020
:10302000372D3E7E05C0BA2C372D03C0BA2C01C007
:10303000B52C34FF0DC0FE01EA0DF11D80818033F7
:1030400011F4397E09C032FF06C0B394B39404C0B2
:10305000832F867809F0B39433FD13C030FF06C088
:103060005A2CB31418F4530C5B18B32CB31468F433
:10307000B70180E290E03C870E94A618B3943C859B
:10308000F5CFB31410F43B1801C0312C34FF12C03B
:10309000B70180E390E03C870E94A6183C8532FF90
:1030A00017C031FD03C088E790E002C088E590E0DA
:1030B000B7010CC0832F867859F031FF02C08BE234
:1030C00001C080E237FD8DE2B70190E00E94A618B2
:1030D000A51438F4B70180E390E00E94A6185A9432
:1030E000F7CFAA94F401EA0DF11D8081B70190E0B9
:1030F0000E94A618A110F5CF332009F451CEB701D4
:1031000080E290E00E94A6183A94F6CFF7018681FB
:10311000978102C08FEF9FEF2C96E2E10C94581933
:10312000FC010590615070400110D8F78095909592
:103130008E0F9F1F0895FC01615070400190011097
:10314000D8F7809590958E0F9F1F08950F931F932A
:10315000CF93DF93FB01238121FD03C08FEF9FEF0E
:1031600028C022FF16C0468157812481358142172D
:10317000530744F4A081B1819D012F5F3F4F3183FC
:1031800020838C93268137812F5F3F4F378326839F
:1031900010C0EB01092F182F0084F185E02D09954F
:1031A000892BE1F68E819F8101969F838E83812FEB
:1031B000902FDF91CF911F910F910895FA01AA27C7
:1031C000283051F1203181F1E8946F936E7F6E5F6A
:1031D0007F4F8F4F9F4FAF4FB1E03ED0B4E03CD018
:1031E000670F781F891F9A1FA11D680F791F8A1FFB
:1031F000911DA11D6A0F711D811D911DA11D20D062
:1032000009F468943F912AE0269F11243019305D1B
:103210003193DEF6CF010895462F4770405D41930C
:10322000B3E00FD0C9F7F6CF462F4F70405D4A3359
:1032300018F0495D31FD4052419302D0A9F7EACF21
:10324000B4E0A6959795879577956795BA95C9F750
:1032500000976105710508959B01AC010A2E069443
:103260005795479537952795BA95C9F7620F731FFC
:10327000841F951FA01D08952F923F924F925F9239
:103280006F927F928F929F92AF92BF92CF92DF9276
:10329000EF92FF920F931F93CF93DF93CDB7DEB7DB
:1032A000CA1BDB0B0FB6F894DEBF0FBECDBF09946F
:1032B0002A88398848885F846E847D848C849B84C6
:1032C000AA84B984C884DF80EE80FD800C811B81D4
:1032D000AA81B981CE0FD11D0FB6F894DEBF0FBE03
:1032E000CDBFED01089511E0C4EDD1E004C0FE01B1
:1032F0000E943B162196C53DD107C9F7F894FFCF30
:103300002A2A2A2A2A2A2A2A2A2A2A2A2A2A2A2A1D
:103310002A00000000000000000000000000000083
:10332000B501B701BC01BB01BD01BF01C001C301B3
:10333000C701C901CA01CD01D701D101D601D5010B
:10334000000000008302FF014C022A023E02CA0272
:10335000000000001B03FF016F03870302031A0331
:103360004750524D4300474E524D43004750474748
:103370004100474E47474100256C64006E616E0076
:10338000696E66006F7666002A2A2A2000302E3980
:1033900035000D0A00253032642F253032642F2588
:1033A0003032642000253032643A253032643A25C8
:1033B00030326420004E004E4E4500454E450045DB
:1033C0005345005353450053005353570057535729
:0A33D00000574E57004E4E57000004
:107E0000112484B714BE81FFF0D085E080938100F7
:107E100082E08093C00088E18093C10086E0809377
:107E2000C20080E18093C4008EE0C9D0259A86E02C
:107E300020E33CEF91E0309385002093840096BBD3
:107E4000B09BFECF1D9AA8958150A9F7CC24DD24C4
:107E500088248394B5E0AB2EA1E19A2EF3E0BF2EE7
:107E6000A2D0813461F49FD0082FAFD0023811F036
:107E7000013811F484E001C083E08DD089C08234E0
:107E800011F484E103C0853419F485E0A6D080C0E4
:107E9000853579F488D0E82EFF2485D0082F10E0AE
:107EA000102F00270E291F29000F111F8ED06801E7
:107EB0006FC0863521F484E090D080E0DECF843638
:107EC00009F040C070D06FD0082F6DD080E0C81688
:107ED00080E7D80618F4F601B7BEE895C0E0D1E017
:107EE00062D089930C17E1F7F0E0CF16F0E7DF06D8
:107EF00018F0F601B7BEE89568D007B600FCFDCFD4
:107F0000A601A0E0B1E02C9130E011968C91119780
:107F100090E0982F8827822B932B1296FA010C0160
:107F200087BEE89511244E5F5F4FF1E0A038BF0790
:107F300051F7F601A7BEE89507B600FCFDCF97BE46
:107F4000E89526C08437B1F42ED02DD0F82E2BD052
:107F50003CD0F601EF2C8F010F5F1F4F84911BD097
:107F6000EA94F801C1F70894C11CD11CFA94CF0C13
:107F7000D11C0EC0853739F428D08EE10CD085E9AC
:107F80000AD08FE07ACF813511F488E018D01DD067
:107F900080E101D065CF982F8091C00085FFFCCF94
:107FA0009093C60008958091C00087FFFCCF809118
:107FB000C00084FD01C0A8958091C6000895E0E648
:107FC000F0E098E1908380830895EDDF803219F02E
:107FD00088E0F5DFFFCF84E1DECF1F93182FE3DFCA
:107FE0001150E9F7F2DF1F91089580E0E8DFEE27F6
:047FF000FF270994CA
:027FFE00040479
:0400000300007E007B
:00000001FF
